{
  "contractName": "Horses",
  "abi": [
    {
      "inputs": [],
      "stateMutability": "nonpayable",
      "type": "constructor"
    },
    {
      "inputs": [],
      "name": "InvalidAmount",
      "type": "error"
    },
    {
      "inputs": [],
      "name": "NotOwner",
      "type": "error"
    },
    {
      "anonymous": false,
      "inputs": [
        {
          "indexed": true,
          "internalType": "address",
          "name": "owner",
          "type": "address"
        },
        {
          "indexed": true,
          "internalType": "address",
          "name": "approved",
          "type": "address"
        },
        {
          "indexed": true,
          "internalType": "uint256",
          "name": "tokenId",
          "type": "uint256"
        }
      ],
      "name": "Approval",
      "type": "event"
    },
    {
      "anonymous": false,
      "inputs": [
        {
          "indexed": true,
          "internalType": "address",
          "name": "owner",
          "type": "address"
        },
        {
          "indexed": true,
          "internalType": "address",
          "name": "operator",
          "type": "address"
        },
        {
          "indexed": false,
          "internalType": "bool",
          "name": "approved",
          "type": "bool"
        }
      ],
      "name": "ApprovalForAll",
      "type": "event"
    },
    {
      "anonymous": false,
      "inputs": [
        {
          "indexed": false,
          "internalType": "string",
          "name": "name",
          "type": "string"
        },
        {
          "indexed": false,
          "internalType": "uint256",
          "name": "dna",
          "type": "uint256"
        },
        {
          "indexed": false,
          "internalType": "uint256",
          "name": "hb1",
          "type": "uint256"
        },
        {
          "indexed": false,
          "internalType": "uint256",
          "name": "hb2",
          "type": "uint256"
        },
        {
          "indexed": false,
          "internalType": "uint256",
          "name": "hb3",
          "type": "uint256"
        },
        {
          "indexed": false,
          "internalType": "uint256",
          "name": "health",
          "type": "uint256"
        },
        {
          "indexed": false,
          "internalType": "uint256",
          "name": "racelimit",
          "type": "uint256"
        },
        {
          "indexed": false,
          "internalType": "uint256",
          "name": "monta",
          "type": "uint256"
        }
      ],
      "name": "NewHorse",
      "type": "event"
    },
    {
      "anonymous": false,
      "inputs": [
        {
          "indexed": true,
          "internalType": "address",
          "name": "previousOwner",
          "type": "address"
        },
        {
          "indexed": true,
          "internalType": "address",
          "name": "newOwner",
          "type": "address"
        }
      ],
      "name": "OwnershipTransferred",
      "type": "event"
    },
    {
      "anonymous": false,
      "inputs": [
        {
          "indexed": false,
          "internalType": "address",
          "name": "account",
          "type": "address"
        }
      ],
      "name": "Paused",
      "type": "event"
    },
    {
      "anonymous": false,
      "inputs": [
        {
          "indexed": true,
          "internalType": "address",
          "name": "from",
          "type": "address"
        },
        {
          "indexed": true,
          "internalType": "address",
          "name": "to",
          "type": "address"
        },
        {
          "indexed": true,
          "internalType": "uint256",
          "name": "tokenId",
          "type": "uint256"
        }
      ],
      "name": "Transfer",
      "type": "event"
    },
    {
      "anonymous": false,
      "inputs": [
        {
          "indexed": false,
          "internalType": "address",
          "name": "account",
          "type": "address"
        }
      ],
      "name": "Unpaused",
      "type": "event"
    },
    {
      "inputs": [
        {
          "internalType": "address",
          "name": "to",
          "type": "address"
        },
        {
          "internalType": "uint256",
          "name": "tokenId",
          "type": "uint256"
        }
      ],
      "name": "approve",
      "outputs": [],
      "stateMutability": "nonpayable",
      "type": "function"
    },
    {
      "inputs": [
        {
          "internalType": "address",
          "name": "owner",
          "type": "address"
        }
      ],
      "name": "balanceOf",
      "outputs": [
        {
          "internalType": "uint256",
          "name": "",
          "type": "uint256"
        }
      ],
      "stateMutability": "view",
      "type": "function"
    },
    {
      "inputs": [
        {
          "internalType": "uint256",
          "name": "tokenId",
          "type": "uint256"
        }
      ],
      "name": "burn",
      "outputs": [],
      "stateMutability": "nonpayable",
      "type": "function"
    },
    {
      "inputs": [
        {
          "internalType": "uint256",
          "name": "tokenId",
          "type": "uint256"
        }
      ],
      "name": "getApproved",
      "outputs": [
        {
          "internalType": "address",
          "name": "",
          "type": "address"
        }
      ],
      "stateMutability": "view",
      "type": "function"
    },
    {
      "inputs": [
        {
          "internalType": "uint256",
          "name": "",
          "type": "uint256"
        }
      ],
      "name": "horses",
      "outputs": [
        {
          "internalType": "string",
          "name": "name",
          "type": "string"
        },
        {
          "internalType": "uint256",
          "name": "hb1",
          "type": "uint256"
        },
        {
          "internalType": "uint256",
          "name": "hb2",
          "type": "uint256"
        },
        {
          "internalType": "uint256",
          "name": "hb3",
          "type": "uint256"
        },
        {
          "components": [
            {
              "internalType": "uint256",
              "name": "dna",
              "type": "uint256"
            },
            {
              "internalType": "uint256",
              "name": "dad",
              "type": "uint256"
            },
            {
              "internalType": "uint256",
              "name": "mom",
              "type": "uint256"
            },
            {
              "internalType": "uint256",
              "name": "birthdate",
              "type": "uint256"
            },
            {
              "internalType": "uint256",
              "name": "generation",
              "type": "uint256"
            }
          ],
          "internalType": "struct Horses.StatsGen",
          "name": "statsGen",
          "type": "tuple"
        },
        {
          "components": [
            {
              "internalType": "uint256",
              "name": "_hb1",
              "type": "uint256"
            },
            {
              "internalType": "uint256",
              "name": "_hb2",
              "type": "uint256"
            },
            {
              "internalType": "uint256",
              "name": "_hb3",
              "type": "uint256"
            },
            {
              "internalType": "uint256",
              "name": "lastfed",
              "type": "uint256"
            },
            {
              "internalType": "uint256",
              "name": "health",
              "type": "uint256"
            },
            {
              "internalType": "uint256",
              "name": "racelimit",
              "type": "uint256"
            },
            {
              "internalType": "uint256",
              "name": "monta",
              "type": "uint256"
            }
          ],
          "internalType": "struct Horses.Stats",
          "name": "stats",
          "type": "tuple"
        },
        {
          "components": [
            {
              "internalType": "uint256",
              "name": "winners",
              "type": "uint256"
            },
            {
              "internalType": "uint256",
              "name": "continues",
              "type": "uint256"
            },
            {
              "internalType": "uint256",
              "name": "skill",
              "type": "uint256"
            },
            {
              "internalType": "uint256",
              "name": "lastrace",
              "type": "uint256"
            },
            {
              "internalType": "bool",
              "name": "claim",
              "type": "bool"
            },
            {
              "internalType": "uint256[]",
              "name": "raced",
              "type": "uint256[]"
            }
          ],
          "internalType": "struct Horses.Races",
          "name": "races",
          "type": "tuple"
        }
      ],
      "stateMutability": "view",
      "type": "function"
    },
    {
      "inputs": [
        {
          "internalType": "address",
          "name": "owner",
          "type": "address"
        },
        {
          "internalType": "address",
          "name": "operator",
          "type": "address"
        }
      ],
      "name": "isApprovedForAll",
      "outputs": [
        {
          "internalType": "bool",
          "name": "",
          "type": "bool"
        }
      ],
      "stateMutability": "view",
      "type": "function"
    },
    {
      "inputs": [],
      "name": "maxSupplyLv1",
      "outputs": [
        {
          "internalType": "uint256",
          "name": "",
          "type": "uint256"
        }
      ],
      "stateMutability": "view",
      "type": "function"
    },
    {
      "inputs": [],
      "name": "maxSupplyLv2",
      "outputs": [
        {
          "internalType": "uint256",
          "name": "",
          "type": "uint256"
        }
      ],
      "stateMutability": "view",
      "type": "function"
    },
    {
      "inputs": [],
      "name": "maxSupplyLv3",
      "outputs": [
        {
          "internalType": "uint256",
          "name": "",
          "type": "uint256"
        }
      ],
      "stateMutability": "view",
      "type": "function"
    },
    {
      "inputs": [],
      "name": "maxSupplyLv4",
      "outputs": [
        {
          "internalType": "uint256",
          "name": "",
          "type": "uint256"
        }
      ],
      "stateMutability": "view",
      "type": "function"
    },
    {
      "inputs": [],
      "name": "maxSupplyLv5",
      "outputs": [
        {
          "internalType": "uint256",
          "name": "",
          "type": "uint256"
        }
      ],
      "stateMutability": "view",
      "type": "function"
    },
    {
      "inputs": [],
      "name": "maxSupplyLv6",
      "outputs": [
        {
          "internalType": "uint256",
          "name": "",
          "type": "uint256"
        }
      ],
      "stateMutability": "view",
      "type": "function"
    },
    {
      "inputs": [],
      "name": "name",
      "outputs": [
        {
          "internalType": "string",
          "name": "",
          "type": "string"
        }
      ],
      "stateMutability": "view",
      "type": "function"
    },
    {
      "inputs": [],
      "name": "owner",
      "outputs": [
        {
          "internalType": "address",
          "name": "",
          "type": "address"
        }
      ],
      "stateMutability": "view",
      "type": "function"
    },
    {
      "inputs": [
        {
          "internalType": "uint256",
          "name": "tokenId",
          "type": "uint256"
        }
      ],
      "name": "ownerOf",
      "outputs": [
        {
          "internalType": "address",
          "name": "",
          "type": "address"
        }
      ],
      "stateMutability": "view",
      "type": "function"
    },
    {
      "inputs": [],
      "name": "paused",
      "outputs": [
        {
          "internalType": "bool",
          "name": "",
          "type": "bool"
        }
      ],
      "stateMutability": "view",
      "type": "function"
    },
    {
      "inputs": [],
      "name": "renounceOwnership",
      "outputs": [],
      "stateMutability": "nonpayable",
      "type": "function"
    },
    {
      "inputs": [
        {
          "internalType": "address",
          "name": "from",
          "type": "address"
        },
        {
          "internalType": "address",
          "name": "to",
          "type": "address"
        },
        {
          "internalType": "uint256",
          "name": "tokenId",
          "type": "uint256"
        }
      ],
      "name": "safeTransferFrom",
      "outputs": [],
      "stateMutability": "nonpayable",
      "type": "function"
    },
    {
      "inputs": [
        {
          "internalType": "address",
          "name": "from",
          "type": "address"
        },
        {
          "internalType": "address",
          "name": "to",
          "type": "address"
        },
        {
          "internalType": "uint256",
          "name": "tokenId",
          "type": "uint256"
        },
        {
          "internalType": "bytes",
          "name": "_data",
          "type": "bytes"
        }
      ],
      "name": "safeTransferFrom",
      "outputs": [],
      "stateMutability": "nonpayable",
      "type": "function"
    },
    {
      "inputs": [
        {
          "internalType": "address",
          "name": "operator",
          "type": "address"
        },
        {
          "internalType": "bool",
          "name": "approved",
          "type": "bool"
        }
      ],
      "name": "setApprovalForAll",
      "outputs": [],
      "stateMutability": "nonpayable",
      "type": "function"
    },
    {
      "inputs": [],
      "name": "suplylvl1",
      "outputs": [
        {
          "internalType": "uint256",
          "name": "",
          "type": "uint256"
        }
      ],
      "stateMutability": "view",
      "type": "function"
    },
    {
      "inputs": [],
      "name": "suplylvl2",
      "outputs": [
        {
          "internalType": "uint256",
          "name": "",
          "type": "uint256"
        }
      ],
      "stateMutability": "view",
      "type": "function"
    },
    {
      "inputs": [],
      "name": "suplylvl3",
      "outputs": [
        {
          "internalType": "uint256",
          "name": "",
          "type": "uint256"
        }
      ],
      "stateMutability": "view",
      "type": "function"
    },
    {
      "inputs": [],
      "name": "suplylvl4",
      "outputs": [
        {
          "internalType": "uint256",
          "name": "",
          "type": "uint256"
        }
      ],
      "stateMutability": "view",
      "type": "function"
    },
    {
      "inputs": [],
      "name": "suplylvl5",
      "outputs": [
        {
          "internalType": "uint256",
          "name": "",
          "type": "uint256"
        }
      ],
      "stateMutability": "view",
      "type": "function"
    },
    {
      "inputs": [],
      "name": "symbol",
      "outputs": [
        {
          "internalType": "string",
          "name": "",
          "type": "string"
        }
      ],
      "stateMutability": "view",
      "type": "function"
    },
    {
      "inputs": [
        {
          "internalType": "uint256",
          "name": "index",
          "type": "uint256"
        }
      ],
      "name": "tokenByIndex",
      "outputs": [
        {
          "internalType": "uint256",
          "name": "",
          "type": "uint256"
        }
      ],
      "stateMutability": "view",
      "type": "function"
    },
    {
      "inputs": [
        {
          "internalType": "address",
          "name": "owner",
          "type": "address"
        },
        {
          "internalType": "uint256",
          "name": "index",
          "type": "uint256"
        }
      ],
      "name": "tokenOfOwnerByIndex",
      "outputs": [
        {
          "internalType": "uint256",
          "name": "",
          "type": "uint256"
        }
      ],
      "stateMutability": "view",
      "type": "function"
    },
    {
      "inputs": [],
      "name": "totalSupply",
      "outputs": [
        {
          "internalType": "uint256",
          "name": "",
          "type": "uint256"
        }
      ],
      "stateMutability": "view",
      "type": "function"
    },
    {
      "inputs": [
        {
          "internalType": "address",
          "name": "from",
          "type": "address"
        },
        {
          "internalType": "address",
          "name": "to",
          "type": "address"
        },
        {
          "internalType": "uint256",
          "name": "tokenId",
          "type": "uint256"
        }
      ],
      "name": "transferFrom",
      "outputs": [],
      "stateMutability": "nonpayable",
      "type": "function"
    },
    {
      "inputs": [
        {
          "internalType": "address",
          "name": "newOwner",
          "type": "address"
        }
      ],
      "name": "transferOwnership",
      "outputs": [],
      "stateMutability": "nonpayable",
      "type": "function"
    },
    {
      "inputs": [],
      "name": "pause",
      "outputs": [],
      "stateMutability": "nonpayable",
      "type": "function"
    },
    {
      "inputs": [],
      "name": "unpause",
      "outputs": [],
      "stateMutability": "nonpayable",
      "type": "function"
    },
    {
      "inputs": [
        {
          "internalType": "string",
          "name": "_name",
          "type": "string"
        }
      ],
      "name": "safeMint",
      "outputs": [],
      "stateMutability": "payable",
      "type": "function"
    },
    {
      "inputs": [
        {
          "internalType": "uint256",
          "name": "tokenId",
          "type": "uint256"
        }
      ],
      "name": "tokenURI",
      "outputs": [
        {
          "internalType": "string",
          "name": "",
          "type": "string"
        }
      ],
      "stateMutability": "view",
      "type": "function"
    },
    {
      "inputs": [
        {
          "internalType": "bytes4",
          "name": "interfaceId",
          "type": "bytes4"
        }
      ],
      "name": "supportsInterface",
      "outputs": [
        {
          "internalType": "bool",
          "name": "",
          "type": "bool"
        }
      ],
      "stateMutability": "view",
      "type": "function"
    },
    {
      "inputs": [
        {
          "internalType": "uint256",
          "name": "_tokenId",
          "type": "uint256"
        }
      ],
      "name": "_getStructRace",
      "outputs": [
        {
          "internalType": "uint256",
          "name": "winners",
          "type": "uint256"
        },
        {
          "internalType": "uint256",
          "name": "continues",
          "type": "uint256"
        },
        {
          "internalType": "uint256",
          "name": "skill",
          "type": "uint256"
        }
      ],
      "stateMutability": "view",
      "type": "function"
    },
    {
      "inputs": [
        {
          "internalType": "uint256",
          "name": "_tokenId",
          "type": "uint256"
        }
      ],
      "name": "_GetStructStastGen",
      "outputs": [
        {
          "internalType": "uint256",
          "name": "dna",
          "type": "uint256"
        },
        {
          "internalType": "uint256",
          "name": "dad",
          "type": "uint256"
        },
        {
          "internalType": "uint256",
          "name": "mom",
          "type": "uint256"
        },
        {
          "internalType": "uint256",
          "name": "birthdate",
          "type": "uint256"
        },
        {
          "internalType": "uint256",
          "name": "generation",
          "type": "uint256"
        }
      ],
      "stateMutability": "view",
      "type": "function"
    },
    {
      "inputs": [
        {
          "internalType": "uint256",
          "name": "_tokenId",
          "type": "uint256"
        }
      ],
      "name": "_GetStructStast",
      "outputs": [
        {
          "internalType": "uint256",
          "name": "_hb1",
          "type": "uint256"
        },
        {
          "internalType": "uint256",
          "name": "_hb2",
          "type": "uint256"
        },
        {
          "internalType": "uint256",
          "name": "_hb3",
          "type": "uint256"
        },
        {
          "internalType": "uint256",
          "name": "lastfed",
          "type": "uint256"
        },
        {
          "internalType": "uint256",
          "name": "health",
          "type": "uint256"
        },
        {
          "internalType": "uint256",
          "name": "racelimit",
          "type": "uint256"
        },
        {
          "internalType": "uint256",
          "name": "monta",
          "type": "uint256"
        }
      ],
      "stateMutability": "view",
      "type": "function"
    },
    {
      "inputs": [
        {
          "internalType": "uint256",
          "name": "_tokenId",
          "type": "uint256"
        }
      ],
      "name": "_feedHorse",
      "outputs": [],
      "stateMutability": "nonpayable",
      "type": "function"
    },
    {
      "inputs": [
        {
          "internalType": "uint256",
          "name": "_tokenId",
          "type": "uint256"
        }
      ],
      "name": "_trainHorse",
      "outputs": [],
      "stateMutability": "nonpayable",
      "type": "function"
    },
    {
      "inputs": [
        {
          "internalType": "uint256",
          "name": "_tokenId",
          "type": "uint256"
        },
        {
          "internalType": "uint256",
          "name": "",
          "type": "uint256"
        }
      ],
      "name": "_getRacesHorse",
      "outputs": [
        {
          "internalType": "uint256[]",
          "name": "races",
          "type": "uint256[]"
        }
      ],
      "stateMutability": "view",
      "type": "function"
    }
  ],
  "bytecode": "0x6080604052600e600c55600c54600a6200001a9190620003e9565b600d556002600e556004600f556004600e54600a6200003a9190620003e9565b62000046919062000356565b601055600e54600a6200005a9190620003e9565b601155600f54600a6200006e9190620003e9565b6012556000601355674563918244f400006014556729a2241af62c0000601555671bc16d674ec80000601655670de0b6b3a76400006017556706f05b59d3b2000060185560026019556003601a556005601b556005601c556005601d556005601e556000601f556000602055600060215560006022556000602355348015620000f657600080fd5b506040518060400160405280600781526020017f4d79546f6b656e000000000000000000000000000000000000000000000000008152506040518060400160405280600381526020017f4d544b000000000000000000000000000000000000000000000000000000000081525081600090805190602001906200017b929190620002a6565b50806001908051906020019062000194929190620002a6565b5050506000600b60006101000a81548160ff021916908315150217905550620001d2620001c6620001d860201b60201c565b620001e060201b60201c565b62000600565b600033905090565b6000600b60019054906101000a900473ffffffffffffffffffffffffffffffffffffffff16905081600b60016101000a81548173ffffffffffffffffffffffffffffffffffffffff021916908373ffffffffffffffffffffffffffffffffffffffff1602179055508173ffffffffffffffffffffffffffffffffffffffff168173ffffffffffffffffffffffffffffffffffffffff167f8be0079c531659141344cd1fd0a4f28419497f9722a3daafe3b4186f6b6457e060405160405180910390a35050565b828054620002b49062000530565b90600052602060002090601f016020900481019282620002d8576000855562000324565b82601f10620002f357805160ff191683800117855562000324565b8280016001018555821562000324579182015b828111156200032357825182559160200191906001019062000306565b5b50905062000333919062000337565b5090565b5b808211156200035257600081600090555060010162000338565b5090565b6000620003638262000526565b9150620003708362000526565b92508262000383576200038262000595565b5b828204905092915050565b6000808291508390505b6001851115620003e057808604811115620003b857620003b762000566565b5b6001851615620003c85780820291505b8081029050620003d885620005f3565b945062000398565b94509492505050565b6000620003f68262000526565b9150620004038362000526565b9250620004327fffffffffffffffffffffffffffffffffffffffffffffffffffffffffffffffff84846200043a565b905092915050565b6000826200044c57600190506200051f565b816200045c57600090506200051f565b81600181146200047557600281146200048057620004b6565b60019150506200051f565b60ff84111562000495576200049462000566565b5b8360020a915084821115620004af57620004ae62000566565b5b506200051f565b5060208310610133831016604e8410600b8410161715620004f05782820a905083811115620004ea57620004e962000566565b5b6200051f565b620004ff84848460016200038e565b9250905081840481111562000519576200051862000566565b5b81810290505b9392505050565b6000819050919050565b600060028204905060018216806200054957607f821691505b6020821081141562000560576200055f620005c4565b5b50919050565b7f4e487b7100000000000000000000000000000000000000000000000000000000600052601160045260246000fd5b7f4e487b7100000000000000000000000000000000000000000000000000000000600052601260045260246000fd5b7f4e487b7100000000000000000000000000000000000000000000000000000000600052602260045260246000fd5b60008160011c9050919050565b61572980620006106000396000f3fe6080604052600436106102515760003560e01c806370a0823111610139578063ab80048e116100b6578063ca65cc531161007a578063ca65cc53146108d9578063d570bb691461091c578063dacbbb5e14610947578063e985e9c514610972578063ecb9bce6146109af578063f2fde38b146109da57610251565b8063ab80048e146107de578063b88d4fde1461081d578063b95b097514610846578063c25b05b414610871578063c87b56dd1461089c57610251565b806395d89b41116100fd57806395d89b41146106f35780639b1a65c11461071e578063a0c4cd0e14610749578063a22cb46514610774578063aaa6dabb1461079d57610251565b806370a082311461061a578063715018a6146106575780638456cb591461066e5780638da5cb5b146106855780638f8b5cde146106b057610251565b80633a34822e116101d25780634d1d8612116101965780634d1d8612146105055780634f63c0a1146105305780634f6ccce7146105595780635c975abb146105965780636352211e146105c1578063695850fb146105fe57610251565b80633a34822e146104345780633f4ba83a1461045f57806342842e0e1461047657806342966c681461049f5780634b2fbf52146104c857610251565b806318160ddd1161021957806318160ddd1461034d57806323b872dd1461037857806323e7d3ce146103a15780632f745c59146103cc5780633902fc7c1461040957610251565b806301ffc9a71461025657806306fdde0314610293578063081812fc146102be578063095ea7b3146102fb5780631315904a14610324575b600080fd5b34801561026257600080fd5b5061027d60048036038101906102789190613dd9565b610a03565b60405161028a919061465e565b60405180910390f35b34801561029f57600080fd5b506102a8610a15565b6040516102b59190614679565b60405180910390f35b3480156102ca57600080fd5b506102e560048036038101906102e09190613e7c565b610aa7565b6040516102f291906145d5565b60405180910390f35b34801561030757600080fd5b50610322600480360381019061031d9190613d99565b610b2c565b005b34801561033057600080fd5b5061034b60048036038101906103469190613e7c565b610c44565b005b34801561035957600080fd5b50610362610d57565b60405161036f9190614aa0565b60405180910390f35b34801561038457600080fd5b5061039f600480360381019061039a9190613c83565b610d64565b005b3480156103ad57600080fd5b506103b6610dc4565b6040516103c39190614aa0565b60405180910390f35b3480156103d857600080fd5b506103f360048036038101906103ee9190613d99565b610dca565b6040516104009190614aa0565b60405180910390f35b34801561041557600080fd5b5061041e610e6f565b60405161042b9190614aa0565b60405180910390f35b34801561044057600080fd5b50610449610e75565b6040516104569190614aa0565b60405180910390f35b34801561046b57600080fd5b50610474610e7b565b005b34801561048257600080fd5b5061049d60048036038101906104989190613c83565b610f01565b005b3480156104ab57600080fd5b506104c660048036038101906104c19190613e7c565b610f21565b005b3480156104d457600080fd5b506104ef60048036038101906104ea9190613ea9565b610f7d565b6040516104fc919061463c565b60405180910390f35b34801561051157600080fd5b5061051a611004565b6040516105279190614aa0565b60405180910390f35b34801561053c57600080fd5b5061055760048036038101906105529190613e7c565b61100a565b005b34801561056557600080fd5b50610580600480360381019061057b9190613e7c565b6110be565b60405161058d9190614aa0565b60405180910390f35b3480156105a257600080fd5b506105ab61112f565b6040516105b8919061465e565b60405180910390f35b3480156105cd57600080fd5b506105e860048036038101906105e39190613e7c565b611146565b6040516105f591906145d5565b60405180910390f35b61061860048036038101906106139190613e33565b6111f8565b005b34801561062657600080fd5b50610641600480360381019061063c9190613c16565b61123c565b60405161064e9190614aa0565b60405180910390f35b34801561066357600080fd5b5061066c6112f4565b005b34801561067a57600080fd5b5061068361137c565b005b34801561069157600080fd5b5061069a611402565b6040516106a791906145d5565b60405180910390f35b3480156106bc57600080fd5b506106d760048036038101906106d29190613e7c565b61142c565b6040516106ea979695949392919061469b565b60405180910390f35b3480156106ff57600080fd5b50610708611637565b6040516107159190614679565b60405180910390f35b34801561072a57600080fd5b506107336116c9565b6040516107409190614aa0565b60405180910390f35b34801561075557600080fd5b5061075e6116cf565b60405161076b9190614aa0565b60405180910390f35b34801561078057600080fd5b5061079b60048036038101906107969190613d59565b6116d5565b005b3480156107a957600080fd5b506107c460048036038101906107bf9190613e7c565b6116eb565b6040516107d5959493929190614af2565b60405180910390f35b3480156107ea57600080fd5b5061080560048036038101906108009190613e7c565b6117d3565b60405161081493929190614abb565b60405180910390f35b34801561082957600080fd5b50610844600480360381019061083f9190613cd6565b611860565b005b34801561085257600080fd5b5061085b6118c2565b6040516108689190614aa0565b60405180910390f35b34801561087d57600080fd5b506108866118c8565b6040516108939190614aa0565b60405180910390f35b3480156108a857600080fd5b506108c360048036038101906108be9190613e7c565b6118ce565b6040516108d09190614679565b60405180910390f35b3480156108e557600080fd5b5061090060048036038101906108fb9190613e7c565b6118e0565b6040516109139796959493929190614b45565b60405180910390f35b34801561092857600080fd5b50610931611962565b60405161093e9190614aa0565b60405180910390f35b34801561095357600080fd5b5061095c611968565b6040516109699190614aa0565b60405180910390f35b34801561097e57600080fd5b5061099960048036038101906109949190613c43565b61196e565b6040516109a6919061465e565b60405180910390f35b3480156109bb57600080fd5b506109c4611a02565b6040516109d19190614aa0565b60405180910390f35b3480156109e657600080fd5b50610a0160048036038101906109fc9190613c16565b611a08565b005b6000610a0e82611b00565b9050919050565b606060008054610a2490614e39565b80601f0160208091040260200160405190810160405280929190818152602001828054610a5090614e39565b8015610a9d5780601f10610a7257610100808354040283529160200191610a9d565b820191906000526020600020905b815481529060010190602001808311610a8057829003601f168201915b5050505050905090565b6000610ab282611b7a565b610af1576040517f08c379a0000000000000000000000000000000000000000000000000000000008152600401610ae8906149c0565b60405180910390fd5b6004600083815260200190815260200160002060009054906101000a900473ffffffffffffffffffffffffffffffffffffffff169050919050565b6000610b3782611146565b90508073ffffffffffffffffffffffffffffffffffffffff168373ffffffffffffffffffffffffffffffffffffffff161415610ba8576040517f08c379a0000000000000000000000000000000000000000000000000000000008152600401610b9f90614a20565b60405180910390fd5b8073ffffffffffffffffffffffffffffffffffffffff16610bc7611be6565b73ffffffffffffffffffffffffffffffffffffffff161480610bf65750610bf581610bf0611be6565b61196e565b5b610c35576040517f08c379a0000000000000000000000000000000000000000000000000000000008152600401610c2c90614900565b60405180910390fd5b610c3f8383611bee565b505050565b610c4c611be6565b73ffffffffffffffffffffffffffffffffffffffff16610c6a611402565b73ffffffffffffffffffffffffffffffffffffffff1614610cc0576040517f08c379a0000000000000000000000000000000000000000000000000000000008152600401610cb7906149e0565b60405180910390fd5b4260248281548110610cd557610cd4614fdc565b5b906000526020600020906016020160090160030181905550600060248281548110610d0357610d02614fdc565b5b9060005260206000209060160201600901600401549050600581610d279190614cc8565b60248381548110610d3b57610d3a614fdc565b5b9060005260206000209060160201600901600401819055505050565b6000600880549050905090565b610d75610d6f611be6565b82611ca7565b610db4576040517f08c379a0000000000000000000000000000000000000000000000000000000008152600401610dab90614a40565b60405180910390fd5b610dbf838383611d85565b505050565b601e5481565b6000610dd58361123c565b8210610e16576040517f08c379a0000000000000000000000000000000000000000000000000000000008152600401610e0d906147c0565b60405180910390fd5b600660008473ffffffffffffffffffffffffffffffffffffffff1673ffffffffffffffffffffffffffffffffffffffff168152602001908152602001600020600083815260200190815260200160002054905092915050565b601b5481565b60195481565b610e83611be6565b73ffffffffffffffffffffffffffffffffffffffff16610ea1611402565b73ffffffffffffffffffffffffffffffffffffffff1614610ef7576040517f08c379a0000000000000000000000000000000000000000000000000000000008152600401610eee906149e0565b60405180910390fd5b610eff611fec565b565b610f1c83838360405180602001604052806000815250611860565b505050565b610f32610f2c611be6565b82611ca7565b610f71576040517f08c379a0000000000000000000000000000000000000000000000000000000008152600401610f6890614a80565b60405180910390fd5b610f7a8161208e565b50565b6060600060248481548110610f9557610f94614fdc565b5b9060005260206000209060160201905080601001600501805480602002602001604051908101604052809291908181526020018280548015610ff657602002820191906000526020600020905b815481526020019060010190808311610fe2575b505050505091505092915050565b60225481565b600061101582611146565b90508073ffffffffffffffffffffffffffffffffffffffff16611036611be6565b73ffffffffffffffffffffffffffffffffffffffff161461108c576040517f08c379a000000000000000000000000000000000000000000000000000000000815260040161108390614920565b60405180910390fd5b6005602483815481106110a2576110a1614fdc565b5b9060005260206000209060160201600901600001819055505050565b60006110c8610d57565b8210611109576040517f08c379a000000000000000000000000000000000000000000000000000000000815260040161110090614a60565b60405180910390fd5b6008828154811061111d5761111c614fdc565b5b90600052602060002001549050919050565b6000600b60009054906101000a900460ff16905090565b6000806002600084815260200190815260200160002060009054906101000a900473ffffffffffffffffffffffffffffffffffffffff169050600073ffffffffffffffffffffffffffffffffffffffff168173ffffffffffffffffffffffffffffffffffffffff1614156111ef576040517f08c379a00000000000000000000000000000000000000000000000000000000081526004016111e690614960565b60405180910390fd5b80915050919050565b600034905060006112088261209a565b9050600061121660256122f9565b90506112226025612307565b61122c338261231d565b611236848361233b565b50505050565b60008073ffffffffffffffffffffffffffffffffffffffff168273ffffffffffffffffffffffffffffffffffffffff1614156112ad576040517f08c379a00000000000000000000000000000000000000000000000000000000081526004016112a490614940565b60405180910390fd5b600360008373ffffffffffffffffffffffffffffffffffffffff1673ffffffffffffffffffffffffffffffffffffffff168152602001908152602001600020549050919050565b6112fc611be6565b73ffffffffffffffffffffffffffffffffffffffff1661131a611402565b73ffffffffffffffffffffffffffffffffffffffff1614611370576040517f08c379a0000000000000000000000000000000000000000000000000000000008152600401611367906149e0565b60405180910390fd5b61137a600061271f565b565b611384611be6565b73ffffffffffffffffffffffffffffffffffffffff166113a2611402565b73ffffffffffffffffffffffffffffffffffffffff16146113f8576040517f08c379a00000000000000000000000000000000000000000000000000000000081526004016113ef906149e0565b60405180910390fd5b6114006127e5565b565b6000600b60019054906101000a900473ffffffffffffffffffffffffffffffffffffffff16905090565b6024818154811061143c57600080fd5b906000526020600020906016020160009150905080600001805461145f90614e39565b80601f016020809104026020016040519081016040528092919081815260200182805461148b90614e39565b80156114d85780601f106114ad576101008083540402835291602001916114d8565b820191906000526020600020905b8154815290600101906020018083116114bb57829003601f168201915b505050505090806001015490806002015490806003015490806004016040518060a00160405290816000820154815260200160018201548152602001600282015481526020016003820154815260200160048201548152505090806009016040518060e001604052908160008201548152602001600182015481526020016002820154815260200160038201548152602001600482015481526020016005820154815260200160068201548152505090806010016040518060c0016040529081600082015481526020016001820154815260200160028201548152602001600382015481526020016004820160009054906101000a900460ff161515151581526020016005820180548060200260200160405190810160405280929190818152602001828054801561162957602002820191906000526020600020905b815481526020019060010190808311611615575b505050505081525050905087565b60606001805461164690614e39565b80601f016020809104026020016040519081016040528092919081815260200182805461167290614e39565b80156116bf5780601f10611694576101008083540402835291602001916116bf565b820191906000526020600020905b8154815290600101906020018083116116a257829003601f168201915b5050505050905090565b601c5481565b60235481565b6116e76116e0611be6565b8383612888565b5050565b60008060008060006024868154811061170757611706614fdc565b5b90600052602060002090601602016004016000015494506024868154811061173257611731614fdc565b5b90600052602060002090601602016004016001015493506024868154811061175d5761175c614fdc565b5b90600052602060002090601602016004016002015492506024868154811061178857611787614fdc565b5b9060005260206000209060160201600401600301549150602486815481106117b3576117b2614fdc565b5b906000526020600020906016020160040160040154905091939590929450565b6000806000602484815481106117ec576117eb614fdc565b5b90600052602060002090601602016010016000015492506024848154811061181757611816614fdc565b5b90600052602060002090601602016010016001015491506024848154811061184257611841614fdc565b5b90600052602060002090601602016010016002015490509193909250565b61187161186b611be6565b83611ca7565b6118b0576040517f08c379a00000000000000000000000000000000000000000000000000000000081526004016118a790614a40565b60405180910390fd5b6118bc848484846129f5565b50505050565b60215481565b60205481565b60606118d982612a51565b9050919050565b60008060008060008060008060248981548110611900576118ff614fdc565b5b906000526020600020906016020190508060090160000154816009016001015482600901600201548360090160030154846009016004015485600901600501548660090160060154975097509750975097509750975050919395979092949650565b601f5481565b601d5481565b6000600560008473ffffffffffffffffffffffffffffffffffffffff1673ffffffffffffffffffffffffffffffffffffffff16815260200190815260200160002060008373ffffffffffffffffffffffffffffffffffffffff1673ffffffffffffffffffffffffffffffffffffffff16815260200190815260200160002060009054906101000a900460ff16905092915050565b601a5481565b611a10611be6565b73ffffffffffffffffffffffffffffffffffffffff16611a2e611402565b73ffffffffffffffffffffffffffffffffffffffff1614611a84576040517f08c379a0000000000000000000000000000000000000000000000000000000008152600401611a7b906149e0565b60405180910390fd5b600073ffffffffffffffffffffffffffffffffffffffff168173ffffffffffffffffffffffffffffffffffffffff161415611af4576040517f08c379a0000000000000000000000000000000000000000000000000000000008152600401611aeb90614820565b60405180910390fd5b611afd8161271f565b50565b60007f780e9d63000000000000000000000000000000000000000000000000000000007bffffffffffffffffffffffffffffffffffffffffffffffffffffffff1916827bffffffffffffffffffffffffffffffffffffffffffffffffffffffff19161480611b735750611b7282612ba3565b5b9050919050565b60008073ffffffffffffffffffffffffffffffffffffffff166002600084815260200190815260200160002060009054906101000a900473ffffffffffffffffffffffffffffffffffffffff1673ffffffffffffffffffffffffffffffffffffffff1614159050919050565b600033905090565b816004600083815260200190815260200160002060006101000a81548173ffffffffffffffffffffffffffffffffffffffff021916908373ffffffffffffffffffffffffffffffffffffffff160217905550808273ffffffffffffffffffffffffffffffffffffffff16611c6183611146565b73ffffffffffffffffffffffffffffffffffffffff167f8c5be1e5ebec7d5bd14f71427d1e84f3dd0314c0f7b2291e5b200ac8c7c3b92560405160405180910390a45050565b6000611cb282611b7a565b611cf1576040517f08c379a0000000000000000000000000000000000000000000000000000000008152600401611ce8906148c0565b60405180910390fd5b6000611cfc83611146565b90508073ffffffffffffffffffffffffffffffffffffffff168473ffffffffffffffffffffffffffffffffffffffff161480611d6b57508373ffffffffffffffffffffffffffffffffffffffff16611d5384610aa7565b73ffffffffffffffffffffffffffffffffffffffff16145b80611d7c5750611d7b818561196e565b5b91505092915050565b8273ffffffffffffffffffffffffffffffffffffffff16611da582611146565b73ffffffffffffffffffffffffffffffffffffffff1614611dfb576040517f08c379a0000000000000000000000000000000000000000000000000000000008152600401611df290614840565b60405180910390fd5b600073ffffffffffffffffffffffffffffffffffffffff168273ffffffffffffffffffffffffffffffffffffffff161415611e6b576040517f08c379a0000000000000000000000000000000000000000000000000000000008152600401611e6290614880565b60405180910390fd5b611e76838383612c85565b611e81600082611bee565b6001600360008573ffffffffffffffffffffffffffffffffffffffff1673ffffffffffffffffffffffffffffffffffffffff1681526020019081526020016000206000828254611ed19190614d4f565b925050819055506001600360008473ffffffffffffffffffffffffffffffffffffffff1673ffffffffffffffffffffffffffffffffffffffff1681526020019081526020016000206000828254611f289190614cc8565b92505081905550816002600083815260200190815260200160002060006101000a81548173ffffffffffffffffffffffffffffffffffffffff021916908373ffffffffffffffffffffffffffffffffffffffff160217905550808273ffffffffffffffffffffffffffffffffffffffff168473ffffffffffffffffffffffffffffffffffffffff167fddf252ad1be2c89b69c2b068fc378daa952ba7f163c4a11628f55a4df523b3ef60405160405180910390a4611fe7838383612cdd565b505050565b611ff461112f565b612033576040517f08c379a000000000000000000000000000000000000000000000000000000000815260040161202a906147a0565b60405180910390fd5b6000600b60006101000a81548160ff0219169083151502179055507f5db9ee0a495bf2e6ff9c91a7834c1ba4fdd244a5e8aa4e537bd38aeae4b073aa612077611be6565b60405161208491906145d5565b60405180910390a1565b61209781612ce2565b50565b600060145482141561210a57601f54601954116120ec576040517f08c379a00000000000000000000000000000000000000000000000000000000081526004016120e390614800565b60405180910390fd5b6001601f546120fb9190614cc8565b601f8190555060af90506122f4565b60155482141561217857602054601a541161215a576040517f08c379a000000000000000000000000000000000000000000000000000000000815260040161215190614800565b60405180910390fd5b60016020546121699190614cc8565b602081905550609690506122f4565b6016548214156121e657602154601b54116121c8576040517f08c379a00000000000000000000000000000000000000000000000000000000081526004016121bf90614800565b60405180910390fd5b60016021546121d79190614cc8565b602181905550607d90506122f4565b60175482141561225457602254601c5411612236576040517f08c379a000000000000000000000000000000000000000000000000000000000815260040161222d90614800565b60405180910390fd5b60016022546122459190614cc8565b602281905550606490506122f4565b6018548214156122c257602354601d54116122a4576040517f08c379a000000000000000000000000000000000000000000000000000000000815260040161229b90614800565b60405180910390fd5b60016023546122b39190614cc8565b602381905550604b90506122f4565b6040517f2c5211c600000000000000000000000000000000000000000000000000000000815260040160405180910390fd5b919050565b600081600001549050919050565b6001816000016000828254019250508190555050565b612337828260405180602001604052806000815250612d35565b5050565b600061234683612d90565b905060006064905060006019601154846123609190614eef565b61236a9190614cc8565b9050600061237786612dd7565b856123829190614cc8565b905060006123c46040518060400160405280600581526020017f706f6c6b61000000000000000000000000000000000000000000000000000000815250612dd7565b866123cf9190614cc8565b905060006124116040518060400160405280600581526020017f686f727365000000000000000000000000000000000000000000000000000000815250612dd7565b8761241c9190614cc8565b905060006103e86002601254896124339190614eef565b61243d9190614d1e565b6124479190614cc8565b905060006040518060e001604052806000815260200160008152602001600081526020014281526020016064815260200183815260200187815250905060006040518060a001604052806000815260200160008152602001600081526020014281526020016000815250905060006040518060c00160405280600081526020016000815260200160008152602001428152602001600015158152602001600067ffffffffffffffff8111156124ff576124fe61500b565b5b60405190808252806020026020018201604052801561252d5781602001602082028036833780820191505090505b50815250905060246040518060e001604052808e815260200189815260200188815260200187815260200184815260200185815260200183815250908060018154018082558091505060019003906000526020600020906016020160009091909190915060008201518160000190805190602001906125ad92919061399d565b506020820151816001015560408201518160020155606082015181600301556080820151816004016000820151816000015560208201518160010155604082015181600201556060820151816003015560808201518160040155505060a082015181600901600082015181600001556020820151816001015560408201518160020155606082015181600301556080820151816004015560a0820151816005015560c08201518160060155505060c0820151816010016000820151816000015560208201518160010155604082015181600201556060820151816003015560808201518160040160006101000a81548160ff02191690831515021790555060a08201518160050190805190602001906126c7929190613a23565b50505050507fa1515860511710b224709a9232efcae4b1380eefe7402417c5dc9d4681cf19188c8b8989898e8a8f60405161270998979695949392919061471b565b60405180910390a1505050505050505050505050565b6000600b60019054906101000a900473ffffffffffffffffffffffffffffffffffffffff16905081600b60016101000a81548173ffffffffffffffffffffffffffffffffffffffff021916908373ffffffffffffffffffffffffffffffffffffffff1602179055508173ffffffffffffffffffffffffffffffffffffffff168173ffffffffffffffffffffffffffffffffffffffff167f8be0079c531659141344cd1fd0a4f28419497f9722a3daafe3b4186f6b6457e060405160405180910390a35050565b6127ed61112f565b1561282d576040517f08c379a0000000000000000000000000000000000000000000000000000000008152600401612824906148e0565b60405180910390fd5b6001600b60006101000a81548160ff0219169083151502179055507f62e78cea01bee320cd4e420270b5ea74000d11b0c9f74754ebdbfc544b05a258612871611be6565b60405161287e91906145d5565b60405180910390a1565b8173ffffffffffffffffffffffffffffffffffffffff168373ffffffffffffffffffffffffffffffffffffffff1614156128f7576040517f08c379a00000000000000000000000000000000000000000000000000000000081526004016128ee906148a0565b60405180910390fd5b80600560008573ffffffffffffffffffffffffffffffffffffffff1673ffffffffffffffffffffffffffffffffffffffff16815260200190815260200160002060008473ffffffffffffffffffffffffffffffffffffffff1673ffffffffffffffffffffffffffffffffffffffff16815260200190815260200160002060006101000a81548160ff0219169083151502179055508173ffffffffffffffffffffffffffffffffffffffff168373ffffffffffffffffffffffffffffffffffffffff167f17307eab39ab6107e8899845ad3d59bd9653f200f220920489ca2b5937696c31836040516129e8919061465e565b60405180910390a3505050565b612a00848484611d85565b612a0c84848484612e1e565b612a4b576040517f08c379a0000000000000000000000000000000000000000000000000000000008152600401612a42906147e0565b60405180910390fd5b50505050565b6060612a5c82611b7a565b612a9b576040517f08c379a0000000000000000000000000000000000000000000000000000000008152600401612a92906149a0565b60405180910390fd5b6000600a60008481526020019081526020016000208054612abb90614e39565b80601f0160208091040260200160405190810160405280929190818152602001828054612ae790614e39565b8015612b345780601f10612b0957610100808354040283529160200191612b34565b820191906000526020600020905b815481529060010190602001808311612b1757829003601f168201915b505050505090506000612b45612fb5565b9050600081511415612b5b578192505050612b9e565b600082511115612b90578082604051602001612b78929190614589565b60405160208183030381529060405292505050612b9e565b612b9984612ff2565b925050505b919050565b60007f80ac58cd000000000000000000000000000000000000000000000000000000007bffffffffffffffffffffffffffffffffffffffffffffffffffffffff1916827bffffffffffffffffffffffffffffffffffffffffffffffffffffffff19161480612c6e57507f5b5e139f000000000000000000000000000000000000000000000000000000007bffffffffffffffffffffffffffffffffffffffffffffffffffffffff1916827bffffffffffffffffffffffffffffffffffffffffffffffffffffffff1916145b80612c7e5750612c7d82613099565b5b9050919050565b612c8d61112f565b15612ccd576040517f08c379a0000000000000000000000000000000000000000000000000000000008152600401612cc4906148e0565b60405180910390fd5b612cd8838383613103565b505050565b505050565b612ceb81613217565b6000600a60008381526020019081526020016000208054612d0b90614e39565b905014612d3257600a60008281526020019081526020016000206000612d319190613a70565b5b50565b612d3f8383613334565b612d4c6000848484612e1e565b612d8b576040517f08c379a0000000000000000000000000000000000000000000000000000000008152600401612d82906147e0565b60405180910390fd5b505050565b6000808242604051602001612da69291906145ad565b6040516020818303038152906040528051906020012060001c9050600d5481612dcf9190614eef565b915050919050565b6000808242604051602001612ded9291906145ad565b6040516020818303038152906040528051906020012060001c905060105481612e169190614eef565b915050919050565b6000612e3f8473ffffffffffffffffffffffffffffffffffffffff1661350e565b15612fa8578373ffffffffffffffffffffffffffffffffffffffff1663150b7a02612e68611be6565b8786866040518563ffffffff1660e01b8152600401612e8a94939291906145f0565b602060405180830381600087803b158015612ea457600080fd5b505af1925050508015612ed557506040513d601f19601f82011682018060405250810190612ed29190613e06565b60015b612f58573d8060008114612f05576040519150601f19603f3d011682016040523d82523d6000602084013e612f0a565b606091505b50600081511415612f50576040517f08c379a0000000000000000000000000000000000000000000000000000000008152600401612f47906147e0565b60405180910390fd5b805181602001fd5b63150b7a0260e01b7bffffffffffffffffffffffffffffffffffffffffffffffffffffffff1916817bffffffffffffffffffffffffffffffffffffffffffffffffffffffff191614915050612fad565b600190505b949350505050565b60606040518060400160405280601481526020017f68747470732f2f7777772e706f6c682e636f6d2f000000000000000000000000815250905090565b6060612ffd82611b7a565b61303c576040517f08c379a000000000000000000000000000000000000000000000000000000000815260040161303390614a00565b60405180910390fd5b6000613046612fb5565b905060008151116130665760405180602001604052806000815250613091565b8061307084613531565b604051602001613081929190614589565b6040516020818303038152906040525b915050919050565b60007f01ffc9a7000000000000000000000000000000000000000000000000000000007bffffffffffffffffffffffffffffffffffffffffffffffffffffffff1916827bffffffffffffffffffffffffffffffffffffffffffffffffffffffff1916149050919050565b61310e838383613692565b600073ffffffffffffffffffffffffffffffffffffffff168373ffffffffffffffffffffffffffffffffffffffff1614156131515761314c81613697565b613190565b8173ffffffffffffffffffffffffffffffffffffffff168373ffffffffffffffffffffffffffffffffffffffff161461318f5761318e83826136e0565b5b5b600073ffffffffffffffffffffffffffffffffffffffff168273ffffffffffffffffffffffffffffffffffffffff1614156131d3576131ce8161384d565b613212565b8273ffffffffffffffffffffffffffffffffffffffff168273ffffffffffffffffffffffffffffffffffffffff161461321157613210828261391e565b5b5b505050565b600061322282611146565b905061323081600084612c85565b61323b600083611bee565b6001600360008373ffffffffffffffffffffffffffffffffffffffff1673ffffffffffffffffffffffffffffffffffffffff168152602001908152602001600020600082825461328b9190614d4f565b925050819055506002600083815260200190815260200160002060006101000a81549073ffffffffffffffffffffffffffffffffffffffff021916905581600073ffffffffffffffffffffffffffffffffffffffff168273ffffffffffffffffffffffffffffffffffffffff167fddf252ad1be2c89b69c2b068fc378daa952ba7f163c4a11628f55a4df523b3ef60405160405180910390a461333081600084612cdd565b5050565b600073ffffffffffffffffffffffffffffffffffffffff168273ffffffffffffffffffffffffffffffffffffffff1614156133a4576040517f08c379a000000000000000000000000000000000000000000000000000000000815260040161339b90614980565b60405180910390fd5b6133ad81611b7a565b156133ed576040517f08c379a00000000000000000000000000000000000000000000000000000000081526004016133e490614860565b60405180910390fd5b6133f960008383612c85565b6001600360008473ffffffffffffffffffffffffffffffffffffffff1673ffffffffffffffffffffffffffffffffffffffff16815260200190815260200160002060008282546134499190614cc8565b92505081905550816002600083815260200190815260200160002060006101000a81548173ffffffffffffffffffffffffffffffffffffffff021916908373ffffffffffffffffffffffffffffffffffffffff160217905550808273ffffffffffffffffffffffffffffffffffffffff16600073ffffffffffffffffffffffffffffffffffffffff167fddf252ad1be2c89b69c2b068fc378daa952ba7f163c4a11628f55a4df523b3ef60405160405180910390a461350a60008383612cdd565b5050565b6000808273ffffffffffffffffffffffffffffffffffffffff163b119050919050565b60606000821415613579576040518060400160405280600181526020017f3000000000000000000000000000000000000000000000000000000000000000815250905061368d565b600082905060005b600082146135ab57808061359490614e9c565b915050600a826135a49190614d1e565b9150613581565b60008167ffffffffffffffff8111156135c7576135c661500b565b5b6040519080825280601f01601f1916602001820160405280156135f95781602001600182028036833780820191505090505b5090505b60008514613686576001826136129190614d4f565b9150600a856136219190614eef565b603061362d9190614cc8565b60f81b81838151811061364357613642614fdc565b5b60200101907effffffffffffffffffffffffffffffffffffffffffffffffffffffffffffff1916908160001a905350600a8561367f9190614d1e565b94506135fd565b8093505050505b919050565b505050565b6008805490506009600083815260200190815260200160002081905550600881908060018154018082558091505060019003906000526020600020016000909190919091505550565b600060016136ed8461123c565b6136f79190614d4f565b90506000600760008481526020019081526020016000205490508181146137dc576000600660008673ffffffffffffffffffffffffffffffffffffffff1673ffffffffffffffffffffffffffffffffffffffff168152602001908152602001600020600084815260200190815260200160002054905080600660008773ffffffffffffffffffffffffffffffffffffffff1673ffffffffffffffffffffffffffffffffffffffff168152602001908152602001600020600084815260200190815260200160002081905550816007600083815260200190815260200160002081905550505b6007600084815260200190815260200160002060009055600660008573ffffffffffffffffffffffffffffffffffffffff1673ffffffffffffffffffffffffffffffffffffffff16815260200190815260200160002060008381526020019081526020016000206000905550505050565b600060016008805490506138619190614d4f565b905060006009600084815260200190815260200160002054905060006008838154811061389157613890614fdc565b5b9060005260206000200154905080600883815481106138b3576138b2614fdc565b5b90600052602060002001819055508160096000838152602001908152602001600020819055506009600085815260200190815260200160002060009055600880548061390257613901614fad565b5b6001900381819060005260206000200160009055905550505050565b60006139298361123c565b905081600660008573ffffffffffffffffffffffffffffffffffffffff1673ffffffffffffffffffffffffffffffffffffffff168152602001908152602001600020600083815260200190815260200160002081905550806007600084815260200190815260200160002081905550505050565b8280546139a990614e39565b90600052602060002090601f0160209004810192826139cb5760008555613a12565b82601f106139e457805160ff1916838001178555613a12565b82800160010185558215613a12579182015b82811115613a115782518255916020019190600101906139f6565b5b509050613a1f9190613ab0565b5090565b828054828255906000526020600020908101928215613a5f579160200282015b82811115613a5e578251825591602001919060010190613a43565b5b509050613a6c9190613ab0565b5090565b508054613a7c90614e39565b6000825580601f10613a8e5750613aad565b601f016020900490600052602060002090810190613aac9190613ab0565b5b50565b5b80821115613ac9576000816000905550600101613ab1565b5090565b6000613ae0613adb84614bd9565b614bb4565b905082815260208101848484011115613afc57613afb61503f565b5b613b07848285614df7565b509392505050565b6000613b22613b1d84614c0a565b614bb4565b905082815260208101848484011115613b3e57613b3d61503f565b5b613b49848285614df7565b509392505050565b600081359050613b6081615697565b92915050565b600081359050613b75816156ae565b92915050565b600081359050613b8a816156c5565b92915050565b600081519050613b9f816156c5565b92915050565b600082601f830112613bba57613bb961503a565b5b8135613bca848260208601613acd565b91505092915050565b600082601f830112613be857613be761503a565b5b8135613bf8848260208601613b0f565b91505092915050565b600081359050613c10816156dc565b92915050565b600060208284031215613c2c57613c2b615049565b5b6000613c3a84828501613b51565b91505092915050565b60008060408385031215613c5a57613c59615049565b5b6000613c6885828601613b51565b9250506020613c7985828601613b51565b9150509250929050565b600080600060608486031215613c9c57613c9b615049565b5b6000613caa86828701613b51565b9350506020613cbb86828701613b51565b9250506040613ccc86828701613c01565b9150509250925092565b60008060008060808587031215613cf057613cef615049565b5b6000613cfe87828801613b51565b9450506020613d0f87828801613b51565b9350506040613d2087828801613c01565b925050606085013567ffffffffffffffff811115613d4157613d40615044565b5b613d4d87828801613ba5565b91505092959194509250565b60008060408385031215613d7057613d6f615049565b5b6000613d7e85828601613b51565b9250506020613d8f85828601613b66565b9150509250929050565b60008060408385031215613db057613daf615049565b5b6000613dbe85828601613b51565b9250506020613dcf85828601613c01565b9150509250929050565b600060208284031215613def57613dee615049565b5b6000613dfd84828501613b7b565b91505092915050565b600060208284031215613e1c57613e1b615049565b5b6000613e2a84828501613b90565b91505092915050565b600060208284031215613e4957613e48615049565b5b600082013567ffffffffffffffff811115613e6757613e66615044565b5b613e7384828501613bd3565b91505092915050565b600060208284031215613e9257613e91615049565b5b6000613ea084828501613c01565b91505092915050565b60008060408385031215613ec057613ebf615049565b5b6000613ece85828601613c01565b9250506020613edf85828601613c01565b9150509250929050565b6000613ef58383614554565b60208301905092915050565b613f0a81614d83565b82525050565b6000613f1b82614c4b565b613f258185614c79565b9350613f3083614c3b565b8060005b83811015613f61578151613f488882613ee9565b9750613f5383614c6c565b925050600181019050613f34565b5085935050505092915050565b6000613f7982614c4b565b613f838185614c8a565b9350613f8e83614c3b565b8060005b83811015613fbf578151613fa68882613ee9565b9750613fb183614c6c565b925050600181019050613f92565b5085935050505092915050565b613fd581614d95565b82525050565b613fe481614d95565b82525050565b6000613ff582614c56565b613fff8185614c9b565b935061400f818560208601614e06565b6140188161504e565b840191505092915050565b600061402e82614c61565b6140388185614cac565b9350614048818560208601614e06565b6140518161504e565b840191505092915050565b600061406782614c61565b6140718185614cbd565b9350614081818560208601614e06565b80840191505092915050565b600061409a601483614cac565b91506140a58261505f565b602082019050919050565b60006140bd602b83614cac565b91506140c882615088565b604082019050919050565b60006140e0603283614cac565b91506140eb826150d7565b604082019050919050565b6000614103600a83614cac565b915061410e82615126565b602082019050919050565b6000614126602683614cac565b91506141318261514f565b604082019050919050565b6000614149602583614cac565b91506141548261519e565b604082019050919050565b600061416c601c83614cac565b9150614177826151ed565b602082019050919050565b600061418f602483614cac565b915061419a82615216565b604082019050919050565b60006141b2601983614cac565b91506141bd82615265565b602082019050919050565b60006141d5602c83614cac565b91506141e08261528e565b604082019050919050565b60006141f8601083614cac565b9150614203826152dd565b602082019050919050565b600061421b603883614cac565b915061422682615306565b604082019050919050565b600061423e601383614cac565b915061424982615355565b602082019050919050565b6000614261602a83614cac565b915061426c8261537e565b604082019050919050565b6000614284602983614cac565b915061428f826153cd565b604082019050919050565b60006142a7602083614cac565b91506142b28261541c565b602082019050919050565b60006142ca603183614cac565b91506142d582615445565b604082019050919050565b60006142ed602c83614cac565b91506142f882615494565b604082019050919050565b6000614310602083614cac565b915061431b826154e3565b602082019050919050565b6000614333602f83614cac565b915061433e8261550c565b604082019050919050565b6000614356602183614cac565b91506143618261555b565b604082019050919050565b6000614379603183614cac565b9150614384826155aa565b604082019050919050565b600061439c602c83614cac565b91506143a7826155f9565b604082019050919050565b60006143bf603083614cac565b91506143ca82615648565b604082019050919050565b600060c0830160008301516143ed6000860182614554565b5060208301516144006020860182614554565b5060408301516144136040860182614554565b5060608301516144266060860182614554565b5060808301516144396080860182613fcc565b5060a083015184820360a08601526144518282613f10565b9150508091505092915050565b60a0820160008201516144746000850182614554565b5060208201516144876020850182614554565b50604082015161449a6040850182614554565b5060608201516144ad6060850182614554565b5060808201516144c06080850182614554565b50505050565b60e0820160008201516144dc6000850182614554565b5060208201516144ef6020850182614554565b5060408201516145026040850182614554565b5060608201516145156060850182614554565b5060808201516145286080850182614554565b5060a082015161453b60a0850182614554565b5060c082015161454e60c0850182614554565b50505050565b61455d81614ded565b82525050565b61456c81614ded565b82525050565b61458361457e82614ded565b614ee5565b82525050565b6000614595828561405c565b91506145a1828461405c565b91508190509392505050565b60006145b9828561405c565b91506145c58284614572565b6020820191508190509392505050565b60006020820190506145ea6000830184613f01565b92915050565b60006080820190506146056000830187613f01565b6146126020830186613f01565b61461f6040830185614563565b81810360608301526146318184613fea565b905095945050505050565b600060208201905081810360008301526146568184613f6e565b905092915050565b60006020820190506146736000830184613fdb565b92915050565b600060208201905081810360008301526146938184614023565b905092915050565b60006102208201905081810360008301526146b6818a614023565b90506146c56020830189614563565b6146d26040830188614563565b6146df6060830187614563565b6146ec608083018661445e565b6146fa6101208301856144c6565b81810361020083015261470d81846143d5565b905098975050505050505050565b6000610100820190508181036000830152614736818b614023565b9050614745602083018a614563565b6147526040830189614563565b61475f6060830188614563565b61476c6080830187614563565b61477960a0830186614563565b61478660c0830185614563565b61479360e0830184614563565b9998505050505050505050565b600060208201905081810360008301526147b98161408d565b9050919050565b600060208201905081810360008301526147d9816140b0565b9050919050565b600060208201905081810360008301526147f9816140d3565b9050919050565b60006020820190508181036000830152614819816140f6565b9050919050565b6000602082019050818103600083015261483981614119565b9050919050565b600060208201905081810360008301526148598161413c565b9050919050565b600060208201905081810360008301526148798161415f565b9050919050565b6000602082019050818103600083015261489981614182565b9050919050565b600060208201905081810360008301526148b9816141a5565b9050919050565b600060208201905081810360008301526148d9816141c8565b9050919050565b600060208201905081810360008301526148f9816141eb565b9050919050565b600060208201905081810360008301526149198161420e565b9050919050565b6000602082019050818103600083015261493981614231565b9050919050565b6000602082019050818103600083015261495981614254565b9050919050565b6000602082019050818103600083015261497981614277565b9050919050565b600060208201905081810360008301526149998161429a565b9050919050565b600060208201905081810360008301526149b9816142bd565b9050919050565b600060208201905081810360008301526149d9816142e0565b9050919050565b600060208201905081810360008301526149f981614303565b9050919050565b60006020820190508181036000830152614a1981614326565b9050919050565b60006020820190508181036000830152614a3981614349565b9050919050565b60006020820190508181036000830152614a598161436c565b9050919050565b60006020820190508181036000830152614a798161438f565b9050919050565b60006020820190508181036000830152614a99816143b2565b9050919050565b6000602082019050614ab56000830184614563565b92915050565b6000606082019050614ad06000830186614563565b614add6020830185614563565b614aea6040830184614563565b949350505050565b600060a082019050614b076000830188614563565b614b146020830187614563565b614b216040830186614563565b614b2e6060830185614563565b614b3b6080830184614563565b9695505050505050565b600060e082019050614b5a600083018a614563565b614b676020830189614563565b614b746040830188614563565b614b816060830187614563565b614b8e6080830186614563565b614b9b60a0830185614563565b614ba860c0830184614563565b98975050505050505050565b6000614bbe614bcf565b9050614bca8282614e6b565b919050565b6000604051905090565b600067ffffffffffffffff821115614bf457614bf361500b565b5b614bfd8261504e565b9050602081019050919050565b600067ffffffffffffffff821115614c2557614c2461500b565b5b614c2e8261504e565b9050602081019050919050565b6000819050602082019050919050565b600081519050919050565b600081519050919050565b600081519050919050565b6000602082019050919050565b600082825260208201905092915050565b600082825260208201905092915050565b600082825260208201905092915050565b600082825260208201905092915050565b600081905092915050565b6000614cd382614ded565b9150614cde83614ded565b9250827fffffffffffffffffffffffffffffffffffffffffffffffffffffffffffffffff03821115614d1357614d12614f20565b5b828201905092915050565b6000614d2982614ded565b9150614d3483614ded565b925082614d4457614d43614f4f565b5b828204905092915050565b6000614d5a82614ded565b9150614d6583614ded565b925082821015614d7857614d77614f20565b5b828203905092915050565b6000614d8e82614dcd565b9050919050565b60008115159050919050565b60007fffffffff0000000000000000000000000000000000000000000000000000000082169050919050565b600073ffffffffffffffffffffffffffffffffffffffff82169050919050565b6000819050919050565b82818337600083830152505050565b60005b83811015614e24578082015181840152602081019050614e09565b83811115614e33576000848401525b50505050565b60006002820490506001821680614e5157607f821691505b60208210811415614e6557614e64614f7e565b5b50919050565b614e748261504e565b810181811067ffffffffffffffff82111715614e9357614e9261500b565b5b80604052505050565b6000614ea782614ded565b91507fffffffffffffffffffffffffffffffffffffffffffffffffffffffffffffffff821415614eda57614ed9614f20565b5b600182019050919050565b6000819050919050565b6000614efa82614ded565b9150614f0583614ded565b925082614f1557614f14614f4f565b5b828206905092915050565b7f4e487b7100000000000000000000000000000000000000000000000000000000600052601160045260246000fd5b7f4e487b7100000000000000000000000000000000000000000000000000000000600052601260045260246000fd5b7f4e487b7100000000000000000000000000000000000000000000000000000000600052602260045260246000fd5b7f4e487b7100000000000000000000000000000000000000000000000000000000600052603160045260246000fd5b7f4e487b7100000000000000000000000000000000000000000000000000000000600052603260045260246000fd5b7f4e487b7100000000000000000000000000000000000000000000000000000000600052604160045260246000fd5b600080fd5b600080fd5b600080fd5b600080fd5b6000601f19601f8301169050919050565b7f5061757361626c653a206e6f7420706175736564000000000000000000000000600082015250565b7f455243373231456e756d657261626c653a206f776e657220696e646578206f7560008201527f74206f6620626f756e6473000000000000000000000000000000000000000000602082015250565b7f4552433732313a207472616e7366657220746f206e6f6e20455243373231526560008201527f63656976657220696d706c656d656e7465720000000000000000000000000000602082015250565b7f4974656d7320536f6c6400000000000000000000000000000000000000000000600082015250565b7f4f776e61626c653a206e6577206f776e657220697320746865207a65726f206160008201527f6464726573730000000000000000000000000000000000000000000000000000602082015250565b7f4552433732313a207472616e736665722066726f6d20696e636f72726563742060008201527f6f776e6572000000000000000000000000000000000000000000000000000000602082015250565b7f4552433732313a20746f6b656e20616c7265616479206d696e74656400000000600082015250565b7f4552433732313a207472616e7366657220746f20746865207a65726f2061646460008201527f7265737300000000000000000000000000000000000000000000000000000000602082015250565b7f4552433732313a20617070726f766520746f2063616c6c657200000000000000600082015250565b7f4552433732313a206f70657261746f7220717565727920666f72206e6f6e657860008201527f697374656e7420746f6b656e0000000000000000000000000000000000000000602082015250565b7f5061757361626c653a2070617573656400000000000000000000000000000000600082015250565b7f4552433732313a20617070726f76652063616c6c6572206973206e6f74206f7760008201527f6e6572206e6f7220617070726f76656420666f7220616c6c0000000000000000602082015250565b7f63616c6c6572206973206e6f74206f776e657200000000000000000000000000600082015250565b7f4552433732313a2062616c616e636520717565727920666f7220746865207a6560008201527f726f206164647265737300000000000000000000000000000000000000000000602082015250565b7f4552433732313a206f776e657220717565727920666f72206e6f6e657869737460008201527f656e7420746f6b656e0000000000000000000000000000000000000000000000602082015250565b7f4552433732313a206d696e7420746f20746865207a65726f2061646472657373600082015250565b7f45524337323155524953746f726167653a2055524920717565727920666f722060008201527f6e6f6e6578697374656e7420746f6b656e000000000000000000000000000000602082015250565b7f4552433732313a20617070726f76656420717565727920666f72206e6f6e657860008201527f697374656e7420746f6b656e0000000000000000000000000000000000000000602082015250565b7f4f776e61626c653a2063616c6c6572206973206e6f7420746865206f776e6572600082015250565b7f4552433732314d657461646174613a2055524920717565727920666f72206e6f60008201527f6e6578697374656e7420746f6b656e0000000000000000000000000000000000602082015250565b7f4552433732313a20617070726f76616c20746f2063757272656e74206f776e6560008201527f7200000000000000000000000000000000000000000000000000000000000000602082015250565b7f4552433732313a207472616e736665722063616c6c6572206973206e6f74206f60008201527f776e6572206e6f7220617070726f766564000000000000000000000000000000602082015250565b7f455243373231456e756d657261626c653a20676c6f62616c20696e646578206f60008201527f7574206f6620626f756e64730000000000000000000000000000000000000000602082015250565b7f4552433732314275726e61626c653a2063616c6c6572206973206e6f74206f7760008201527f6e6572206e6f7220617070726f76656400000000000000000000000000000000602082015250565b6156a081614d83565b81146156ab57600080fd5b50565b6156b781614d95565b81146156c257600080fd5b50565b6156ce81614da1565b81146156d957600080fd5b50565b6156e581614ded565b81146156f057600080fd5b5056fea26469706673582212201c23a83369e0fc410e92426014033cbf281d230273f0a9fa065eefe0250aa23e64736f6c63430008070033",
  "immutableReferences": {},
  "source": "// SPDX-License-Identifier: MIT\r\npragma solidity ^0.8.4;\r\n\r\nimport \"@openzeppelin/contracts/token/ERC721/ERC721.sol\";\r\nimport \"@openzeppelin/contracts/token/ERC721/extensions/ERC721Enumerable.sol\";\r\nimport \"@openzeppelin/contracts/token/ERC721/extensions/ERC721URIStorage.sol\";\r\nimport \"@openzeppelin/contracts/security/Pausable.sol\";\r\nimport \"@openzeppelin/contracts/access/Ownable.sol\";\r\nimport \"@openzeppelin/contracts/token/ERC721/extensions/ERC721Burnable.sol\";\r\nimport \"@openzeppelin/contracts/utils/Counters.sol\";\r\n\r\ncontract Horses is ERC721, ERC721Enumerable, ERC721URIStorage, Pausable, Ownable, ERC721Burnable {\r\n    using Counters for Counters.Counter;\r\n      using Strings for uint256;\r\n //address payable owner;\r\n    event NewHorse(string name, uint dna, uint hb1, uint hb2, uint hb3,  uint health, uint racelimit, uint monta);\r\n   /** event TraineHorse\r\n    event */\r\n\r\n   error InvalidAmount();\r\n   error NotOwner();\r\n\r\n     \r\n    uint  dnaDigits = 14;\r\n    uint  dnaModulus = 10 ** dnaDigits;\r\n    uint  lvlDigits= 2;\r\n    uint  lvlDigits2= 4;\r\n    uint  lvlget25= (10 ** lvlDigits) / 4;\r\n    uint  lvlget00= 10 ** lvlDigits;\r\n    uint  lvlget0000= 10 ** lvlDigits2;\r\n    uint  eated = 0; \r\n    \r\n    uint  pricelv1=5 ether;\r\n    uint  pricelv2=3 ether;\r\n    uint  pricelv3=2 ether;\r\n    uint  pricelv4=1000000000000000000;\r\n    uint  pricelv5=0.5 ether;\r\n    uint256 public maxSupplyLv1 = 2;\r\n    uint256 public maxSupplyLv2 = 3;\r\n    uint256 public maxSupplyLv3 = 5;\r\n    uint256 public maxSupplyLv4 = 5;\r\n    uint256 public maxSupplyLv5 = 5;\r\n    uint256 public maxSupplyLv6 = 5;\r\n    uint256 public suplylvl1= 0;\r\n    uint256 public suplylvl2= 0;\r\n    uint256 public suplylvl3= 0;\r\n    uint256 public suplylvl4= 0;\r\n    uint256 public suplylvl5= 0;\r\n    \r\n    \r\n struct Races {\r\n    uint winners;\r\n    uint continues;\r\n    uint skill;\r\n    uint lastrace;//tine\r\n    bool claim;\r\n    uint[] raced;\r\n  }\r\n\r\n\r\n struct  StatsGen{\r\n uint dna;\r\n uint dad;\r\n uint mom;\r\n uint birthdate;\r\n uint generation;\r\n }\r\n  \r\nstruct  Stats{\r\n   uint _hb1;\r\n   uint _hb2;\r\n   uint _hb3;\r\n   uint lastfed; //tiempo de ultima comida\r\n   uint health;  //Puntos de salud\r\n   uint racelimit;\r\n   uint monta;}\r\n    \r\nstruct Horse {\r\n        string name;\r\n        uint hb1;\r\n        uint hb2;\r\n        uint hb3;\r\n        StatsGen statsGen;\r\n        Stats stats;\r\n        Races races;   }\r\n\r\n    Horse[] public horses;\r\n\r\n    Counters.Counter private _tokenIdCounter;\r\n\r\n    constructor() ERC721(\"MyToken\", \"MTK\") {}\r\n\r\n    function _baseURI() internal pure override returns (string memory) {\r\n        return \"https//www.polh.com/\";\r\n    }\r\n\r\n    function pause() public onlyOwner {\r\n        _pause();\r\n    }\r\n\r\n    function unpause() public onlyOwner {\r\n        _unpause();\r\n    }\r\n\r\n    function safeMint(string memory _name) public payable {\r\n        uint valor= msg.value;\r\n        uint hbx = _lvlbuyer(valor);\r\n        uint256 tokenId = _tokenIdCounter.current();\r\n        _tokenIdCounter.increment();\r\n        _safeMint(msg.sender, tokenId);\r\n        _createminthorse(_name,hbx);\r\n        \r\n    }\r\n\r\n      function _createminthorse(string memory _name,uint _hbx) internal {\r\n        uint randDna = _gRamDna(_name);\r\n        uint health = 100;\r\n        uint monta = (randDna % lvlget00) + 25;\r\n        uint hb1 = (_hbx + _gRamLv(_name));\r\n        uint hb2 = (_hbx + _gRamLv(\"polka\"));\r\n        uint hb3 = (_hbx + _gRamLv(\"horse\"));     \r\n        uint racelimit= (randDna % lvlget0000) /2 +1000;\r\n        Stats memory stats=Stats({_hb1:0 , _hb2:0 , _hb3:0, lastfed:block.timestamp, health:100,racelimit:racelimit ,monta:monta});\r\n        StatsGen memory statsGen=StatsGen({ dna:0 , dad:0 , mom:0, birthdate:block.timestamp, generation:0});\r\n        Races memory races= Races({ winners:0 , continues:0 ,skill:0,lastrace:block.timestamp ,claim: false, raced: new uint256[](0) });\r\n        horses.push(Horse( _name, hb1, hb2, hb3,statsGen, stats, races));\r\n        emit NewHorse(_name,randDna, hb1, hb2, hb3, health, racelimit, monta);\r\n    }\r\n\r\n\r\n    function _beforeTokenTransfer(address from, address to, uint256 tokenId)\r\n        internal\r\n        whenNotPaused\r\n        override(ERC721, ERC721Enumerable)\r\n    {\r\n        super._beforeTokenTransfer(from, to, tokenId);\r\n    }\r\n\r\n    // The following functions are overrides required by Solidity.\r\n\r\n    function _burn(uint256 tokenId) internal override(ERC721, ERC721URIStorage) {\r\n        super._burn(tokenId);\r\n    }\r\n\r\n    function tokenURI(uint256 tokenId)\r\n        public\r\n        view\r\n        override(ERC721, ERC721URIStorage)\r\n        returns (string memory)\r\n    {\r\n        return super.tokenURI(tokenId);\r\n    }\r\n\r\n    function supportsInterface(bytes4 interfaceId)\r\n        public\r\n        view\r\n        override(ERC721, ERC721Enumerable)\r\n        returns (bool)\r\n    {\r\n        return super.supportsInterface(interfaceId);\r\n    }\r\n\r\n    //Mette\r\n\r\n  \r\n    \r\n    function _gRamDna(string memory _str) private view returns (uint) {\r\n        uint rand = uint(keccak256(abi.encodePacked(_str , block.timestamp)));\r\n        return rand % dnaModulus;\r\n    }\r\n    \r\n    \r\n    function _gRamLv(string memory _str) private view returns (uint) {\r\n       uint rand = uint(keccak256(abi.encodePacked(_str, block.timestamp)));\r\n        return rand % lvlget25;\r\n        \r\n    }               \r\n\r\n    function _lvlbuyer(uint _value) internal returns (uint) {\r\n       if (_value == pricelv1){\r\n         require(maxSupplyLv1 > suplylvl1,\"Items Sold\"); \r\n           suplylvl1 = suplylvl1+1;\r\n    \r\n         return (175);    \r\n         } \r\n         else if(_value== pricelv2){require(maxSupplyLv2 > suplylvl2,\"Items Sold\");\r\n          suplylvl2 = suplylvl2+1;\r\n         return (150);     \r\n          }\r\n        else if(_value== pricelv3){require(maxSupplyLv3 > suplylvl3,\"Items Sold\");\r\n         suplylvl3 = suplylvl3+1;\r\n         return (125);     \r\n          }\r\n        else if(_value== pricelv4){require(maxSupplyLv4 > suplylvl4,\"Items Sold\");\r\n         suplylvl4 = suplylvl4+1;\r\n         return (100);     \r\n          }\r\n        else if(_value==pricelv5){require(maxSupplyLv5 > suplylvl5,\"Items Sold\");\r\n         suplylvl5 = suplylvl5+1;\r\n         return (75);     \r\n          } \r\n          revert InvalidAmount();\r\n        \r\n    }\r\n    \r\n    function _getStructRace(uint _tokenId) view public returns(uint winners,uint continues, uint skill){\r\n    winners=horses[_tokenId].races.winners;\r\n    continues=horses[_tokenId].races.continues;\r\n    skill=horses[_tokenId].races.skill;\r\n    }\r\n\r\n\r\n    function _GetStructStastGen(uint _tokenId) view public returns(uint dna,uint dad, uint mom,uint birthdate, uint generation){\r\n     dna=horses[_tokenId].statsGen.dna;\r\n     dad=horses[_tokenId].statsGen.dad;\r\n     mom=horses[_tokenId].statsGen.mom;\r\n     birthdate=horses[_tokenId].statsGen.birthdate;\r\n     generation=horses[_tokenId].statsGen.generation;\r\n\r\n   }\r\n\r\n     function _GetStructStast(uint _tokenId) view public returns(uint _hb1,uint _hb2, uint _hb3,uint lastfed, uint health, uint racelimit, uint monta){\r\n       Horse storage p = horses[_tokenId];\r\n       return (p.stats._hb1, p.stats._hb2, p.stats._hb3, p.stats.lastfed,p.stats.health,p.stats.racelimit,p.stats.monta); \r\n     \r\n     /*_hb1=horses[_tokenId].stats._hb1;\r\n     _hb2=horses[_tokenId].stats._hb2;\r\n     _hb3=horses[_tokenId].stats._hb3;\r\n     lastfed=horses[_tokenId].stats.lastfed;\r\n     health=horses[_tokenId].stats.health;\r\n     racelimit=horses[_tokenId].stats.racelimit;\r\n     monta=horses[_tokenId].stats.monta;*/\r\n     }\r\n\r\n    function _feedHorse(uint _tokenId) public onlyOwner{\r\n      horses[_tokenId].stats.lastfed=block.timestamp;\r\n      uint health=horses[_tokenId].stats.health;\r\n      horses[_tokenId].stats.health=health + 5;\r\n        \r\n     }\r\n\r\n     function  _trainHorse(uint _tokenId) public {\r\n     address owner = ERC721.ownerOf(_tokenId);\r\n     require(_msgSender() == owner,\"caller is not owner\");\r\n     horses[_tokenId].stats._hb1=5;\r\n    }\r\n\r\n\r\n   function _getRacesHorse(uint _tokenId, uint) public view returns(uint[] memory races) {\r\n         Horse storage p = horses[_tokenId];\r\n         return (p.races.raced);     \r\n    }\r\n\r\n //  function _postArrival(uint _tokenId, uint carrera, uint_Arrival, uint _rewards);\r\n     \r\n \r\n}",
  "sourcePath": "C:\\proyecto-horse\\contratos\\horsesycarreras\\hyc1\\contracts\\Horses.sol",
  "compiler": {
    "name": "solc",
    "version": "0.8.7+commit.e28d00a7.Emscripten.clang"
  },
  "schemaVersion": "3.4.4",
  "updatedAt": "2022-03-17T23:49:22.435Z",
  "devdoc": {
    "kind": "dev",
    "methods": {
      "approve(address,uint256)": {
        "details": "See {IERC721-approve}."
      },
      "balanceOf(address)": {
        "details": "See {IERC721-balanceOf}."
      },
      "burn(uint256)": {
        "details": "Burns `tokenId`. See {ERC721-_burn}. Requirements: - The caller must own `tokenId` or be an approved operator."
      },
      "getApproved(uint256)": {
        "details": "See {IERC721-getApproved}."
      },
      "isApprovedForAll(address,address)": {
        "details": "See {IERC721-isApprovedForAll}."
      },
      "name()": {
        "details": "See {IERC721Metadata-name}."
      },
      "owner()": {
        "details": "Returns the address of the current owner."
      },
      "ownerOf(uint256)": {
        "details": "See {IERC721-ownerOf}."
      },
      "paused()": {
        "details": "Returns true if the contract is paused, and false otherwise."
      },
      "renounceOwnership()": {
        "details": "Leaves the contract without owner. It will not be possible to call `onlyOwner` functions anymore. Can only be called by the current owner. NOTE: Renouncing ownership will leave the contract without an owner, thereby removing any functionality that is only available to the owner."
      },
      "safeTransferFrom(address,address,uint256)": {
        "details": "See {IERC721-safeTransferFrom}."
      },
      "safeTransferFrom(address,address,uint256,bytes)": {
        "details": "See {IERC721-safeTransferFrom}."
      },
      "setApprovalForAll(address,bool)": {
        "details": "See {IERC721-setApprovalForAll}."
      },
      "symbol()": {
        "details": "See {IERC721Metadata-symbol}."
      },
      "tokenByIndex(uint256)": {
        "details": "See {IERC721Enumerable-tokenByIndex}."
      },
      "tokenOfOwnerByIndex(address,uint256)": {
        "details": "See {IERC721Enumerable-tokenOfOwnerByIndex}."
      },
      "totalSupply()": {
        "details": "See {IERC721Enumerable-totalSupply}."
      },
      "transferFrom(address,address,uint256)": {
        "details": "See {IERC721-transferFrom}."
      },
      "transferOwnership(address)": {
        "details": "Transfers ownership of the contract to a new account (`newOwner`). Can only be called by the current owner."
      }
    },
    "version": 1
  },
  "userdoc": {
    "errors": {
      "InvalidAmount()": [
        {
          "notice": "event TraineHorse event "
        }
      ]
    },
    "kind": "user",
    "methods": {},
    "version": 1
  }
}