{
  "contractName": "Horses",
  "abi": [
    {
      "inputs": [],
      "stateMutability": "nonpayable",
      "type": "constructor"
    },
    {
      "inputs": [],
      "name": "InvalidAmount",
      "type": "error"
    },
    {
      "inputs": [],
      "name": "NotOwner",
      "type": "error"
    },
    {
      "anonymous": false,
      "inputs": [
        {
          "indexed": true,
          "internalType": "address",
          "name": "owner",
          "type": "address"
        },
        {
          "indexed": true,
          "internalType": "address",
          "name": "approved",
          "type": "address"
        },
        {
          "indexed": true,
          "internalType": "uint256",
          "name": "tokenId",
          "type": "uint256"
        }
      ],
      "name": "Approval",
      "type": "event"
    },
    {
      "anonymous": false,
      "inputs": [
        {
          "indexed": true,
          "internalType": "address",
          "name": "owner",
          "type": "address"
        },
        {
          "indexed": true,
          "internalType": "address",
          "name": "operator",
          "type": "address"
        },
        {
          "indexed": false,
          "internalType": "bool",
          "name": "approved",
          "type": "bool"
        }
      ],
      "name": "ApprovalForAll",
      "type": "event"
    },
    {
      "anonymous": false,
      "inputs": [
        {
          "indexed": false,
          "internalType": "string",
          "name": "name",
          "type": "string"
        },
        {
          "indexed": false,
          "internalType": "uint256",
          "name": "dna",
          "type": "uint256"
        },
        {
          "indexed": false,
          "internalType": "uint256",
          "name": "hb1",
          "type": "uint256"
        },
        {
          "indexed": false,
          "internalType": "uint256",
          "name": "hb2",
          "type": "uint256"
        },
        {
          "indexed": false,
          "internalType": "uint256",
          "name": "hb3",
          "type": "uint256"
        },
        {
          "indexed": false,
          "internalType": "uint256",
          "name": "health",
          "type": "uint256"
        },
        {
          "indexed": false,
          "internalType": "uint256",
          "name": "racelimit",
          "type": "uint256"
        },
        {
          "indexed": false,
          "internalType": "uint256",
          "name": "monta",
          "type": "uint256"
        }
      ],
      "name": "NewHorse",
      "type": "event"
    },
    {
      "anonymous": false,
      "inputs": [
        {
          "indexed": true,
          "internalType": "address",
          "name": "previousOwner",
          "type": "address"
        },
        {
          "indexed": true,
          "internalType": "address",
          "name": "newOwner",
          "type": "address"
        }
      ],
      "name": "OwnershipTransferred",
      "type": "event"
    },
    {
      "anonymous": false,
      "inputs": [
        {
          "indexed": false,
          "internalType": "address",
          "name": "account",
          "type": "address"
        }
      ],
      "name": "Paused",
      "type": "event"
    },
    {
      "anonymous": false,
      "inputs": [
        {
          "indexed": true,
          "internalType": "address",
          "name": "from",
          "type": "address"
        },
        {
          "indexed": true,
          "internalType": "address",
          "name": "to",
          "type": "address"
        },
        {
          "indexed": true,
          "internalType": "uint256",
          "name": "tokenId",
          "type": "uint256"
        }
      ],
      "name": "Transfer",
      "type": "event"
    },
    {
      "anonymous": false,
      "inputs": [
        {
          "indexed": false,
          "internalType": "address",
          "name": "account",
          "type": "address"
        }
      ],
      "name": "Unpaused",
      "type": "event"
    },
    {
      "inputs": [
        {
          "internalType": "address",
          "name": "to",
          "type": "address"
        },
        {
          "internalType": "uint256",
          "name": "tokenId",
          "type": "uint256"
        }
      ],
      "name": "approve",
      "outputs": [],
      "stateMutability": "nonpayable",
      "type": "function"
    },
    {
      "inputs": [
        {
          "internalType": "address",
          "name": "owner",
          "type": "address"
        }
      ],
      "name": "balanceOf",
      "outputs": [
        {
          "internalType": "uint256",
          "name": "",
          "type": "uint256"
        }
      ],
      "stateMutability": "view",
      "type": "function"
    },
    {
      "inputs": [
        {
          "internalType": "uint256",
          "name": "tokenId",
          "type": "uint256"
        }
      ],
      "name": "burn",
      "outputs": [],
      "stateMutability": "nonpayable",
      "type": "function"
    },
    {
      "inputs": [
        {
          "internalType": "uint256",
          "name": "tokenId",
          "type": "uint256"
        }
      ],
      "name": "getApproved",
      "outputs": [
        {
          "internalType": "address",
          "name": "",
          "type": "address"
        }
      ],
      "stateMutability": "view",
      "type": "function"
    },
    {
      "inputs": [
        {
          "internalType": "uint256",
          "name": "",
          "type": "uint256"
        }
      ],
      "name": "horses",
      "outputs": [
        {
          "internalType": "string",
          "name": "name",
          "type": "string"
        },
        {
          "internalType": "uint256",
          "name": "hb1",
          "type": "uint256"
        },
        {
          "internalType": "uint256",
          "name": "hb2",
          "type": "uint256"
        },
        {
          "internalType": "uint256",
          "name": "hb3",
          "type": "uint256"
        },
        {
          "components": [
            {
              "internalType": "uint256",
              "name": "dna",
              "type": "uint256"
            },
            {
              "internalType": "uint256",
              "name": "dad",
              "type": "uint256"
            },
            {
              "internalType": "uint256",
              "name": "mom",
              "type": "uint256"
            },
            {
              "internalType": "uint256",
              "name": "birthdate",
              "type": "uint256"
            },
            {
              "internalType": "uint256",
              "name": "generation",
              "type": "uint256"
            }
          ],
          "internalType": "struct Horses.StatsGen",
          "name": "statsGen",
          "type": "tuple"
        },
        {
          "components": [
            {
              "internalType": "uint256",
              "name": "_hb1",
              "type": "uint256"
            },
            {
              "internalType": "uint256",
              "name": "_hb2",
              "type": "uint256"
            },
            {
              "internalType": "uint256",
              "name": "_hb3",
              "type": "uint256"
            },
            {
              "internalType": "uint256",
              "name": "lastfed",
              "type": "uint256"
            },
            {
              "internalType": "uint256",
              "name": "health",
              "type": "uint256"
            },
            {
              "internalType": "uint256",
              "name": "racelimit",
              "type": "uint256"
            },
            {
              "internalType": "uint256",
              "name": "monta",
              "type": "uint256"
            }
          ],
          "internalType": "struct Horses.Stats",
          "name": "stats",
          "type": "tuple"
        },
        {
          "components": [
            {
              "internalType": "uint256",
              "name": "winners",
              "type": "uint256"
            },
            {
              "internalType": "uint256",
              "name": "continues",
              "type": "uint256"
            },
            {
              "internalType": "uint256",
              "name": "skill",
              "type": "uint256"
            },
            {
              "internalType": "uint256",
              "name": "lastrace",
              "type": "uint256"
            },
            {
              "internalType": "bool",
              "name": "claim",
              "type": "bool"
            },
            {
              "internalType": "uint256[]",
              "name": "raced",
              "type": "uint256[]"
            }
          ],
          "internalType": "struct Horses.Races",
          "name": "races",
          "type": "tuple"
        }
      ],
      "stateMutability": "view",
      "type": "function"
    },
    {
      "inputs": [
        {
          "internalType": "address",
          "name": "owner",
          "type": "address"
        },
        {
          "internalType": "address",
          "name": "operator",
          "type": "address"
        }
      ],
      "name": "isApprovedForAll",
      "outputs": [
        {
          "internalType": "bool",
          "name": "",
          "type": "bool"
        }
      ],
      "stateMutability": "view",
      "type": "function"
    },
    {
      "inputs": [],
      "name": "maxSupplyLv1",
      "outputs": [
        {
          "internalType": "uint256",
          "name": "",
          "type": "uint256"
        }
      ],
      "stateMutability": "view",
      "type": "function"
    },
    {
      "inputs": [],
      "name": "maxSupplyLv2",
      "outputs": [
        {
          "internalType": "uint256",
          "name": "",
          "type": "uint256"
        }
      ],
      "stateMutability": "view",
      "type": "function"
    },
    {
      "inputs": [],
      "name": "maxSupplyLv3",
      "outputs": [
        {
          "internalType": "uint256",
          "name": "",
          "type": "uint256"
        }
      ],
      "stateMutability": "view",
      "type": "function"
    },
    {
      "inputs": [],
      "name": "maxSupplyLv4",
      "outputs": [
        {
          "internalType": "uint256",
          "name": "",
          "type": "uint256"
        }
      ],
      "stateMutability": "view",
      "type": "function"
    },
    {
      "inputs": [],
      "name": "maxSupplyLv5",
      "outputs": [
        {
          "internalType": "uint256",
          "name": "",
          "type": "uint256"
        }
      ],
      "stateMutability": "view",
      "type": "function"
    },
    {
      "inputs": [],
      "name": "maxSupplyLv6",
      "outputs": [
        {
          "internalType": "uint256",
          "name": "",
          "type": "uint256"
        }
      ],
      "stateMutability": "view",
      "type": "function"
    },
    {
      "inputs": [],
      "name": "name",
      "outputs": [
        {
          "internalType": "string",
          "name": "",
          "type": "string"
        }
      ],
      "stateMutability": "view",
      "type": "function"
    },
    {
      "inputs": [],
      "name": "owner",
      "outputs": [
        {
          "internalType": "address",
          "name": "",
          "type": "address"
        }
      ],
      "stateMutability": "view",
      "type": "function"
    },
    {
      "inputs": [
        {
          "internalType": "uint256",
          "name": "tokenId",
          "type": "uint256"
        }
      ],
      "name": "ownerOf",
      "outputs": [
        {
          "internalType": "address",
          "name": "",
          "type": "address"
        }
      ],
      "stateMutability": "view",
      "type": "function"
    },
    {
      "inputs": [],
      "name": "paused",
      "outputs": [
        {
          "internalType": "bool",
          "name": "",
          "type": "bool"
        }
      ],
      "stateMutability": "view",
      "type": "function"
    },
    {
      "inputs": [],
      "name": "renounceOwnership",
      "outputs": [],
      "stateMutability": "nonpayable",
      "type": "function"
    },
    {
      "inputs": [
        {
          "internalType": "address",
          "name": "from",
          "type": "address"
        },
        {
          "internalType": "address",
          "name": "to",
          "type": "address"
        },
        {
          "internalType": "uint256",
          "name": "tokenId",
          "type": "uint256"
        }
      ],
      "name": "safeTransferFrom",
      "outputs": [],
      "stateMutability": "nonpayable",
      "type": "function"
    },
    {
      "inputs": [
        {
          "internalType": "address",
          "name": "from",
          "type": "address"
        },
        {
          "internalType": "address",
          "name": "to",
          "type": "address"
        },
        {
          "internalType": "uint256",
          "name": "tokenId",
          "type": "uint256"
        },
        {
          "internalType": "bytes",
          "name": "_data",
          "type": "bytes"
        }
      ],
      "name": "safeTransferFrom",
      "outputs": [],
      "stateMutability": "nonpayable",
      "type": "function"
    },
    {
      "inputs": [
        {
          "internalType": "address",
          "name": "operator",
          "type": "address"
        },
        {
          "internalType": "bool",
          "name": "approved",
          "type": "bool"
        }
      ],
      "name": "setApprovalForAll",
      "outputs": [],
      "stateMutability": "nonpayable",
      "type": "function"
    },
    {
      "inputs": [],
      "name": "suplylvl1",
      "outputs": [
        {
          "internalType": "uint256",
          "name": "",
          "type": "uint256"
        }
      ],
      "stateMutability": "view",
      "type": "function"
    },
    {
      "inputs": [],
      "name": "suplylvl2",
      "outputs": [
        {
          "internalType": "uint256",
          "name": "",
          "type": "uint256"
        }
      ],
      "stateMutability": "view",
      "type": "function"
    },
    {
      "inputs": [],
      "name": "suplylvl3",
      "outputs": [
        {
          "internalType": "uint256",
          "name": "",
          "type": "uint256"
        }
      ],
      "stateMutability": "view",
      "type": "function"
    },
    {
      "inputs": [],
      "name": "suplylvl4",
      "outputs": [
        {
          "internalType": "uint256",
          "name": "",
          "type": "uint256"
        }
      ],
      "stateMutability": "view",
      "type": "function"
    },
    {
      "inputs": [],
      "name": "suplylvl5",
      "outputs": [
        {
          "internalType": "uint256",
          "name": "",
          "type": "uint256"
        }
      ],
      "stateMutability": "view",
      "type": "function"
    },
    {
      "inputs": [],
      "name": "symbol",
      "outputs": [
        {
          "internalType": "string",
          "name": "",
          "type": "string"
        }
      ],
      "stateMutability": "view",
      "type": "function"
    },
    {
      "inputs": [
        {
          "internalType": "uint256",
          "name": "index",
          "type": "uint256"
        }
      ],
      "name": "tokenByIndex",
      "outputs": [
        {
          "internalType": "uint256",
          "name": "",
          "type": "uint256"
        }
      ],
      "stateMutability": "view",
      "type": "function"
    },
    {
      "inputs": [
        {
          "internalType": "address",
          "name": "owner",
          "type": "address"
        },
        {
          "internalType": "uint256",
          "name": "index",
          "type": "uint256"
        }
      ],
      "name": "tokenOfOwnerByIndex",
      "outputs": [
        {
          "internalType": "uint256",
          "name": "",
          "type": "uint256"
        }
      ],
      "stateMutability": "view",
      "type": "function"
    },
    {
      "inputs": [],
      "name": "totalSupply",
      "outputs": [
        {
          "internalType": "uint256",
          "name": "",
          "type": "uint256"
        }
      ],
      "stateMutability": "view",
      "type": "function"
    },
    {
      "inputs": [
        {
          "internalType": "address",
          "name": "from",
          "type": "address"
        },
        {
          "internalType": "address",
          "name": "to",
          "type": "address"
        },
        {
          "internalType": "uint256",
          "name": "tokenId",
          "type": "uint256"
        }
      ],
      "name": "transferFrom",
      "outputs": [],
      "stateMutability": "nonpayable",
      "type": "function"
    },
    {
      "inputs": [
        {
          "internalType": "address",
          "name": "newOwner",
          "type": "address"
        }
      ],
      "name": "transferOwnership",
      "outputs": [],
      "stateMutability": "nonpayable",
      "type": "function"
    },
    {
      "inputs": [],
      "name": "pause",
      "outputs": [],
      "stateMutability": "nonpayable",
      "type": "function"
    },
    {
      "inputs": [],
      "name": "unpause",
      "outputs": [],
      "stateMutability": "nonpayable",
      "type": "function"
    },
    {
      "inputs": [
        {
          "internalType": "string",
          "name": "_name",
          "type": "string"
        }
      ],
      "name": "safeMint",
      "outputs": [],
      "stateMutability": "payable",
      "type": "function"
    },
    {
      "inputs": [
        {
          "internalType": "uint256",
          "name": "tokenId",
          "type": "uint256"
        }
      ],
      "name": "tokenURI",
      "outputs": [
        {
          "internalType": "string",
          "name": "",
          "type": "string"
        }
      ],
      "stateMutability": "view",
      "type": "function"
    },
    {
      "inputs": [
        {
          "internalType": "bytes4",
          "name": "interfaceId",
          "type": "bytes4"
        }
      ],
      "name": "supportsInterface",
      "outputs": [
        {
          "internalType": "bool",
          "name": "",
          "type": "bool"
        }
      ],
      "stateMutability": "view",
      "type": "function"
    },
    {
      "inputs": [
        {
          "internalType": "uint256",
          "name": "_tokenId",
          "type": "uint256"
        }
      ],
      "name": "_getStructRace",
      "outputs": [
        {
          "internalType": "uint256",
          "name": "winners",
          "type": "uint256"
        },
        {
          "internalType": "uint256",
          "name": "continues",
          "type": "uint256"
        },
        {
          "internalType": "uint256",
          "name": "skill",
          "type": "uint256"
        }
      ],
      "stateMutability": "view",
      "type": "function"
    },
    {
      "inputs": [
        {
          "internalType": "uint256",
          "name": "_tokenId",
          "type": "uint256"
        }
      ],
      "name": "_GetStructStastGen",
      "outputs": [
        {
          "internalType": "uint256",
          "name": "dna",
          "type": "uint256"
        },
        {
          "internalType": "uint256",
          "name": "dad",
          "type": "uint256"
        },
        {
          "internalType": "uint256",
          "name": "mom",
          "type": "uint256"
        },
        {
          "internalType": "uint256",
          "name": "birthdate",
          "type": "uint256"
        },
        {
          "internalType": "uint256",
          "name": "generation",
          "type": "uint256"
        }
      ],
      "stateMutability": "view",
      "type": "function"
    },
    {
      "inputs": [
        {
          "internalType": "uint256",
          "name": "_tokenId",
          "type": "uint256"
        }
      ],
      "name": "_GetStructStast",
      "outputs": [
        {
          "internalType": "uint256",
          "name": "_hb1",
          "type": "uint256"
        },
        {
          "internalType": "uint256",
          "name": "_hb2",
          "type": "uint256"
        },
        {
          "internalType": "uint256",
          "name": "_hb3",
          "type": "uint256"
        },
        {
          "internalType": "uint256",
          "name": "lastfed",
          "type": "uint256"
        },
        {
          "internalType": "uint256",
          "name": "health",
          "type": "uint256"
        },
        {
          "internalType": "uint256",
          "name": "racelimit",
          "type": "uint256"
        },
        {
          "internalType": "uint256",
          "name": "monta",
          "type": "uint256"
        }
      ],
      "stateMutability": "view",
      "type": "function"
    },
    {
      "inputs": [
        {
          "internalType": "uint256",
          "name": "_tokenId",
          "type": "uint256"
        }
      ],
      "name": "_feedHorse",
      "outputs": [],
      "stateMutability": "nonpayable",
      "type": "function"
    },
    {
      "inputs": [
        {
          "internalType": "uint256",
          "name": "_tokenId",
          "type": "uint256"
        }
      ],
      "name": "_trainHorse",
      "outputs": [],
      "stateMutability": "nonpayable",
      "type": "function"
    },
    {
      "inputs": [
        {
          "internalType": "uint256",
          "name": "_tokenId",
          "type": "uint256"
        },
        {
          "internalType": "uint256",
          "name": "",
          "type": "uint256"
        }
      ],
      "name": "_getRacesHorse",
      "outputs": [
        {
          "internalType": "uint256[]",
          "name": "races",
          "type": "uint256[]"
        }
      ],
      "stateMutability": "view",
      "type": "function"
    }
  ],
  "bytecode": "0x6080604052600e600c55600c54600a6200001a9190620003e9565b600d556002600e556004600f556004600e54600a6200003a9190620003e9565b62000046919062000356565b601055600e54600a6200005a9190620003e9565b601155600f54600a6200006e9190620003e9565b6012556000601355674563918244f400006014556729a2241af62c0000601555671bc16d674ec80000601655670de0b6b3a76400006017556706f05b59d3b2000060185560026019556003601a556005601b556005601c556005601d556005601e556000601f556000602055600060215560006022556000602355348015620000f657600080fd5b506040518060400160405280600781526020017f4d79546f6b656e000000000000000000000000000000000000000000000000008152506040518060400160405280600381526020017f4d544b000000000000000000000000000000000000000000000000000000000081525081600090805190602001906200017b929190620002a6565b50806001908051906020019062000194929190620002a6565b5050506000600b60006101000a81548160ff021916908315150217905550620001d2620001c6620001d860201b60201c565b620001e060201b60201c565b62000600565b600033905090565b6000600b60019054906101000a900473ffffffffffffffffffffffffffffffffffffffff16905081600b60016101000a81548173ffffffffffffffffffffffffffffffffffffffff021916908373ffffffffffffffffffffffffffffffffffffffff1602179055508173ffffffffffffffffffffffffffffffffffffffff168173ffffffffffffffffffffffffffffffffffffffff167f8be0079c531659141344cd1fd0a4f28419497f9722a3daafe3b4186f6b6457e060405160405180910390a35050565b828054620002b49062000530565b90600052602060002090601f016020900481019282620002d8576000855562000324565b82601f10620002f357805160ff191683800117855562000324565b8280016001018555821562000324579182015b828111156200032357825182559160200191906001019062000306565b5b50905062000333919062000337565b5090565b5b808211156200035257600081600090555060010162000338565b5090565b6000620003638262000526565b9150620003708362000526565b92508262000383576200038262000595565b5b828204905092915050565b6000808291508390505b6001851115620003e057808604811115620003b857620003b762000566565b5b6001851615620003c85780820291505b8081029050620003d885620005f3565b945062000398565b94509492505050565b6000620003f68262000526565b9150620004038362000526565b9250620004327fffffffffffffffffffffffffffffffffffffffffffffffffffffffffffffffff84846200043a565b905092915050565b6000826200044c57600190506200051f565b816200045c57600090506200051f565b81600181146200047557600281146200048057620004b6565b60019150506200051f565b60ff84111562000495576200049462000566565b5b8360020a915084821115620004af57620004ae62000566565b5b506200051f565b5060208310610133831016604e8410600b8410161715620004f05782820a905083811115620004ea57620004e962000566565b5b6200051f565b620004ff84848460016200038e565b9250905081840481111562000519576200051862000566565b5b81810290505b9392505050565b6000819050919050565b600060028204905060018216806200054957607f821691505b6020821081141562000560576200055f620005c4565b5b50919050565b7f4e487b7100000000000000000000000000000000000000000000000000000000600052601160045260246000fd5b7f4e487b7100000000000000000000000000000000000000000000000000000000600052601260045260246000fd5b7f4e487b7100000000000000000000000000000000000000000000000000000000600052602260045260246000fd5b60008160011c9050919050565b61573180620006106000396000f3fe6080604052600436106102515760003560e01c806370a0823111610139578063ab80048e116100b6578063ca65cc531161007a578063ca65cc53146108d9578063d570bb691461091c578063dacbbb5e14610947578063e985e9c514610972578063ecb9bce6146109af578063f2fde38b146109da57610251565b8063ab80048e146107de578063b88d4fde1461081d578063b95b097514610846578063c25b05b414610871578063c87b56dd1461089c57610251565b806395d89b41116100fd57806395d89b41146106f35780639b1a65c11461071e578063a0c4cd0e14610749578063a22cb46514610774578063aaa6dabb1461079d57610251565b806370a082311461061a578063715018a6146106575780638456cb591461066e5780638da5cb5b146106855780638f8b5cde146106b057610251565b80633a34822e116101d25780634d1d8612116101965780634d1d8612146105055780634f63c0a1146105305780634f6ccce7146105595780635c975abb146105965780636352211e146105c1578063695850fb146105fe57610251565b80633a34822e146104345780633f4ba83a1461045f57806342842e0e1461047657806342966c681461049f5780634b2fbf52146104c857610251565b806318160ddd1161021957806318160ddd1461034d57806323b872dd1461037857806323e7d3ce146103a15780632f745c59146103cc5780633902fc7c1461040957610251565b806301ffc9a71461025657806306fdde0314610293578063081812fc146102be578063095ea7b3146102fb5780631315904a14610324575b600080fd5b34801561026257600080fd5b5061027d60048036038101906102789190613e04565b610a03565b60405161028a919061468d565b60405180910390f35b34801561029f57600080fd5b506102a8610a15565b6040516102b591906146a8565b60405180910390f35b3480156102ca57600080fd5b506102e560048036038101906102e09190613eab565b610aa7565b6040516102f29190614604565b60405180910390f35b34801561030757600080fd5b50610322600480360381019061031d9190613dc4565b610b2c565b005b34801561033057600080fd5b5061034b60048036038101906103469190613eab565b610c44565b005b34801561035957600080fd5b50610362610d57565b60405161036f9190614acf565b60405180910390f35b34801561038457600080fd5b5061039f600480360381019061039a9190613cae565b610d64565b005b3480156103ad57600080fd5b506103b6610dc4565b6040516103c39190614acf565b60405180910390f35b3480156103d857600080fd5b506103f360048036038101906103ee9190613dc4565b610dca565b6040516104009190614acf565b60405180910390f35b34801561041557600080fd5b5061041e610e6f565b60405161042b9190614acf565b60405180910390f35b34801561044057600080fd5b50610449610e75565b6040516104569190614acf565b60405180910390f35b34801561046b57600080fd5b50610474610e7b565b005b34801561048257600080fd5b5061049d60048036038101906104989190613cae565b610f01565b005b3480156104ab57600080fd5b506104c660048036038101906104c19190613eab565b610f21565b005b3480156104d457600080fd5b506104ef60048036038101906104ea9190613ed8565b610f7d565b6040516104fc919061466b565b60405180910390f35b34801561051157600080fd5b5061051a611004565b6040516105279190614acf565b60405180910390f35b34801561053c57600080fd5b5061055760048036038101906105529190613eab565b61100a565b005b34801561056557600080fd5b50610580600480360381019061057b9190613eab565b6110be565b60405161058d9190614acf565b60405180910390f35b3480156105a257600080fd5b506105ab61112f565b6040516105b8919061468d565b60405180910390f35b3480156105cd57600080fd5b506105e860048036038101906105e39190613eab565b611146565b6040516105f59190614604565b60405180910390f35b61061860048036038101906106139190613e5e565b6111f8565b005b34801561062657600080fd5b50610641600480360381019061063c9190613c41565b611281565b60405161064e9190614acf565b60405180910390f35b34801561066357600080fd5b5061066c611339565b005b34801561067a57600080fd5b506106836113c1565b005b34801561069157600080fd5b5061069a611447565b6040516106a79190614604565b60405180910390f35b3480156106bc57600080fd5b506106d760048036038101906106d29190613eab565b611471565b6040516106ea97969594939291906146ca565b60405180910390f35b3480156106ff57600080fd5b5061070861167c565b60405161071591906146a8565b60405180910390f35b34801561072a57600080fd5b5061073361170e565b6040516107409190614acf565b60405180910390f35b34801561075557600080fd5b5061075e611714565b60405161076b9190614acf565b60405180910390f35b34801561078057600080fd5b5061079b60048036038101906107969190613d84565b61171a565b005b3480156107a957600080fd5b506107c460048036038101906107bf9190613eab565b611730565b6040516107d5959493929190614b21565b60405180910390f35b3480156107ea57600080fd5b5061080560048036038101906108009190613eab565b611818565b60405161081493929190614aea565b60405180910390f35b34801561082957600080fd5b50610844600480360381019061083f9190613d01565b6118a5565b005b34801561085257600080fd5b5061085b611907565b6040516108689190614acf565b60405180910390f35b34801561087d57600080fd5b5061088661190d565b6040516108939190614acf565b60405180910390f35b3480156108a857600080fd5b506108c360048036038101906108be9190613eab565b611913565b6040516108d091906146a8565b60405180910390f35b3480156108e557600080fd5b5061090060048036038101906108fb9190613eab565b611925565b6040516109139796959493929190614b74565b60405180910390f35b34801561092857600080fd5b506109316119a7565b60405161093e9190614acf565b60405180910390f35b34801561095357600080fd5b5061095c6119ad565b6040516109699190614acf565b60405180910390f35b34801561097e57600080fd5b5061099960048036038101906109949190613c6e565b6119b3565b6040516109a6919061468d565b60405180910390f35b3480156109bb57600080fd5b506109c4611a47565b6040516109d19190614acf565b60405180910390f35b3480156109e657600080fd5b50610a0160048036038101906109fc9190613c41565b611a4d565b005b6000610a0e82611b45565b9050919050565b606060008054610a2490614e37565b80601f0160208091040260200160405190810160405280929190818152602001828054610a5090614e37565b8015610a9d5780601f10610a7257610100808354040283529160200191610a9d565b820191906000526020600020905b815481529060010190602001808311610a8057829003601f168201915b5050505050905090565b6000610ab282611bbf565b610af1576040517f08c379a0000000000000000000000000000000000000000000000000000000008152600401610ae8906149ef565b60405180910390fd5b6004600083815260200190815260200160002060009054906101000a900473ffffffffffffffffffffffffffffffffffffffff169050919050565b6000610b3782611146565b90508073ffffffffffffffffffffffffffffffffffffffff168373ffffffffffffffffffffffffffffffffffffffff161415610ba8576040517f08c379a0000000000000000000000000000000000000000000000000000000008152600401610b9f90614a4f565b60405180910390fd5b8073ffffffffffffffffffffffffffffffffffffffff16610bc7611c2b565b73ffffffffffffffffffffffffffffffffffffffff161480610bf65750610bf581610bf0611c2b565b6119b3565b5b610c35576040517f08c379a0000000000000000000000000000000000000000000000000000000008152600401610c2c9061492f565b60405180910390fd5b610c3f8383611c33565b505050565b610c4c611c2b565b73ffffffffffffffffffffffffffffffffffffffff16610c6a611447565b73ffffffffffffffffffffffffffffffffffffffff1614610cc0576040517f08c379a0000000000000000000000000000000000000000000000000000000008152600401610cb790614a0f565b60405180910390fd5b4260248281548110610cd557610cd4614fda565b5b906000526020600020906016020160090160030181905550600060248281548110610d0357610d02614fda565b5b9060005260206000209060160201600901600401549050600581610d279190614cc6565b60248381548110610d3b57610d3a614fda565b5b9060005260206000209060160201600901600401819055505050565b6000600880549050905090565b610d75610d6f611c2b565b82611cec565b610db4576040517f08c379a0000000000000000000000000000000000000000000000000000000008152600401610dab90614a6f565b60405180910390fd5b610dbf838383611dca565b505050565b601e5481565b6000610dd583611281565b8210610e16576040517f08c379a0000000000000000000000000000000000000000000000000000000008152600401610e0d906147ef565b60405180910390fd5b600660008473ffffffffffffffffffffffffffffffffffffffff1673ffffffffffffffffffffffffffffffffffffffff168152602001908152602001600020600083815260200190815260200160002054905092915050565b601b5481565b60195481565b610e83611c2b565b73ffffffffffffffffffffffffffffffffffffffff16610ea1611447565b73ffffffffffffffffffffffffffffffffffffffff1614610ef7576040517f08c379a0000000000000000000000000000000000000000000000000000000008152600401610eee90614a0f565b60405180910390fd5b610eff612031565b565b610f1c838383604051806020016040528060008152506118a5565b505050565b610f32610f2c611c2b565b82611cec565b610f71576040517f08c379a0000000000000000000000000000000000000000000000000000000008152600401610f6890614aaf565b60405180910390fd5b610f7a816120d3565b50565b6060600060248481548110610f9557610f94614fda565b5b9060005260206000209060160201905080601001600501805480602002602001604051908101604052809291908181526020018280548015610ff657602002820191906000526020600020905b815481526020019060010190808311610fe2575b505050505091505092915050565b60225481565b600061101582611146565b90508073ffffffffffffffffffffffffffffffffffffffff16611036611c2b565b73ffffffffffffffffffffffffffffffffffffffff161461108c576040517f08c379a00000000000000000000000000000000000000000000000000000000081526004016110839061494f565b60405180910390fd5b6005602483815481106110a2576110a1614fda565b5b9060005260206000209060160201600901600001819055505050565b60006110c8610d57565b8210611109576040517f08c379a000000000000000000000000000000000000000000000000000000000815260040161110090614a8f565b60405180910390fd5b6008828154811061111d5761111c614fda565b5b90600052602060002001549050919050565b6000600b60009054906101000a900460ff16905090565b6000806002600084815260200190815260200160002060009054906101000a900473ffffffffffffffffffffffffffffffffffffffff169050600073ffffffffffffffffffffffffffffffffffffffff168173ffffffffffffffffffffffffffffffffffffffff1614156111ef576040517f08c379a00000000000000000000000000000000000000000000000000000000081526004016111e69061498f565b60405180910390fd5b80915050919050565b60003490506000611208826120df565b90506000611216602561233e565b9050611222602561234c565b61122c3382612362565b61127a85858080601f016020809104026020016040519081016040528093929190818152602001838380828437600081840152601f19601f8201169050808301925050505050505083612380565b5050505050565b60008073ffffffffffffffffffffffffffffffffffffffff168273ffffffffffffffffffffffffffffffffffffffff1614156112f2576040517f08c379a00000000000000000000000000000000000000000000000000000000081526004016112e99061496f565b60405180910390fd5b600360008373ffffffffffffffffffffffffffffffffffffffff1673ffffffffffffffffffffffffffffffffffffffff168152602001908152602001600020549050919050565b611341611c2b565b73ffffffffffffffffffffffffffffffffffffffff1661135f611447565b73ffffffffffffffffffffffffffffffffffffffff16146113b5576040517f08c379a00000000000000000000000000000000000000000000000000000000081526004016113ac90614a0f565b60405180910390fd5b6113bf6000612764565b565b6113c9611c2b565b73ffffffffffffffffffffffffffffffffffffffff166113e7611447565b73ffffffffffffffffffffffffffffffffffffffff161461143d576040517f08c379a000000000000000000000000000000000000000000000000000000000815260040161143490614a0f565b60405180910390fd5b61144561282a565b565b6000600b60019054906101000a900473ffffffffffffffffffffffffffffffffffffffff16905090565b6024818154811061148157600080fd5b90600052602060002090601602016000915090508060000180546114a490614e37565b80601f01602080910402602001604051908101604052809291908181526020018280546114d090614e37565b801561151d5780601f106114f25761010080835404028352916020019161151d565b820191906000526020600020905b81548152906001019060200180831161150057829003601f168201915b505050505090806001015490806002015490806003015490806004016040518060a00160405290816000820154815260200160018201548152602001600282015481526020016003820154815260200160048201548152505090806009016040518060e001604052908160008201548152602001600182015481526020016002820154815260200160038201548152602001600482015481526020016005820154815260200160068201548152505090806010016040518060c0016040529081600082015481526020016001820154815260200160028201548152602001600382015481526020016004820160009054906101000a900460ff161515151581526020016005820180548060200260200160405190810160405280929190818152602001828054801561166e57602002820191906000526020600020905b81548152602001906001019080831161165a575b505050505081525050905087565b60606001805461168b90614e37565b80601f01602080910402602001604051908101604052809291908181526020018280546116b790614e37565b80156117045780601f106116d957610100808354040283529160200191611704565b820191906000526020600020905b8154815290600101906020018083116116e757829003601f168201915b5050505050905090565b601c5481565b60235481565b61172c611725611c2b565b83836128cd565b5050565b60008060008060006024868154811061174c5761174b614fda565b5b90600052602060002090601602016004016000015494506024868154811061177757611776614fda565b5b9060005260206000209060160201600401600101549350602486815481106117a2576117a1614fda565b5b9060005260206000209060160201600401600201549250602486815481106117cd576117cc614fda565b5b9060005260206000209060160201600401600301549150602486815481106117f8576117f7614fda565b5b906000526020600020906016020160040160040154905091939590929450565b60008060006024848154811061183157611830614fda565b5b90600052602060002090601602016010016000015492506024848154811061185c5761185b614fda565b5b90600052602060002090601602016010016001015491506024848154811061188757611886614fda565b5b90600052602060002090601602016010016002015490509193909250565b6118b66118b0611c2b565b83611cec565b6118f5576040517f08c379a00000000000000000000000000000000000000000000000000000000081526004016118ec90614a6f565b60405180910390fd5b61190184848484612a3a565b50505050565b60215481565b60205481565b606061191e82612a96565b9050919050565b6000806000806000806000806024898154811061194557611944614fda565b5b906000526020600020906016020190508060090160000154816009016001015482600901600201548360090160030154846009016004015485600901600501548660090160060154975097509750975097509750975050919395979092949650565b601f5481565b601d5481565b6000600560008473ffffffffffffffffffffffffffffffffffffffff1673ffffffffffffffffffffffffffffffffffffffff16815260200190815260200160002060008373ffffffffffffffffffffffffffffffffffffffff1673ffffffffffffffffffffffffffffffffffffffff16815260200190815260200160002060009054906101000a900460ff16905092915050565b601a5481565b611a55611c2b565b73ffffffffffffffffffffffffffffffffffffffff16611a73611447565b73ffffffffffffffffffffffffffffffffffffffff1614611ac9576040517f08c379a0000000000000000000000000000000000000000000000000000000008152600401611ac090614a0f565b60405180910390fd5b600073ffffffffffffffffffffffffffffffffffffffff168173ffffffffffffffffffffffffffffffffffffffff161415611b39576040517f08c379a0000000000000000000000000000000000000000000000000000000008152600401611b309061484f565b60405180910390fd5b611b4281612764565b50565b60007f780e9d63000000000000000000000000000000000000000000000000000000007bffffffffffffffffffffffffffffffffffffffffffffffffffffffff1916827bffffffffffffffffffffffffffffffffffffffffffffffffffffffff19161480611bb85750611bb782612be8565b5b9050919050565b60008073ffffffffffffffffffffffffffffffffffffffff166002600084815260200190815260200160002060009054906101000a900473ffffffffffffffffffffffffffffffffffffffff1673ffffffffffffffffffffffffffffffffffffffff1614159050919050565b600033905090565b816004600083815260200190815260200160002060006101000a81548173ffffffffffffffffffffffffffffffffffffffff021916908373ffffffffffffffffffffffffffffffffffffffff160217905550808273ffffffffffffffffffffffffffffffffffffffff16611ca683611146565b73ffffffffffffffffffffffffffffffffffffffff167f8c5be1e5ebec7d5bd14f71427d1e84f3dd0314c0f7b2291e5b200ac8c7c3b92560405160405180910390a45050565b6000611cf782611bbf565b611d36576040517f08c379a0000000000000000000000000000000000000000000000000000000008152600401611d2d906148ef565b60405180910390fd5b6000611d4183611146565b90508073ffffffffffffffffffffffffffffffffffffffff168473ffffffffffffffffffffffffffffffffffffffff161480611db057508373ffffffffffffffffffffffffffffffffffffffff16611d9884610aa7565b73ffffffffffffffffffffffffffffffffffffffff16145b80611dc15750611dc081856119b3565b5b91505092915050565b8273ffffffffffffffffffffffffffffffffffffffff16611dea82611146565b73ffffffffffffffffffffffffffffffffffffffff1614611e40576040517f08c379a0000000000000000000000000000000000000000000000000000000008152600401611e379061486f565b60405180910390fd5b600073ffffffffffffffffffffffffffffffffffffffff168273ffffffffffffffffffffffffffffffffffffffff161415611eb0576040517f08c379a0000000000000000000000000000000000000000000000000000000008152600401611ea7906148af565b60405180910390fd5b611ebb838383612cca565b611ec6600082611c33565b6001600360008573ffffffffffffffffffffffffffffffffffffffff1673ffffffffffffffffffffffffffffffffffffffff1681526020019081526020016000206000828254611f169190614d4d565b925050819055506001600360008473ffffffffffffffffffffffffffffffffffffffff1673ffffffffffffffffffffffffffffffffffffffff1681526020019081526020016000206000828254611f6d9190614cc6565b92505081905550816002600083815260200190815260200160002060006101000a81548173ffffffffffffffffffffffffffffffffffffffff021916908373ffffffffffffffffffffffffffffffffffffffff160217905550808273ffffffffffffffffffffffffffffffffffffffff168473ffffffffffffffffffffffffffffffffffffffff167fddf252ad1be2c89b69c2b068fc378daa952ba7f163c4a11628f55a4df523b3ef60405160405180910390a461202c838383612d22565b505050565b61203961112f565b612078576040517f08c379a000000000000000000000000000000000000000000000000000000000815260040161206f906147cf565b60405180910390fd5b6000600b60006101000a81548160ff0219169083151502179055507f5db9ee0a495bf2e6ff9c91a7834c1ba4fdd244a5e8aa4e537bd38aeae4b073aa6120bc611c2b565b6040516120c99190614604565b60405180910390a1565b6120dc81612d27565b50565b600060145482141561214f57601f5460195411612131576040517f08c379a00000000000000000000000000000000000000000000000000000000081526004016121289061482f565b60405180910390fd5b6001601f546121409190614cc6565b601f8190555060af9050612339565b6015548214156121bd57602054601a541161219f576040517f08c379a00000000000000000000000000000000000000000000000000000000081526004016121969061482f565b60405180910390fd5b60016020546121ae9190614cc6565b60208190555060969050612339565b60165482141561222b57602154601b541161220d576040517f08c379a00000000000000000000000000000000000000000000000000000000081526004016122049061482f565b60405180910390fd5b600160215461221c9190614cc6565b602181905550607d9050612339565b60175482141561229957602254601c541161227b576040517f08c379a00000000000000000000000000000000000000000000000000000000081526004016122729061482f565b60405180910390fd5b600160225461228a9190614cc6565b60228190555060649050612339565b60185482141561230757602354601d54116122e9576040517f08c379a00000000000000000000000000000000000000000000000000000000081526004016122e09061482f565b60405180910390fd5b60016023546122f89190614cc6565b602381905550604b9050612339565b6040517f2c5211c600000000000000000000000000000000000000000000000000000000815260040160405180910390fd5b919050565b600081600001549050919050565b6001816000016000828254019250508190555050565b61237c828260405180602001604052806000815250612d7a565b5050565b600061238b83612dd5565b905060006064905060006019601154846123a59190614eed565b6123af9190614cc6565b905060006123bc86612e1c565b856123c79190614cc6565b905060006124096040518060400160405280600581526020017f706f6c6b61000000000000000000000000000000000000000000000000000000815250612e1c565b866124149190614cc6565b905060006124566040518060400160405280600581526020017f686f727365000000000000000000000000000000000000000000000000000000815250612e1c565b876124619190614cc6565b905060006103e86002601254896124789190614eed565b6124829190614d1c565b61248c9190614cc6565b905060006040518060e001604052806000815260200160008152602001600081526020014281526020016064815260200183815260200187815250905060006040518060a001604052806000815260200160008152602001600081526020014281526020016000815250905060006040518060c00160405280600081526020016000815260200160008152602001428152602001600015158152602001600067ffffffffffffffff81111561254457612543615009565b5b6040519080825280602002602001820160405280156125725781602001602082028036833780820191505090505b50815250905060246040518060e001604052808e815260200189815260200188815260200187815260200184815260200185815260200183815250908060018154018082558091505060019003906000526020600020906016020160009091909190915060008201518160000190805190602001906125f29291906139e2565b506020820151816001015560408201518160020155606082015181600301556080820151816004016000820151816000015560208201518160010155604082015181600201556060820151816003015560808201518160040155505060a082015181600901600082015181600001556020820151816001015560408201518160020155606082015181600301556080820151816004015560a0820151816005015560c08201518160060155505060c0820151816010016000820151816000015560208201518160010155604082015181600201556060820151816003015560808201518160040160006101000a81548160ff02191690831515021790555060a082015181600501908051906020019061270c929190613a68565b50505050507fa1515860511710b224709a9232efcae4b1380eefe7402417c5dc9d4681cf19188c8b8989898e8a8f60405161274e98979695949392919061474a565b60405180910390a1505050505050505050505050565b6000600b60019054906101000a900473ffffffffffffffffffffffffffffffffffffffff16905081600b60016101000a81548173ffffffffffffffffffffffffffffffffffffffff021916908373ffffffffffffffffffffffffffffffffffffffff1602179055508173ffffffffffffffffffffffffffffffffffffffff168173ffffffffffffffffffffffffffffffffffffffff167f8be0079c531659141344cd1fd0a4f28419497f9722a3daafe3b4186f6b6457e060405160405180910390a35050565b61283261112f565b15612872576040517f08c379a00000000000000000000000000000000000000000000000000000000081526004016128699061490f565b60405180910390fd5b6001600b60006101000a81548160ff0219169083151502179055507f62e78cea01bee320cd4e420270b5ea74000d11b0c9f74754ebdbfc544b05a2586128b6611c2b565b6040516128c39190614604565b60405180910390a1565b8173ffffffffffffffffffffffffffffffffffffffff168373ffffffffffffffffffffffffffffffffffffffff16141561293c576040517f08c379a0000000000000000000000000000000000000000000000000000000008152600401612933906148cf565b60405180910390fd5b80600560008573ffffffffffffffffffffffffffffffffffffffff1673ffffffffffffffffffffffffffffffffffffffff16815260200190815260200160002060008473ffffffffffffffffffffffffffffffffffffffff1673ffffffffffffffffffffffffffffffffffffffff16815260200190815260200160002060006101000a81548160ff0219169083151502179055508173ffffffffffffffffffffffffffffffffffffffff168373ffffffffffffffffffffffffffffffffffffffff167f17307eab39ab6107e8899845ad3d59bd9653f200f220920489ca2b5937696c3183604051612a2d919061468d565b60405180910390a3505050565b612a45848484611dca565b612a5184848484612e63565b612a90576040517f08c379a0000000000000000000000000000000000000000000000000000000008152600401612a879061480f565b60405180910390fd5b50505050565b6060612aa182611bbf565b612ae0576040517f08c379a0000000000000000000000000000000000000000000000000000000008152600401612ad7906149cf565b60405180910390fd5b6000600a60008481526020019081526020016000208054612b0090614e37565b80601f0160208091040260200160405190810160405280929190818152602001828054612b2c90614e37565b8015612b795780601f10612b4e57610100808354040283529160200191612b79565b820191906000526020600020905b815481529060010190602001808311612b5c57829003601f168201915b505050505090506000612b8a612ffa565b9050600081511415612ba0578192505050612be3565b600082511115612bd5578082604051602001612bbd9291906145b8565b60405160208183030381529060405292505050612be3565b612bde84613037565b925050505b919050565b60007f80ac58cd000000000000000000000000000000000000000000000000000000007bffffffffffffffffffffffffffffffffffffffffffffffffffffffff1916827bffffffffffffffffffffffffffffffffffffffffffffffffffffffff19161480612cb357507f5b5e139f000000000000000000000000000000000000000000000000000000007bffffffffffffffffffffffffffffffffffffffffffffffffffffffff1916827bffffffffffffffffffffffffffffffffffffffffffffffffffffffff1916145b80612cc35750612cc2826130de565b5b9050919050565b612cd261112f565b15612d12576040517f08c379a0000000000000000000000000000000000000000000000000000000008152600401612d099061490f565b60405180910390fd5b612d1d838383613148565b505050565b505050565b612d308161325c565b6000600a60008381526020019081526020016000208054612d5090614e37565b905014612d7757600a60008281526020019081526020016000206000612d769190613ab5565b5b50565b612d848383613379565b612d916000848484612e63565b612dd0576040517f08c379a0000000000000000000000000000000000000000000000000000000008152600401612dc79061480f565b60405180910390fd5b505050565b6000808242604051602001612deb9291906145dc565b6040516020818303038152906040528051906020012060001c9050600d5481612e149190614eed565b915050919050565b6000808242604051602001612e329291906145dc565b6040516020818303038152906040528051906020012060001c905060105481612e5b9190614eed565b915050919050565b6000612e848473ffffffffffffffffffffffffffffffffffffffff16613553565b15612fed578373ffffffffffffffffffffffffffffffffffffffff1663150b7a02612ead611c2b565b8786866040518563ffffffff1660e01b8152600401612ecf949392919061461f565b602060405180830381600087803b158015612ee957600080fd5b505af1925050508015612f1a57506040513d601f19601f82011682018060405250810190612f179190613e31565b60015b612f9d573d8060008114612f4a576040519150601f19603f3d011682016040523d82523d6000602084013e612f4f565b606091505b50600081511415612f95576040517f08c379a0000000000000000000000000000000000000000000000000000000008152600401612f8c9061480f565b60405180910390fd5b805181602001fd5b63150b7a0260e01b7bffffffffffffffffffffffffffffffffffffffffffffffffffffffff1916817bffffffffffffffffffffffffffffffffffffffffffffffffffffffff191614915050612ff2565b600190505b949350505050565b60606040518060400160405280601481526020017f68747470732f2f7777772e706f6c682e636f6d2f000000000000000000000000815250905090565b606061304282611bbf565b613081576040517f08c379a000000000000000000000000000000000000000000000000000000000815260040161307890614a2f565b60405180910390fd5b600061308b612ffa565b905060008151116130ab57604051806020016040528060008152506130d6565b806130b584613576565b6040516020016130c69291906145b8565b6040516020818303038152906040525b915050919050565b60007f01ffc9a7000000000000000000000000000000000000000000000000000000007bffffffffffffffffffffffffffffffffffffffffffffffffffffffff1916827bffffffffffffffffffffffffffffffffffffffffffffffffffffffff1916149050919050565b6131538383836136d7565b600073ffffffffffffffffffffffffffffffffffffffff168373ffffffffffffffffffffffffffffffffffffffff16141561319657613191816136dc565b6131d5565b8173ffffffffffffffffffffffffffffffffffffffff168373ffffffffffffffffffffffffffffffffffffffff16146131d4576131d38382613725565b5b5b600073ffffffffffffffffffffffffffffffffffffffff168273ffffffffffffffffffffffffffffffffffffffff1614156132185761321381613892565b613257565b8273ffffffffffffffffffffffffffffffffffffffff168273ffffffffffffffffffffffffffffffffffffffff1614613256576132558282613963565b5b5b505050565b600061326782611146565b905061327581600084612cca565b613280600083611c33565b6001600360008373ffffffffffffffffffffffffffffffffffffffff1673ffffffffffffffffffffffffffffffffffffffff16815260200190815260200160002060008282546132d09190614d4d565b925050819055506002600083815260200190815260200160002060006101000a81549073ffffffffffffffffffffffffffffffffffffffff021916905581600073ffffffffffffffffffffffffffffffffffffffff168273ffffffffffffffffffffffffffffffffffffffff167fddf252ad1be2c89b69c2b068fc378daa952ba7f163c4a11628f55a4df523b3ef60405160405180910390a461337581600084612d22565b5050565b600073ffffffffffffffffffffffffffffffffffffffff168273ffffffffffffffffffffffffffffffffffffffff1614156133e9576040517f08c379a00000000000000000000000000000000000000000000000000000000081526004016133e0906149af565b60405180910390fd5b6133f281611bbf565b15613432576040517f08c379a00000000000000000000000000000000000000000000000000000000081526004016134299061488f565b60405180910390fd5b61343e60008383612cca565b6001600360008473ffffffffffffffffffffffffffffffffffffffff1673ffffffffffffffffffffffffffffffffffffffff168152602001908152602001600020600082825461348e9190614cc6565b92505081905550816002600083815260200190815260200160002060006101000a81548173ffffffffffffffffffffffffffffffffffffffff021916908373ffffffffffffffffffffffffffffffffffffffff160217905550808273ffffffffffffffffffffffffffffffffffffffff16600073ffffffffffffffffffffffffffffffffffffffff167fddf252ad1be2c89b69c2b068fc378daa952ba7f163c4a11628f55a4df523b3ef60405160405180910390a461354f60008383612d22565b5050565b6000808273ffffffffffffffffffffffffffffffffffffffff163b119050919050565b606060008214156135be576040518060400160405280600181526020017f300000000000000000000000000000000000000000000000000000000000000081525090506136d2565b600082905060005b600082146135f05780806135d990614e9a565b915050600a826135e99190614d1c565b91506135c6565b60008167ffffffffffffffff81111561360c5761360b615009565b5b6040519080825280601f01601f19166020018201604052801561363e5781602001600182028036833780820191505090505b5090505b600085146136cb576001826136579190614d4d565b9150600a856136669190614eed565b60306136729190614cc6565b60f81b81838151811061368857613687614fda565b5b60200101907effffffffffffffffffffffffffffffffffffffffffffffffffffffffffffff1916908160001a905350600a856136c49190614d1c565b9450613642565b8093505050505b919050565b505050565b6008805490506009600083815260200190815260200160002081905550600881908060018154018082558091505060019003906000526020600020016000909190919091505550565b6000600161373284611281565b61373c9190614d4d565b9050600060076000848152602001908152602001600020549050818114613821576000600660008673ffffffffffffffffffffffffffffffffffffffff1673ffffffffffffffffffffffffffffffffffffffff168152602001908152602001600020600084815260200190815260200160002054905080600660008773ffffffffffffffffffffffffffffffffffffffff1673ffffffffffffffffffffffffffffffffffffffff168152602001908152602001600020600084815260200190815260200160002081905550816007600083815260200190815260200160002081905550505b6007600084815260200190815260200160002060009055600660008573ffffffffffffffffffffffffffffffffffffffff1673ffffffffffffffffffffffffffffffffffffffff16815260200190815260200160002060008381526020019081526020016000206000905550505050565b600060016008805490506138a69190614d4d565b90506000600960008481526020019081526020016000205490506000600883815481106138d6576138d5614fda565b5b9060005260206000200154905080600883815481106138f8576138f7614fda565b5b90600052602060002001819055508160096000838152602001908152602001600020819055506009600085815260200190815260200160002060009055600880548061394757613946614fab565b5b6001900381819060005260206000200160009055905550505050565b600061396e83611281565b905081600660008573ffffffffffffffffffffffffffffffffffffffff1673ffffffffffffffffffffffffffffffffffffffff168152602001908152602001600020600083815260200190815260200160002081905550806007600084815260200190815260200160002081905550505050565b8280546139ee90614e37565b90600052602060002090601f016020900481019282613a105760008555613a57565b82601f10613a2957805160ff1916838001178555613a57565b82800160010185558215613a57579182015b82811115613a56578251825591602001919060010190613a3b565b5b509050613a649190613af5565b5090565b828054828255906000526020600020908101928215613aa4579160200282015b82811115613aa3578251825591602001919060010190613a88565b5b509050613ab19190613af5565b5090565b508054613ac190614e37565b6000825580601f10613ad35750613af2565b601f016020900490600052602060002090810190613af19190613af5565b5b50565b5b80821115613b0e576000816000905550600101613af6565b5090565b6000613b25613b2084614c08565b614be3565b905082815260208101848484011115613b4157613b40615047565b5b613b4c848285614df5565b509392505050565b600081359050613b638161569f565b92915050565b600081359050613b78816156b6565b92915050565b600081359050613b8d816156cd565b92915050565b600081519050613ba2816156cd565b92915050565b600082601f830112613bbd57613bbc61503d565b5b8135613bcd848260208601613b12565b91505092915050565b60008083601f840112613bec57613beb61503d565b5b8235905067ffffffffffffffff811115613c0957613c08615038565b5b602083019150836001820283011115613c2557613c24615042565b5b9250929050565b600081359050613c3b816156e4565b92915050565b600060208284031215613c5757613c56615051565b5b6000613c6584828501613b54565b91505092915050565b60008060408385031215613c8557613c84615051565b5b6000613c9385828601613b54565b9250506020613ca485828601613b54565b9150509250929050565b600080600060608486031215613cc757613cc6615051565b5b6000613cd586828701613b54565b9350506020613ce686828701613b54565b9250506040613cf786828701613c2c565b9150509250925092565b60008060008060808587031215613d1b57613d1a615051565b5b6000613d2987828801613b54565b9450506020613d3a87828801613b54565b9350506040613d4b87828801613c2c565b925050606085013567ffffffffffffffff811115613d6c57613d6b61504c565b5b613d7887828801613ba8565b91505092959194509250565b60008060408385031215613d9b57613d9a615051565b5b6000613da985828601613b54565b9250506020613dba85828601613b69565b9150509250929050565b60008060408385031215613ddb57613dda615051565b5b6000613de985828601613b54565b9250506020613dfa85828601613c2c565b9150509250929050565b600060208284031215613e1a57613e19615051565b5b6000613e2884828501613b7e565b91505092915050565b600060208284031215613e4757613e46615051565b5b6000613e5584828501613b93565b91505092915050565b60008060208385031215613e7557613e74615051565b5b600083013567ffffffffffffffff811115613e9357613e9261504c565b5b613e9f85828601613bd6565b92509250509250929050565b600060208284031215613ec157613ec0615051565b5b6000613ecf84828501613c2c565b91505092915050565b60008060408385031215613eef57613eee615051565b5b6000613efd85828601613c2c565b9250506020613f0e85828601613c2c565b9150509250929050565b6000613f248383614583565b60208301905092915050565b613f3981614d81565b82525050565b6000613f4a82614c49565b613f548185614c77565b9350613f5f83614c39565b8060005b83811015613f90578151613f778882613f18565b9750613f8283614c6a565b925050600181019050613f63565b5085935050505092915050565b6000613fa882614c49565b613fb28185614c88565b9350613fbd83614c39565b8060005b83811015613fee578151613fd58882613f18565b9750613fe083614c6a565b925050600181019050613fc1565b5085935050505092915050565b61400481614d93565b82525050565b61401381614d93565b82525050565b600061402482614c54565b61402e8185614c99565b935061403e818560208601614e04565b61404781615056565b840191505092915050565b600061405d82614c5f565b6140678185614caa565b9350614077818560208601614e04565b61408081615056565b840191505092915050565b600061409682614c5f565b6140a08185614cbb565b93506140b0818560208601614e04565b80840191505092915050565b60006140c9601483614caa565b91506140d482615067565b602082019050919050565b60006140ec602b83614caa565b91506140f782615090565b604082019050919050565b600061410f603283614caa565b915061411a826150df565b604082019050919050565b6000614132600a83614caa565b915061413d8261512e565b602082019050919050565b6000614155602683614caa565b915061416082615157565b604082019050919050565b6000614178602583614caa565b9150614183826151a6565b604082019050919050565b600061419b601c83614caa565b91506141a6826151f5565b602082019050919050565b60006141be602483614caa565b91506141c98261521e565b604082019050919050565b60006141e1601983614caa565b91506141ec8261526d565b602082019050919050565b6000614204602c83614caa565b915061420f82615296565b604082019050919050565b6000614227601083614caa565b9150614232826152e5565b602082019050919050565b600061424a603883614caa565b91506142558261530e565b604082019050919050565b600061426d601383614caa565b91506142788261535d565b602082019050919050565b6000614290602a83614caa565b915061429b82615386565b604082019050919050565b60006142b3602983614caa565b91506142be826153d5565b604082019050919050565b60006142d6602083614caa565b91506142e182615424565b602082019050919050565b60006142f9603183614caa565b91506143048261544d565b604082019050919050565b600061431c602c83614caa565b91506143278261549c565b604082019050919050565b600061433f602083614caa565b915061434a826154eb565b602082019050919050565b6000614362602f83614caa565b915061436d82615514565b604082019050919050565b6000614385602183614caa565b915061439082615563565b604082019050919050565b60006143a8603183614caa565b91506143b3826155b2565b604082019050919050565b60006143cb602c83614caa565b91506143d682615601565b604082019050919050565b60006143ee603083614caa565b91506143f982615650565b604082019050919050565b600060c08301600083015161441c6000860182614583565b50602083015161442f6020860182614583565b5060408301516144426040860182614583565b5060608301516144556060860182614583565b5060808301516144686080860182613ffb565b5060a083015184820360a08601526144808282613f3f565b9150508091505092915050565b60a0820160008201516144a36000850182614583565b5060208201516144b66020850182614583565b5060408201516144c96040850182614583565b5060608201516144dc6060850182614583565b5060808201516144ef6080850182614583565b50505050565b60e08201600082015161450b6000850182614583565b50602082015161451e6020850182614583565b5060408201516145316040850182614583565b5060608201516145446060850182614583565b5060808201516145576080850182614583565b5060a082015161456a60a0850182614583565b5060c082015161457d60c0850182614583565b50505050565b61458c81614deb565b82525050565b61459b81614deb565b82525050565b6145b26145ad82614deb565b614ee3565b82525050565b60006145c4828561408b565b91506145d0828461408b565b91508190509392505050565b60006145e8828561408b565b91506145f482846145a1565b6020820191508190509392505050565b60006020820190506146196000830184613f30565b92915050565b60006080820190506146346000830187613f30565b6146416020830186613f30565b61464e6040830185614592565b81810360608301526146608184614019565b905095945050505050565b600060208201905081810360008301526146858184613f9d565b905092915050565b60006020820190506146a2600083018461400a565b92915050565b600060208201905081810360008301526146c28184614052565b905092915050565b60006102208201905081810360008301526146e5818a614052565b90506146f46020830189614592565b6147016040830188614592565b61470e6060830187614592565b61471b608083018661448d565b6147296101208301856144f5565b81810361020083015261473c8184614404565b905098975050505050505050565b6000610100820190508181036000830152614765818b614052565b9050614774602083018a614592565b6147816040830189614592565b61478e6060830188614592565b61479b6080830187614592565b6147a860a0830186614592565b6147b560c0830185614592565b6147c260e0830184614592565b9998505050505050505050565b600060208201905081810360008301526147e8816140bc565b9050919050565b60006020820190508181036000830152614808816140df565b9050919050565b6000602082019050818103600083015261482881614102565b9050919050565b6000602082019050818103600083015261484881614125565b9050919050565b6000602082019050818103600083015261486881614148565b9050919050565b600060208201905081810360008301526148888161416b565b9050919050565b600060208201905081810360008301526148a88161418e565b9050919050565b600060208201905081810360008301526148c8816141b1565b9050919050565b600060208201905081810360008301526148e8816141d4565b9050919050565b60006020820190508181036000830152614908816141f7565b9050919050565b600060208201905081810360008301526149288161421a565b9050919050565b600060208201905081810360008301526149488161423d565b9050919050565b6000602082019050818103600083015261496881614260565b9050919050565b6000602082019050818103600083015261498881614283565b9050919050565b600060208201905081810360008301526149a8816142a6565b9050919050565b600060208201905081810360008301526149c8816142c9565b9050919050565b600060208201905081810360008301526149e8816142ec565b9050919050565b60006020820190508181036000830152614a088161430f565b9050919050565b60006020820190508181036000830152614a2881614332565b9050919050565b60006020820190508181036000830152614a4881614355565b9050919050565b60006020820190508181036000830152614a6881614378565b9050919050565b60006020820190508181036000830152614a888161439b565b9050919050565b60006020820190508181036000830152614aa8816143be565b9050919050565b60006020820190508181036000830152614ac8816143e1565b9050919050565b6000602082019050614ae46000830184614592565b92915050565b6000606082019050614aff6000830186614592565b614b0c6020830185614592565b614b196040830184614592565b949350505050565b600060a082019050614b366000830188614592565b614b436020830187614592565b614b506040830186614592565b614b5d6060830185614592565b614b6a6080830184614592565b9695505050505050565b600060e082019050614b89600083018a614592565b614b966020830189614592565b614ba36040830188614592565b614bb06060830187614592565b614bbd6080830186614592565b614bca60a0830185614592565b614bd760c0830184614592565b98975050505050505050565b6000614bed614bfe565b9050614bf98282614e69565b919050565b6000604051905090565b600067ffffffffffffffff821115614c2357614c22615009565b5b614c2c82615056565b9050602081019050919050565b6000819050602082019050919050565b600081519050919050565b600081519050919050565b600081519050919050565b6000602082019050919050565b600082825260208201905092915050565b600082825260208201905092915050565b600082825260208201905092915050565b600082825260208201905092915050565b600081905092915050565b6000614cd182614deb565b9150614cdc83614deb565b9250827fffffffffffffffffffffffffffffffffffffffffffffffffffffffffffffffff03821115614d1157614d10614f1e565b5b828201905092915050565b6000614d2782614deb565b9150614d3283614deb565b925082614d4257614d41614f4d565b5b828204905092915050565b6000614d5882614deb565b9150614d6383614deb565b925082821015614d7657614d75614f1e565b5b828203905092915050565b6000614d8c82614dcb565b9050919050565b60008115159050919050565b60007fffffffff0000000000000000000000000000000000000000000000000000000082169050919050565b600073ffffffffffffffffffffffffffffffffffffffff82169050919050565b6000819050919050565b82818337600083830152505050565b60005b83811015614e22578082015181840152602081019050614e07565b83811115614e31576000848401525b50505050565b60006002820490506001821680614e4f57607f821691505b60208210811415614e6357614e62614f7c565b5b50919050565b614e7282615056565b810181811067ffffffffffffffff82111715614e9157614e90615009565b5b80604052505050565b6000614ea582614deb565b91507fffffffffffffffffffffffffffffffffffffffffffffffffffffffffffffffff821415614ed857614ed7614f1e565b5b600182019050919050565b6000819050919050565b6000614ef882614deb565b9150614f0383614deb565b925082614f1357614f12614f4d565b5b828206905092915050565b7f4e487b7100000000000000000000000000000000000000000000000000000000600052601160045260246000fd5b7f4e487b7100000000000000000000000000000000000000000000000000000000600052601260045260246000fd5b7f4e487b7100000000000000000000000000000000000000000000000000000000600052602260045260246000fd5b7f4e487b7100000000000000000000000000000000000000000000000000000000600052603160045260246000fd5b7f4e487b7100000000000000000000000000000000000000000000000000000000600052603260045260246000fd5b7f4e487b7100000000000000000000000000000000000000000000000000000000600052604160045260246000fd5b600080fd5b600080fd5b600080fd5b600080fd5b600080fd5b600080fd5b6000601f19601f8301169050919050565b7f5061757361626c653a206e6f7420706175736564000000000000000000000000600082015250565b7f455243373231456e756d657261626c653a206f776e657220696e646578206f7560008201527f74206f6620626f756e6473000000000000000000000000000000000000000000602082015250565b7f4552433732313a207472616e7366657220746f206e6f6e20455243373231526560008201527f63656976657220696d706c656d656e7465720000000000000000000000000000602082015250565b7f4974656d7320536f6c6400000000000000000000000000000000000000000000600082015250565b7f4f776e61626c653a206e6577206f776e657220697320746865207a65726f206160008201527f6464726573730000000000000000000000000000000000000000000000000000602082015250565b7f4552433732313a207472616e736665722066726f6d20696e636f72726563742060008201527f6f776e6572000000000000000000000000000000000000000000000000000000602082015250565b7f4552433732313a20746f6b656e20616c7265616479206d696e74656400000000600082015250565b7f4552433732313a207472616e7366657220746f20746865207a65726f2061646460008201527f7265737300000000000000000000000000000000000000000000000000000000602082015250565b7f4552433732313a20617070726f766520746f2063616c6c657200000000000000600082015250565b7f4552433732313a206f70657261746f7220717565727920666f72206e6f6e657860008201527f697374656e7420746f6b656e0000000000000000000000000000000000000000602082015250565b7f5061757361626c653a2070617573656400000000000000000000000000000000600082015250565b7f4552433732313a20617070726f76652063616c6c6572206973206e6f74206f7760008201527f6e6572206e6f7220617070726f76656420666f7220616c6c0000000000000000602082015250565b7f63616c6c6572206973206e6f74206f776e657200000000000000000000000000600082015250565b7f4552433732313a2062616c616e636520717565727920666f7220746865207a6560008201527f726f206164647265737300000000000000000000000000000000000000000000602082015250565b7f4552433732313a206f776e657220717565727920666f72206e6f6e657869737460008201527f656e7420746f6b656e0000000000000000000000000000000000000000000000602082015250565b7f4552433732313a206d696e7420746f20746865207a65726f2061646472657373600082015250565b7f45524337323155524953746f726167653a2055524920717565727920666f722060008201527f6e6f6e6578697374656e7420746f6b656e000000000000000000000000000000602082015250565b7f4552433732313a20617070726f76656420717565727920666f72206e6f6e657860008201527f697374656e7420746f6b656e0000000000000000000000000000000000000000602082015250565b7f4f776e61626c653a2063616c6c6572206973206e6f7420746865206f776e6572600082015250565b7f4552433732314d657461646174613a2055524920717565727920666f72206e6f60008201527f6e6578697374656e7420746f6b656e0000000000000000000000000000000000602082015250565b7f4552433732313a20617070726f76616c20746f2063757272656e74206f776e6560008201527f7200000000000000000000000000000000000000000000000000000000000000602082015250565b7f4552433732313a207472616e736665722063616c6c6572206973206e6f74206f60008201527f776e6572206e6f7220617070726f766564000000000000000000000000000000602082015250565b7f455243373231456e756d657261626c653a20676c6f62616c20696e646578206f60008201527f7574206f6620626f756e64730000000000000000000000000000000000000000602082015250565b7f4552433732314275726e61626c653a2063616c6c6572206973206e6f74206f7760008201527f6e6572206e6f7220617070726f76656400000000000000000000000000000000602082015250565b6156a881614d81565b81146156b357600080fd5b50565b6156bf81614d93565b81146156ca57600080fd5b50565b6156d681614d9f565b81146156e157600080fd5b50565b6156ed81614deb565b81146156f857600080fd5b5056fea2646970667358221220c9e378cc94935f59a4f91c2524a8f30c6b651e73652e7ce912890acec89db50e64736f6c63430008070033",
  "immutableReferences": {},
  "source": "// SPDX-License-Identifier: MIT\r\npragma solidity ^0.8.4;\r\n\r\nimport \"@openzeppelin/contracts/token/ERC721/ERC721.sol\";\r\nimport \"@openzeppelin/contracts/token/ERC721/extensions/ERC721Enumerable.sol\";\r\nimport \"@openzeppelin/contracts/token/ERC721/extensions/ERC721URIStorage.sol\";\r\nimport \"@openzeppelin/contracts/security/Pausable.sol\";\r\nimport \"@openzeppelin/contracts/access/Ownable.sol\";\r\nimport \"@openzeppelin/contracts/token/ERC721/extensions/ERC721Burnable.sol\";\r\nimport \"@openzeppelin/contracts/utils/Counters.sol\";\r\n\r\ncontract Horses is ERC721, ERC721Enumerable, ERC721URIStorage, Pausable, Ownable, ERC721Burnable {\r\n    using Counters for Counters.Counter;\r\n      using Strings for uint256;\r\n //address payable owner;\r\n    event NewHorse(string name, uint dna, uint hb1, uint hb2, uint hb3,  uint health, uint racelimit, uint monta);\r\n   /** event TraineHorse\r\n    event */\r\n\r\n   error InvalidAmount();\r\n   error NotOwner();\r\n\r\n     \r\n    uint  dnaDigits = 14;\r\n    uint  dnaModulus = 10 ** dnaDigits;\r\n    uint lvlDigits= 2;\r\n    uint lvlDigits2= 4;\r\n    uint  lvlget25= (10 ** lvlDigits) / 4;\r\n    uint  lvlget00= 10 ** lvlDigits;\r\n    uint  lvlget0000= 10 ** lvlDigits2;\r\n    uint  eated = 0; \r\n    \r\n    uint  pricelv1=5 ether;\r\n    uint  pricelv2=3 ether;\r\n    uint  pricelv3=2 ether;\r\n    uint  pricelv4=1000000000000000000;\r\n    uint  pricelv5=0.5 ether;\r\n    uint256 public maxSupplyLv1 = 2;\r\n    uint256 public maxSupplyLv2 = 3;\r\n    uint256 public maxSupplyLv3 = 5;\r\n    uint256 public maxSupplyLv4 = 5;\r\n    uint256 public maxSupplyLv5 = 5;\r\n    uint256 public maxSupplyLv6 = 5;\r\n    uint256 public suplylvl1= 0;\r\n    uint256 public suplylvl2= 0;\r\n    uint256 public suplylvl3= 0;\r\n    uint256 public suplylvl4= 0;\r\n    uint256 public suplylvl5= 0;\r\n    \r\n    \r\n struct Races {\r\n    uint winners;\r\n    uint continues;\r\n    uint skill;\r\n    uint lastrace;//tine\r\n    bool claim;\r\n    uint[] raced;\r\n  }\r\n\r\n\r\n struct  StatsGen{\r\n uint dna;\r\n uint dad;\r\n uint mom;\r\n uint birthdate;\r\n uint generation;\r\n }\r\n  \r\nstruct  Stats{\r\n   uint _hb1;\r\n   uint _hb2;\r\n   uint _hb3;\r\n   uint lastfed; //tiempo de ultima comida\r\n   uint health;  //Puntos de salud\r\n   uint racelimit;\r\n   uint monta;}\r\n    \r\nstruct Horse {\r\n        string name;\r\n        uint hb1;\r\n        uint hb2;\r\n        uint hb3;\r\n        StatsGen statsGen;\r\n        Stats stats;\r\n        Races races;   }\r\n\r\n    Horse[] public horses;\r\n\r\n    Counters.Counter private _tokenIdCounter;\r\n\r\n    constructor() ERC721(\"MyToken\", \"MTK\") {}\r\n\r\n    function _baseURI() internal pure override returns (string memory) {\r\n        return \"https//www.polh.com/\";\r\n    }\r\n\r\n    function pause() public onlyOwner {\r\n        _pause();\r\n    }\r\n\r\n    function unpause() public onlyOwner {\r\n        _unpause();\r\n    }\r\n\r\n    function safeMint(string calldata _name) public payable {\r\n        uint valor= msg.value;\r\n        uint hbx = _lvlbuyer(valor);\r\n        uint256 tokenId = _tokenIdCounter.current();\r\n        _tokenIdCounter.increment();\r\n        _safeMint(msg.sender, tokenId);\r\n        _createminthorse(_name,hbx);\r\n        \r\n    }\r\n\r\n      function _createminthorse(string memory _name,uint _hbx) internal {\r\n        uint randDna = _gRamDna(_name);\r\n        uint health = 100;\r\n        uint monta = (randDna % lvlget00) + 25;\r\n        uint hb1 = (_hbx + _gRamLv(_name));\r\n        uint hb2 = (_hbx + _gRamLv(\"polka\"));\r\n        uint hb3 = (_hbx + _gRamLv(\"horse\"));     \r\n        uint racelimit= (randDna % lvlget0000) /2 +1000;\r\n        Stats memory stats=Stats({_hb1:0 , _hb2:0 , _hb3:0, lastfed:block.timestamp, health:100,racelimit:racelimit ,monta:monta});\r\n        StatsGen memory statsGen=StatsGen({ dna:0 , dad:0 , mom:0, birthdate:block.timestamp, generation:0});\r\n        Races memory races= Races({ winners:0 , continues:0 ,skill:0,lastrace:block.timestamp ,claim: false, raced: new uint256[](0) });\r\n        horses.push(Horse( _name, hb1, hb2, hb3,statsGen, stats, races));\r\n        emit NewHorse(_name,randDna, hb1, hb2, hb3, health, racelimit, monta);\r\n    }\r\n\r\n\r\n    function _beforeTokenTransfer(address from, address to, uint256 tokenId)\r\n        internal\r\n        whenNotPaused\r\n        override(ERC721, ERC721Enumerable)\r\n    {\r\n        super._beforeTokenTransfer(from, to, tokenId);\r\n    }\r\n\r\n    // The following functions are overrides required by Solidity.\r\n\r\n    function _burn(uint256 tokenId) internal override(ERC721, ERC721URIStorage) {\r\n        super._burn(tokenId);\r\n    }\r\n\r\n    function tokenURI(uint256 tokenId)\r\n        public\r\n        view\r\n        override(ERC721, ERC721URIStorage)\r\n        returns (string memory)\r\n    {\r\n        return super.tokenURI(tokenId);\r\n    }\r\n\r\n    function supportsInterface(bytes4 interfaceId)\r\n        public\r\n        view\r\n        override(ERC721, ERC721Enumerable)\r\n        returns (bool)\r\n    {\r\n        return super.supportsInterface(interfaceId);\r\n    }\r\n\r\n    //Mette\r\n\r\n  \r\n    \r\n    function _gRamDna(string memory _str) private view returns (uint) {\r\n        uint rand = uint(keccak256(abi.encodePacked(_str , block.timestamp)));\r\n        return rand % dnaModulus;\r\n    }\r\n    \r\n    \r\n    function _gRamLv(string memory _str) private view returns (uint) {\r\n       uint rand = uint(keccak256(abi.encodePacked(_str, block.timestamp)));\r\n        return rand % lvlget25;\r\n        \r\n    }               \r\n\r\n    function _lvlbuyer(uint _value) internal returns (uint) {\r\n       if (_value == pricelv1){\r\n         require(maxSupplyLv1 > suplylvl1,\"Items Sold\"); \r\n           suplylvl1 = suplylvl1+1;\r\n    \r\n         return (175);    \r\n         } \r\n         else if(_value== pricelv2){require(maxSupplyLv2 > suplylvl2,\"Items Sold\");\r\n          suplylvl2 = suplylvl2+1;\r\n         return (150);     \r\n          }\r\n        else if(_value== pricelv3){require(maxSupplyLv3 > suplylvl3,\"Items Sold\");\r\n         suplylvl3 = suplylvl3+1;\r\n         return (125);     \r\n          }\r\n        else if(_value== pricelv4){require(maxSupplyLv4 > suplylvl4,\"Items Sold\");\r\n         suplylvl4 = suplylvl4+1;\r\n         return (100);     \r\n          }\r\n        else if(_value==pricelv5){require(maxSupplyLv5 > suplylvl5,\"Items Sold\");\r\n         suplylvl5 = suplylvl5+1;\r\n         return (75);     \r\n          } \r\n          revert InvalidAmount();\r\n        \r\n    }\r\n    \r\n    function _getStructRace(uint _tokenId) view public returns(uint winners,uint continues, uint skill){\r\n    winners=horses[_tokenId].races.winners;\r\n    continues=horses[_tokenId].races.continues;\r\n    skill=horses[_tokenId].races.skill;\r\n    }\r\n\r\n\r\n    function _GetStructStastGen(uint _tokenId) view public returns(uint dna,uint dad, uint mom,uint birthdate, uint generation){\r\n     dna=horses[_tokenId].statsGen.dna;\r\n     dad=horses[_tokenId].statsGen.dad;\r\n     mom=horses[_tokenId].statsGen.mom;\r\n     birthdate=horses[_tokenId].statsGen.birthdate;\r\n     generation=horses[_tokenId].statsGen.generation;\r\n\r\n   }\r\n\r\n     function _GetStructStast(uint _tokenId) view public returns(uint _hb1,uint _hb2, uint _hb3,uint lastfed, uint health, uint racelimit, uint monta){\r\n       Horse storage p = horses[_tokenId];\r\n       return (p.stats._hb1, p.stats._hb2, p.stats._hb3, p.stats.lastfed,p.stats.health,p.stats.racelimit,p.stats.monta); \r\n     \r\n     /*_hb1=horses[_tokenId].stats._hb1;\r\n     _hb2=horses[_tokenId].stats._hb2;\r\n     _hb3=horses[_tokenId].stats._hb3;\r\n     lastfed=horses[_tokenId].stats.lastfed;\r\n     health=horses[_tokenId].stats.health;\r\n     racelimit=horses[_tokenId].stats.racelimit;\r\n     monta=horses[_tokenId].stats.monta;*/\r\n     }\r\n\r\n    function _feedHorse(uint _tokenId) public onlyOwner{\r\n      horses[_tokenId].stats.lastfed=block.timestamp;\r\n      uint health=horses[_tokenId].stats.health;\r\n      horses[_tokenId].stats.health=health + 5;\r\n        \r\n     }\r\n\r\n     function  _trainHorse(uint _tokenId) public {\r\n     address owner = ERC721.ownerOf(_tokenId);\r\n     require(_msgSender() == owner,\"caller is not owner\");\r\n     horses[_tokenId].stats._hb1=5;\r\n    }\r\n\r\n\r\n   function _getRacesHorse(uint _tokenId, uint) public view returns(uint[] memory races) {\r\n         Horse storage p = horses[_tokenId];\r\n         return (p.races.raced);     \r\n    }\r\n\r\n //  function _postArrival(uint _tokenId, uint carrera, uint_Arrival, uint _rewards);\r\n     \r\n \r\n}",
  "sourcePath": "C:\\proyecto-horse\\contratos\\horsesycarreras\\hyc1\\contracts\\Horses.sol",
  "compiler": {
    "name": "solc",
    "version": "0.8.7+commit.e28d00a7.Emscripten.clang"
  },
  "schemaVersion": "3.4.4",
  "updatedAt": "2022-03-16T19:17:47.135Z",
  "devdoc": {
    "kind": "dev",
    "methods": {
      "approve(address,uint256)": {
        "details": "See {IERC721-approve}."
      },
      "balanceOf(address)": {
        "details": "See {IERC721-balanceOf}."
      },
      "burn(uint256)": {
        "details": "Burns `tokenId`. See {ERC721-_burn}. Requirements: - The caller must own `tokenId` or be an approved operator."
      },
      "getApproved(uint256)": {
        "details": "See {IERC721-getApproved}."
      },
      "isApprovedForAll(address,address)": {
        "details": "See {IERC721-isApprovedForAll}."
      },
      "name()": {
        "details": "See {IERC721Metadata-name}."
      },
      "owner()": {
        "details": "Returns the address of the current owner."
      },
      "ownerOf(uint256)": {
        "details": "See {IERC721-ownerOf}."
      },
      "paused()": {
        "details": "Returns true if the contract is paused, and false otherwise."
      },
      "renounceOwnership()": {
        "details": "Leaves the contract without owner. It will not be possible to call `onlyOwner` functions anymore. Can only be called by the current owner. NOTE: Renouncing ownership will leave the contract without an owner, thereby removing any functionality that is only available to the owner."
      },
      "safeTransferFrom(address,address,uint256)": {
        "details": "See {IERC721-safeTransferFrom}."
      },
      "safeTransferFrom(address,address,uint256,bytes)": {
        "details": "See {IERC721-safeTransferFrom}."
      },
      "setApprovalForAll(address,bool)": {
        "details": "See {IERC721-setApprovalForAll}."
      },
      "symbol()": {
        "details": "See {IERC721Metadata-symbol}."
      },
      "tokenByIndex(uint256)": {
        "details": "See {IERC721Enumerable-tokenByIndex}."
      },
      "tokenOfOwnerByIndex(address,uint256)": {
        "details": "See {IERC721Enumerable-tokenOfOwnerByIndex}."
      },
      "totalSupply()": {
        "details": "See {IERC721Enumerable-totalSupply}."
      },
      "transferFrom(address,address,uint256)": {
        "details": "See {IERC721-transferFrom}."
      },
      "transferOwnership(address)": {
        "details": "Transfers ownership of the contract to a new account (`newOwner`). Can only be called by the current owner."
      }
    },
    "version": 1
  },
  "userdoc": {
    "errors": {
      "InvalidAmount()": [
        {
          "notice": "event TraineHorse event "
        }
      ]
    },
    "kind": "user",
    "methods": {},
    "version": 1
  }
}