{
  "contractName": "RacesHorses",
  "abi": [
    {
      "inputs": [],
      "name": "CantRegister",
      "type": "error"
    },
    {
      "inputs": [],
      "name": "InvalidAmount",
      "type": "error"
    },
    {
      "inputs": [],
      "name": "NotOwner",
      "type": "error"
    },
    {
      "anonymous": false,
      "inputs": [
        {
          "indexed": true,
          "internalType": "address",
          "name": "owner",
          "type": "address"
        },
        {
          "indexed": true,
          "internalType": "address",
          "name": "approved",
          "type": "address"
        },
        {
          "indexed": true,
          "internalType": "uint256",
          "name": "tokenId",
          "type": "uint256"
        }
      ],
      "name": "Approval",
      "type": "event"
    },
    {
      "anonymous": false,
      "inputs": [
        {
          "indexed": true,
          "internalType": "address",
          "name": "owner",
          "type": "address"
        },
        {
          "indexed": true,
          "internalType": "address",
          "name": "operator",
          "type": "address"
        },
        {
          "indexed": false,
          "internalType": "bool",
          "name": "approved",
          "type": "bool"
        }
      ],
      "name": "ApprovalForAll",
      "type": "event"
    },
    {
      "anonymous": false,
      "inputs": [
        {
          "indexed": false,
          "internalType": "string",
          "name": "name",
          "type": "string"
        },
        {
          "indexed": false,
          "internalType": "uint256",
          "name": "dna",
          "type": "uint256"
        },
        {
          "indexed": false,
          "internalType": "uint256",
          "name": "hb1",
          "type": "uint256"
        },
        {
          "indexed": false,
          "internalType": "uint256",
          "name": "hb2",
          "type": "uint256"
        },
        {
          "indexed": false,
          "internalType": "uint256",
          "name": "hb3",
          "type": "uint256"
        },
        {
          "indexed": false,
          "internalType": "uint256",
          "name": "health",
          "type": "uint256"
        },
        {
          "indexed": false,
          "internalType": "uint256",
          "name": "racelimit",
          "type": "uint256"
        },
        {
          "indexed": false,
          "internalType": "uint256",
          "name": "monta",
          "type": "uint256"
        }
      ],
      "name": "NewHorse",
      "type": "event"
    },
    {
      "anonymous": false,
      "inputs": [
        {
          "indexed": true,
          "internalType": "address",
          "name": "previousOwner",
          "type": "address"
        },
        {
          "indexed": true,
          "internalType": "address",
          "name": "newOwner",
          "type": "address"
        }
      ],
      "name": "OwnershipTransferred",
      "type": "event"
    },
    {
      "anonymous": false,
      "inputs": [
        {
          "indexed": false,
          "internalType": "address",
          "name": "account",
          "type": "address"
        }
      ],
      "name": "Paused",
      "type": "event"
    },
    {
      "anonymous": false,
      "inputs": [
        {
          "indexed": true,
          "internalType": "address",
          "name": "from",
          "type": "address"
        },
        {
          "indexed": true,
          "internalType": "address",
          "name": "to",
          "type": "address"
        },
        {
          "indexed": true,
          "internalType": "uint256",
          "name": "tokenId",
          "type": "uint256"
        }
      ],
      "name": "Transfer",
      "type": "event"
    },
    {
      "anonymous": false,
      "inputs": [
        {
          "indexed": false,
          "internalType": "address",
          "name": "account",
          "type": "address"
        }
      ],
      "name": "Unpaused",
      "type": "event"
    },
    {
      "inputs": [
        {
          "internalType": "uint256",
          "name": "_tokenId",
          "type": "uint256"
        }
      ],
      "name": "_GetStructStast",
      "outputs": [
        {
          "internalType": "uint256",
          "name": "_hb1",
          "type": "uint256"
        },
        {
          "internalType": "uint256",
          "name": "_hb2",
          "type": "uint256"
        },
        {
          "internalType": "uint256",
          "name": "_hb3",
          "type": "uint256"
        },
        {
          "internalType": "uint256",
          "name": "lastfed",
          "type": "uint256"
        },
        {
          "internalType": "uint256",
          "name": "health",
          "type": "uint256"
        },
        {
          "internalType": "uint256",
          "name": "racelimit",
          "type": "uint256"
        },
        {
          "internalType": "uint256",
          "name": "monta",
          "type": "uint256"
        }
      ],
      "stateMutability": "view",
      "type": "function"
    },
    {
      "inputs": [
        {
          "internalType": "uint256",
          "name": "_tokenId",
          "type": "uint256"
        }
      ],
      "name": "_GetStructStastGen",
      "outputs": [
        {
          "internalType": "uint256",
          "name": "dna",
          "type": "uint256"
        },
        {
          "internalType": "uint256",
          "name": "dad",
          "type": "uint256"
        },
        {
          "internalType": "uint256",
          "name": "mom",
          "type": "uint256"
        },
        {
          "internalType": "uint256",
          "name": "birthdate",
          "type": "uint256"
        },
        {
          "internalType": "uint256",
          "name": "generation",
          "type": "uint256"
        }
      ],
      "stateMutability": "view",
      "type": "function"
    },
    {
      "inputs": [
        {
          "internalType": "uint256",
          "name": "_tokenId",
          "type": "uint256"
        }
      ],
      "name": "_feedHorse",
      "outputs": [],
      "stateMutability": "nonpayable",
      "type": "function"
    },
    {
      "inputs": [
        {
          "internalType": "uint256",
          "name": "_tokenId",
          "type": "uint256"
        },
        {
          "internalType": "uint256",
          "name": "",
          "type": "uint256"
        }
      ],
      "name": "_getRacesHorse",
      "outputs": [
        {
          "internalType": "uint256[]",
          "name": "races",
          "type": "uint256[]"
        }
      ],
      "stateMutability": "view",
      "type": "function"
    },
    {
      "inputs": [
        {
          "internalType": "uint256",
          "name": "_tokenId",
          "type": "uint256"
        }
      ],
      "name": "_getStructRace",
      "outputs": [
        {
          "internalType": "uint256",
          "name": "winners",
          "type": "uint256"
        },
        {
          "internalType": "uint256",
          "name": "continues",
          "type": "uint256"
        },
        {
          "internalType": "uint256",
          "name": "skill",
          "type": "uint256"
        }
      ],
      "stateMutability": "view",
      "type": "function"
    },
    {
      "inputs": [
        {
          "internalType": "uint256",
          "name": "_tokenId",
          "type": "uint256"
        }
      ],
      "name": "_trainHorse",
      "outputs": [],
      "stateMutability": "nonpayable",
      "type": "function"
    },
    {
      "inputs": [
        {
          "internalType": "address",
          "name": "to",
          "type": "address"
        },
        {
          "internalType": "uint256",
          "name": "tokenId",
          "type": "uint256"
        }
      ],
      "name": "approve",
      "outputs": [],
      "stateMutability": "nonpayable",
      "type": "function"
    },
    {
      "inputs": [
        {
          "internalType": "address",
          "name": "owner",
          "type": "address"
        }
      ],
      "name": "balanceOf",
      "outputs": [
        {
          "internalType": "uint256",
          "name": "",
          "type": "uint256"
        }
      ],
      "stateMutability": "view",
      "type": "function"
    },
    {
      "inputs": [
        {
          "internalType": "uint256",
          "name": "tokenId",
          "type": "uint256"
        }
      ],
      "name": "burn",
      "outputs": [],
      "stateMutability": "nonpayable",
      "type": "function"
    },
    {
      "inputs": [
        {
          "internalType": "uint256",
          "name": "tokenId",
          "type": "uint256"
        }
      ],
      "name": "getApproved",
      "outputs": [
        {
          "internalType": "address",
          "name": "",
          "type": "address"
        }
      ],
      "stateMutability": "view",
      "type": "function"
    },
    {
      "inputs": [
        {
          "internalType": "uint256",
          "name": "",
          "type": "uint256"
        }
      ],
      "name": "horses",
      "outputs": [
        {
          "internalType": "string",
          "name": "name",
          "type": "string"
        },
        {
          "internalType": "uint256",
          "name": "hb1",
          "type": "uint256"
        },
        {
          "internalType": "uint256",
          "name": "hb2",
          "type": "uint256"
        },
        {
          "internalType": "uint256",
          "name": "hb3",
          "type": "uint256"
        },
        {
          "components": [
            {
              "internalType": "uint256",
              "name": "dna",
              "type": "uint256"
            },
            {
              "internalType": "uint256",
              "name": "dad",
              "type": "uint256"
            },
            {
              "internalType": "uint256",
              "name": "mom",
              "type": "uint256"
            },
            {
              "internalType": "uint256",
              "name": "birthdate",
              "type": "uint256"
            },
            {
              "internalType": "uint256",
              "name": "generation",
              "type": "uint256"
            }
          ],
          "internalType": "struct Horses.StatsGen",
          "name": "statsGen",
          "type": "tuple"
        },
        {
          "components": [
            {
              "internalType": "uint256",
              "name": "_hb1",
              "type": "uint256"
            },
            {
              "internalType": "uint256",
              "name": "_hb2",
              "type": "uint256"
            },
            {
              "internalType": "uint256",
              "name": "_hb3",
              "type": "uint256"
            },
            {
              "internalType": "uint256",
              "name": "lastfed",
              "type": "uint256"
            },
            {
              "internalType": "uint256",
              "name": "health",
              "type": "uint256"
            },
            {
              "internalType": "uint256",
              "name": "racelimit",
              "type": "uint256"
            },
            {
              "internalType": "uint256",
              "name": "monta",
              "type": "uint256"
            }
          ],
          "internalType": "struct Horses.Stats",
          "name": "stats",
          "type": "tuple"
        },
        {
          "components": [
            {
              "internalType": "uint256",
              "name": "winners",
              "type": "uint256"
            },
            {
              "internalType": "uint256",
              "name": "continues",
              "type": "uint256"
            },
            {
              "internalType": "uint256",
              "name": "skill",
              "type": "uint256"
            },
            {
              "internalType": "uint256",
              "name": "lastrace",
              "type": "uint256"
            },
            {
              "internalType": "bool",
              "name": "claim",
              "type": "bool"
            },
            {
              "internalType": "uint256[]",
              "name": "raced",
              "type": "uint256[]"
            }
          ],
          "internalType": "struct Horses.Races",
          "name": "races",
          "type": "tuple"
        }
      ],
      "stateMutability": "view",
      "type": "function"
    },
    {
      "inputs": [
        {
          "internalType": "address",
          "name": "owner",
          "type": "address"
        },
        {
          "internalType": "address",
          "name": "operator",
          "type": "address"
        }
      ],
      "name": "isApprovedForAll",
      "outputs": [
        {
          "internalType": "bool",
          "name": "",
          "type": "bool"
        }
      ],
      "stateMutability": "view",
      "type": "function"
    },
    {
      "inputs": [],
      "name": "maxSupplyLv1",
      "outputs": [
        {
          "internalType": "uint256",
          "name": "",
          "type": "uint256"
        }
      ],
      "stateMutability": "view",
      "type": "function"
    },
    {
      "inputs": [],
      "name": "maxSupplyLv2",
      "outputs": [
        {
          "internalType": "uint256",
          "name": "",
          "type": "uint256"
        }
      ],
      "stateMutability": "view",
      "type": "function"
    },
    {
      "inputs": [],
      "name": "maxSupplyLv3",
      "outputs": [
        {
          "internalType": "uint256",
          "name": "",
          "type": "uint256"
        }
      ],
      "stateMutability": "view",
      "type": "function"
    },
    {
      "inputs": [],
      "name": "maxSupplyLv4",
      "outputs": [
        {
          "internalType": "uint256",
          "name": "",
          "type": "uint256"
        }
      ],
      "stateMutability": "view",
      "type": "function"
    },
    {
      "inputs": [],
      "name": "maxSupplyLv5",
      "outputs": [
        {
          "internalType": "uint256",
          "name": "",
          "type": "uint256"
        }
      ],
      "stateMutability": "view",
      "type": "function"
    },
    {
      "inputs": [],
      "name": "maxSupplyLv6",
      "outputs": [
        {
          "internalType": "uint256",
          "name": "",
          "type": "uint256"
        }
      ],
      "stateMutability": "view",
      "type": "function"
    },
    {
      "inputs": [],
      "name": "name",
      "outputs": [
        {
          "internalType": "string",
          "name": "",
          "type": "string"
        }
      ],
      "stateMutability": "view",
      "type": "function"
    },
    {
      "inputs": [],
      "name": "owner",
      "outputs": [
        {
          "internalType": "address",
          "name": "",
          "type": "address"
        }
      ],
      "stateMutability": "view",
      "type": "function"
    },
    {
      "inputs": [
        {
          "internalType": "uint256",
          "name": "tokenId",
          "type": "uint256"
        }
      ],
      "name": "ownerOf",
      "outputs": [
        {
          "internalType": "address",
          "name": "",
          "type": "address"
        }
      ],
      "stateMutability": "view",
      "type": "function"
    },
    {
      "inputs": [],
      "name": "pause",
      "outputs": [],
      "stateMutability": "nonpayable",
      "type": "function"
    },
    {
      "inputs": [],
      "name": "paused",
      "outputs": [
        {
          "internalType": "bool",
          "name": "",
          "type": "bool"
        }
      ],
      "stateMutability": "view",
      "type": "function"
    },
    {
      "inputs": [],
      "name": "renounceOwnership",
      "outputs": [],
      "stateMutability": "nonpayable",
      "type": "function"
    },
    {
      "inputs": [
        {
          "internalType": "string",
          "name": "_name",
          "type": "string"
        }
      ],
      "name": "safeMint",
      "outputs": [],
      "stateMutability": "payable",
      "type": "function"
    },
    {
      "inputs": [
        {
          "internalType": "address",
          "name": "from",
          "type": "address"
        },
        {
          "internalType": "address",
          "name": "to",
          "type": "address"
        },
        {
          "internalType": "uint256",
          "name": "tokenId",
          "type": "uint256"
        }
      ],
      "name": "safeTransferFrom",
      "outputs": [],
      "stateMutability": "nonpayable",
      "type": "function"
    },
    {
      "inputs": [
        {
          "internalType": "address",
          "name": "from",
          "type": "address"
        },
        {
          "internalType": "address",
          "name": "to",
          "type": "address"
        },
        {
          "internalType": "uint256",
          "name": "tokenId",
          "type": "uint256"
        },
        {
          "internalType": "bytes",
          "name": "_data",
          "type": "bytes"
        }
      ],
      "name": "safeTransferFrom",
      "outputs": [],
      "stateMutability": "nonpayable",
      "type": "function"
    },
    {
      "inputs": [
        {
          "internalType": "address",
          "name": "operator",
          "type": "address"
        },
        {
          "internalType": "bool",
          "name": "approved",
          "type": "bool"
        }
      ],
      "name": "setApprovalForAll",
      "outputs": [],
      "stateMutability": "nonpayable",
      "type": "function"
    },
    {
      "inputs": [],
      "name": "suplylvl1",
      "outputs": [
        {
          "internalType": "uint256",
          "name": "",
          "type": "uint256"
        }
      ],
      "stateMutability": "view",
      "type": "function"
    },
    {
      "inputs": [],
      "name": "suplylvl2",
      "outputs": [
        {
          "internalType": "uint256",
          "name": "",
          "type": "uint256"
        }
      ],
      "stateMutability": "view",
      "type": "function"
    },
    {
      "inputs": [],
      "name": "suplylvl3",
      "outputs": [
        {
          "internalType": "uint256",
          "name": "",
          "type": "uint256"
        }
      ],
      "stateMutability": "view",
      "type": "function"
    },
    {
      "inputs": [],
      "name": "suplylvl4",
      "outputs": [
        {
          "internalType": "uint256",
          "name": "",
          "type": "uint256"
        }
      ],
      "stateMutability": "view",
      "type": "function"
    },
    {
      "inputs": [],
      "name": "suplylvl5",
      "outputs": [
        {
          "internalType": "uint256",
          "name": "",
          "type": "uint256"
        }
      ],
      "stateMutability": "view",
      "type": "function"
    },
    {
      "inputs": [
        {
          "internalType": "bytes4",
          "name": "interfaceId",
          "type": "bytes4"
        }
      ],
      "name": "supportsInterface",
      "outputs": [
        {
          "internalType": "bool",
          "name": "",
          "type": "bool"
        }
      ],
      "stateMutability": "view",
      "type": "function"
    },
    {
      "inputs": [],
      "name": "symbol",
      "outputs": [
        {
          "internalType": "string",
          "name": "",
          "type": "string"
        }
      ],
      "stateMutability": "view",
      "type": "function"
    },
    {
      "inputs": [
        {
          "internalType": "uint256",
          "name": "index",
          "type": "uint256"
        }
      ],
      "name": "tokenByIndex",
      "outputs": [
        {
          "internalType": "uint256",
          "name": "",
          "type": "uint256"
        }
      ],
      "stateMutability": "view",
      "type": "function"
    },
    {
      "inputs": [
        {
          "internalType": "address",
          "name": "owner",
          "type": "address"
        },
        {
          "internalType": "uint256",
          "name": "index",
          "type": "uint256"
        }
      ],
      "name": "tokenOfOwnerByIndex",
      "outputs": [
        {
          "internalType": "uint256",
          "name": "",
          "type": "uint256"
        }
      ],
      "stateMutability": "view",
      "type": "function"
    },
    {
      "inputs": [
        {
          "internalType": "uint256",
          "name": "tokenId",
          "type": "uint256"
        }
      ],
      "name": "tokenURI",
      "outputs": [
        {
          "internalType": "string",
          "name": "",
          "type": "string"
        }
      ],
      "stateMutability": "view",
      "type": "function"
    },
    {
      "inputs": [],
      "name": "totalSupply",
      "outputs": [
        {
          "internalType": "uint256",
          "name": "",
          "type": "uint256"
        }
      ],
      "stateMutability": "view",
      "type": "function"
    },
    {
      "inputs": [
        {
          "internalType": "address",
          "name": "from",
          "type": "address"
        },
        {
          "internalType": "address",
          "name": "to",
          "type": "address"
        },
        {
          "internalType": "uint256",
          "name": "tokenId",
          "type": "uint256"
        }
      ],
      "name": "transferFrom",
      "outputs": [],
      "stateMutability": "nonpayable",
      "type": "function"
    },
    {
      "inputs": [
        {
          "internalType": "address",
          "name": "newOwner",
          "type": "address"
        }
      ],
      "name": "transferOwnership",
      "outputs": [],
      "stateMutability": "nonpayable",
      "type": "function"
    },
    {
      "inputs": [],
      "name": "unpause",
      "outputs": [],
      "stateMutability": "nonpayable",
      "type": "function"
    },
    {
      "inputs": [
        {
          "internalType": "string",
          "name": "name_",
          "type": "string"
        },
        {
          "internalType": "uint256",
          "name": "_maxTickets",
          "type": "uint256"
        },
        {
          "internalType": "uint256",
          "name": "_minWinners",
          "type": "uint256"
        },
        {
          "internalType": "uint256",
          "name": "_maxWinners",
          "type": "uint256"
        },
        {
          "internalType": "uint256",
          "name": "_w_continues",
          "type": "uint256"
        }
      ],
      "name": "createrace",
      "outputs": [],
      "stateMutability": "nonpayable",
      "type": "function"
    },
    {
      "inputs": [
        {
          "internalType": "uint256",
          "name": "_race",
          "type": "uint256"
        },
        {
          "internalType": "uint256",
          "name": "_tokenId",
          "type": "uint256"
        }
      ],
      "name": "listhorse",
      "outputs": [],
      "stateMutability": "payable",
      "type": "function"
    },
    {
      "inputs": [
        {
          "internalType": "uint256",
          "name": "race_",
          "type": "uint256"
        }
      ],
      "name": "claimRewards",
      "outputs": [],
      "stateMutability": "nonpayable",
      "type": "function"
    },
    {
      "inputs": [
        {
          "internalType": "uint256",
          "name": "race_",
          "type": "uint256"
        },
        {
          "internalType": "uint256",
          "name": "tokenid_",
          "type": "uint256"
        }
      ],
      "name": "gListhorse",
      "outputs": [
        {
          "internalType": "uint256",
          "name": "inscritos",
          "type": "uint256"
        },
        {
          "internalType": "uint256",
          "name": "tk_id",
          "type": "uint256"
        }
      ],
      "stateMutability": "view",
      "type": "function"
    },
    {
      "inputs": [
        {
          "internalType": "uint256",
          "name": "race_",
          "type": "uint256"
        },
        {
          "internalType": "uint256",
          "name": "tokenid_",
          "type": "uint256"
        }
      ],
      "name": "gRResultados",
      "outputs": [
        {
          "internalType": "uint256",
          "name": "Tk_id",
          "type": "uint256"
        },
        {
          "internalType": "uint256",
          "name": "Score",
          "type": "uint256"
        },
        {
          "internalType": "uint256",
          "name": "additional",
          "type": "uint256"
        },
        {
          "internalType": "uint256",
          "name": "Mult1",
          "type": "uint256"
        },
        {
          "internalType": "uint256",
          "name": "Mult2",
          "type": "uint256"
        },
        {
          "internalType": "uint256",
          "name": "Pts",
          "type": "uint256"
        }
      ],
      "stateMutability": "view",
      "type": "function"
    },
    {
      "inputs": [
        {
          "internalType": "uint256",
          "name": "race_",
          "type": "uint256"
        }
      ],
      "name": "getRHorsesLenght",
      "outputs": [
        {
          "internalType": "uint256",
          "name": "length",
          "type": "uint256"
        }
      ],
      "stateMutability": "view",
      "type": "function"
    },
    {
      "inputs": [
        {
          "internalType": "uint256",
          "name": "idrace_",
          "type": "uint256"
        }
      ],
      "name": "getRace",
      "outputs": [
        {
          "internalType": "string",
          "name": "name",
          "type": "string"
        },
        {
          "internalType": "uint256",
          "name": "ganadores",
          "type": "uint256"
        },
        {
          "internalType": "uint256",
          "name": "Inscritos",
          "type": "uint256"
        }
      ],
      "stateMutability": "view",
      "type": "function"
    }
  ],
  "bytecode": "0x6080604052600e600c55600c54600a6200001a9190620003f3565b600d556002600e556004600f556004600e54600a6200003a9190620003f3565b62000046919062000360565b601055600e54600a6200005a9190620003f3565b601155600f54600a6200006e9190620003f3565b6012556000601355674563918244f400006014556729a2241af62c0000601555671bc16d674ec80000601655670de0b6b3a76400006017556706f05b59d3b2000060185560026019556003601a556005601b556005601c556005601d556005601e556000601f5560006020556000602155600060225560006023556000602655600a6027553480156200010057600080fd5b506040518060400160405280600781526020017f4d79546f6b656e000000000000000000000000000000000000000000000000008152506040518060400160405280600381526020017f4d544b0000000000000000000000000000000000000000000000000000000000815250816000908051906020019062000185929190620002b0565b5080600190805190602001906200019e929190620002b0565b5050506000600b60006101000a81548160ff021916908315150217905550620001dc620001d0620001e260201b60201c565b620001ea60201b60201c565b6200060a565b600033905090565b6000600b60019054906101000a900473ffffffffffffffffffffffffffffffffffffffff16905081600b60016101000a81548173ffffffffffffffffffffffffffffffffffffffff021916908373ffffffffffffffffffffffffffffffffffffffff1602179055508173ffffffffffffffffffffffffffffffffffffffff168173ffffffffffffffffffffffffffffffffffffffff167f8be0079c531659141344cd1fd0a4f28419497f9722a3daafe3b4186f6b6457e060405160405180910390a35050565b828054620002be906200053a565b90600052602060002090601f016020900481019282620002e257600085556200032e565b82601f10620002fd57805160ff19168380011785556200032e565b828001600101855582156200032e579182015b828111156200032d57825182559160200191906001019062000310565b5b5090506200033d919062000341565b5090565b5b808211156200035c57600081600090555060010162000342565b5090565b60006200036d8262000530565b91506200037a8362000530565b9250826200038d576200038c6200059f565b5b828204905092915050565b6000808291508390505b6001851115620003ea57808604811115620003c257620003c162000570565b5b6001851615620003d25780820291505b8081029050620003e285620005fd565b9450620003a2565b94509492505050565b6000620004008262000530565b91506200040d8362000530565b92506200043c7fffffffffffffffffffffffffffffffffffffffffffffffffffffffffffffffff848462000444565b905092915050565b60008262000456576001905062000529565b8162000466576000905062000529565b81600181146200047f57600281146200048a57620004c0565b600191505062000529565b60ff8411156200049f576200049e62000570565b5b8360020a915084821115620004b957620004b862000570565b5b5062000529565b5060208310610133831016604e8410600b8410161715620004fa5782820a905083811115620004f457620004f362000570565b5b62000529565b62000509848484600162000398565b9250905081840481111562000523576200052262000570565b5b81810290505b9392505050565b6000819050919050565b600060028204905060018216806200055357607f821691505b602082108114156200056a5762000569620005ce565b5b50919050565b7f4e487b7100000000000000000000000000000000000000000000000000000000600052601160045260246000fd5b7f4e487b7100000000000000000000000000000000000000000000000000000000600052601260045260246000fd5b7f4e487b7100000000000000000000000000000000000000000000000000000000600052602260045260246000fd5b60008160011c9050919050565b616509806200061a6000396000f3fe6080604052600436106102ae5760003560e01c80636352211e11610175578063aaa6dabb116100dc578063ca65cc5311610095578063e0fdea261161006f578063e0fdea2614610afc578063e985e9c514610b39578063ecb9bce614610b76578063f2fde38b14610ba1576102ae565b8063ca65cc5314610a63578063d570bb6914610aa6578063dacbbb5e14610ad1576102ae565b8063aaa6dabb14610927578063ab80048e14610968578063b88d4fde146109a7578063b95b0975146109d0578063c25b05b4146109fb578063c87b56dd14610a26576102ae565b80638f8b5cde1161012e5780638f8b5cde146107f857806395d89b411461083b5780639881af30146108665780639b1a65c1146108a8578063a0c4cd0e146108d3578063a22cb465146108fe576102ae565b80636352211e14610709578063695850fb1461074657806370a0823114610762578063715018a61461079f5780638456cb59146107b65780638da5cb5b146107cd576102ae565b80632f745c591161021957806342966c68116101d257806342966c68146105e75780634b2fbf52146106105780634d1d86121461064d5780634f63c0a1146106785780634f6ccce7146106a15780635c975abb146106de576102ae565b80632f745c59146104d65780633902fc7c146105135780633a34822e1461053e5780633c76c2ed146105695780633f4ba83a146105a757806342842e0e146105be576102ae565b806311b6dfc61161026b57806311b6dfc6146103e95780631315904a1461040557806318160ddd1461042e5780631e822def1461045957806323b872dd1461048257806323e7d3ce146104ab576102ae565b806301ffc9a7146102b357806306fdde03146102f0578063081812fc1461031b578063095ea7b3146103585780630962ef79146103815780630d71aba5146103aa575b600080fd5b3480156102bf57600080fd5b506102da60048036038101906102d59190614982565b610bca565b6040516102e791906152e4565b60405180910390f35b3480156102fc57600080fd5b50610305610bdc565b60405161031291906152ff565b60405180910390f35b34801561032757600080fd5b50610342600480360381019061033d9190614abc565b610c6e565b60405161034f919061525b565b60405180910390f35b34801561036457600080fd5b5061037f600480360381019061037a9190614942565b610cf3565b005b34801561038d57600080fd5b506103a860048036038101906103a39190614abc565b610e0b565b005b3480156103b657600080fd5b506103d160048036038101906103cc9190614abc565b610f99565b6040516103e093929190615321565b60405180910390f35b61040360048036038101906103fe9190614ae9565b611292565b005b34801561041157600080fd5b5061042c60048036038101906104279190614abc565b6113aa565b005b34801561043a57600080fd5b506104436114bd565b60405161045091906157a4565b60405180910390f35b34801561046557600080fd5b50610480600480360381019061047b9190614a25565b6114ca565b005b34801561048e57600080fd5b506104a960048036038101906104a4919061482c565b6115b9565b005b3480156104b757600080fd5b506104c0611619565b6040516104cd91906157a4565b60405180910390f35b3480156104e257600080fd5b506104fd60048036038101906104f89190614942565b61161f565b60405161050a91906157a4565b60405180910390f35b34801561051f57600080fd5b506105286116c4565b60405161053591906157a4565b60405180910390f35b34801561054a57600080fd5b506105536116ca565b60405161056091906157a4565b60405180910390f35b34801561057557600080fd5b50610590600480360381019061058b9190614ae9565b6116d0565b60405161059e9291906157bf565b60405180910390f35b3480156105b357600080fd5b506105bc611732565b005b3480156105ca57600080fd5b506105e560048036038101906105e0919061482c565b6117b8565b005b3480156105f357600080fd5b5061060e60048036038101906106099190614abc565b6117d8565b005b34801561061c57600080fd5b5061063760048036038101906106329190614ae9565b611834565b60405161064491906152c2565b60405180910390f35b34801561065957600080fd5b506106626118bb565b60405161066f91906157a4565b60405180910390f35b34801561068457600080fd5b5061069f600480360381019061069a9190614abc565b6118c1565b005b3480156106ad57600080fd5b506106c860048036038101906106c39190614abc565b611975565b6040516106d591906157a4565b60405180910390f35b3480156106ea57600080fd5b506106f36119e6565b60405161070091906152e4565b60405180910390f35b34801561071557600080fd5b50610730600480360381019061072b9190614abc565b6119fd565b60405161073d919061525b565b60405180910390f35b610760600480360381019061075b91906149dc565b611aaf565b005b34801561076e57600080fd5b50610789600480360381019061078491906147bf565b611af3565b60405161079691906157a4565b60405180910390f35b3480156107ab57600080fd5b506107b4611bab565b005b3480156107c257600080fd5b506107cb611c33565b005b3480156107d957600080fd5b506107e2611cb9565b6040516107ef919061525b565b60405180910390f35b34801561080457600080fd5b5061081f600480360381019061081a9190614abc565b611ce3565b604051610832979695949392919061535f565b60405180910390f35b34801561084757600080fd5b50610850611eee565b60405161085d91906152ff565b60405180910390f35b34801561087257600080fd5b5061088d60048036038101906108889190614ae9565b611f80565b60405161089f96959493929190615872565b60405180910390f35b3480156108b457600080fd5b506108bd6120cb565b6040516108ca91906157a4565b60405180910390f35b3480156108df57600080fd5b506108e86120d1565b6040516108f591906157a4565b60405180910390f35b34801561090a57600080fd5b5061092560048036038101906109209190614902565b6120d7565b005b34801561093357600080fd5b5061094e60048036038101906109499190614abc565b6120ed565b60405161095f95949392919061581f565b60405180910390f35b34801561097457600080fd5b5061098f600480360381019061098a9190614abc565b6121d5565b60405161099e939291906157e8565b60405180910390f35b3480156109b357600080fd5b506109ce60048036038101906109c9919061487f565b612262565b005b3480156109dc57600080fd5b506109e56122c4565b6040516109f291906157a4565b60405180910390f35b348015610a0757600080fd5b50610a106122ca565b604051610a1d91906157a4565b60405180910390f35b348015610a3257600080fd5b50610a4d6004803603810190610a489190614abc565b6122d0565b604051610a5a91906152ff565b60405180910390f35b348015610a6f57600080fd5b50610a8a6004803603810190610a859190614abc565b6122e2565b604051610a9d97969594939291906158d3565b60405180910390f35b348015610ab257600080fd5b50610abb612364565b604051610ac891906157a4565b60405180910390f35b348015610add57600080fd5b50610ae661236a565b604051610af391906157a4565b60405180910390f35b348015610b0857600080fd5b50610b236004803603810190610b1e9190614abc565b612370565b604051610b3091906157a4565b60405180910390f35b348015610b4557600080fd5b50610b606004803603810190610b5b91906147ec565b61239e565b604051610b6d91906152e4565b60405180910390f35b348015610b8257600080fd5b50610b8b612432565b604051610b9891906157a4565b60405180910390f35b348015610bad57600080fd5b50610bc86004803603810190610bc391906147bf565b612438565b005b6000610bd582612530565b9050919050565b606060008054610beb90615bc7565b80601f0160208091040260200160405190810160405280929190818152602001828054610c1790615bc7565b8015610c645780601f10610c3957610100808354040283529160200191610c64565b820191906000526020600020905b815481529060010190602001808311610c4757829003601f168201915b5050505050905090565b6000610c79826125aa565b610cb8576040517f08c379a0000000000000000000000000000000000000000000000000000000008152600401610caf90615684565b60405180910390fd5b6004600083815260200190815260200160002060009054906101000a900473ffffffffffffffffffffffffffffffffffffffff169050919050565b6000610cfe826119fd565b90508073ffffffffffffffffffffffffffffffffffffffff168373ffffffffffffffffffffffffffffffffffffffff161415610d6f576040517f08c379a0000000000000000000000000000000000000000000000000000000008152600401610d66906156e4565b60405180910390fd5b8073ffffffffffffffffffffffffffffffffffffffff16610d8e612616565b73ffffffffffffffffffffffffffffffffffffffff161480610dbd5750610dbc81610db7612616565b61239e565b5b610dfc576040517f08c379a0000000000000000000000000000000000000000000000000000000008152600401610df3906155c4565b60405180910390fd5b610e06838361261e565b505050565b6000602860008381526020019081526020016000209050600060018260060180549050610e389190615add565b905060005b818111610f93576000836007018281548110610e5c57610e5b615d6a565b5b90600052602060002090600b02016000015490506000846007018381548110610e8857610e87615d6a565b5b90600052602060002090600b02016006015490506000808590505b85821015610f50576000876007018381548110610ec357610ec2615d6a565b5b90600052602060002090600b02016000015490506000886007018481548110610eef57610eee615d6a565b5b90600052602060002090600b0201600601549050848111610f3b578481148015610f1857508582115b15610f2c57600183610f2a9190615add565b505b600183610f399190615add565b505b8380610f4690615c2a565b9450505050610ea3565b80876007018381548110610f6757610f66615d6a565b5b90600052602060002090600b020160080181905550505050508080610f8b90615c2a565b915050610e3d565b50505050565b606060008060006028600086815260200190815260200160002060405180610140016040529081600082018054610fcf90615bc7565b80601f0160208091040260200160405190810160405280929190818152602001828054610ffb90615bc7565b80156110485780601f1061101d57610100808354040283529160200191611048565b820191906000526020600020905b81548152906001019060200180831161102b57829003601f168201915b5050505050815260200160018201548152602001600282015481526020016003820154815260200160048201548152602001600582018054806020026020016040519081016040528092919081815260200182805480156110c857602002820191906000526020600020905b8154815260200190600101908083116110b4575b5050505050815260200160068201805480602002602001604051908101604052809291908181526020016000905b8282101561118857838290600052602060002090600202016040518060400160405290816000820160009054906101000a900473ffffffffffffffffffffffffffffffffffffffff1673ffffffffffffffffffffffffffffffffffffffff1673ffffffffffffffffffffffffffffffffffffffff168152602001600182015481525050815260200190600101906110f6565b50505050815260200160078201805480602002602001604051908101604052809291908181526020016000905b8282101561125657838290600052602060002090600b02016040518061016001604052908160008201548152602001600182015481526020016002820154815260200160038201548152602001600482015481526020016005820154815260200160068201548152602001600782015481526020016008820154815260200160098201548152602001600a82015481525050815260200190600101906111b5565b505050508152602001600882015481526020016009820154815250509050806000015181606001518260c0015151935093509350509193909250565b60006028600084815260200190815260200160002090506000600182600601805490506112bf9190615a56565b90506000826001015490508082111561130d576040517f08c379a000000000000000000000000000000000000000000000000000000000815260040161130490615704565b60405180910390fd5b6000611318856119fd565b90508073ffffffffffffffffffffffffffffffffffffffff16611339612616565b73ffffffffffffffffffffffffffffffffffffffff161461138f576040517f08c379a0000000000000000000000000000000000000000000000000000000008152600401611386906155e4565b60405180910390fd5b611398856126d7565b6113a28587612789565b505050505050565b6113b2612616565b73ffffffffffffffffffffffffffffffffffffffff166113d0611cb9565b73ffffffffffffffffffffffffffffffffffffffff1614611426576040517f08c379a000000000000000000000000000000000000000000000000000000000815260040161141d906156a4565b60405180910390fd5b426024828154811061143b5761143a615d6a565b5b90600052602060002090601602016009016003018190555060006024828154811061146957611468615d6a565b5b906000526020600020906016020160090160040154905060058161148d9190615a56565b602483815481106114a1576114a0615d6a565b5b9060005260206000209060160201600901600401819055505050565b6000600880549050905090565b6114d2612616565b73ffffffffffffffffffffffffffffffffffffffff166114f0611cb9565b73ffffffffffffffffffffffffffffffffffffffff1614611546576040517f08c379a000000000000000000000000000000000000000000000000000000000815260040161153d906156a4565b60405180910390fd5b60016026546115559190615a56565b602681905550600060286000602654815260200190815260200160002090508581600001908051906020019061158c929190614546565b50848160010181905550838160020181905550828160030181905550818160040181905550505050505050565b6115ca6115c4612616565b82612850565b611609576040517f08c379a000000000000000000000000000000000000000000000000000000000815260040161160090615724565b60405180910390fd5b61161483838361292e565b505050565b601e5481565b600061162a83611af3565b821061166b576040517f08c379a000000000000000000000000000000000000000000000000000000000815260040161166290615484565b60405180910390fd5b600660008473ffffffffffffffffffffffffffffffffffffffff1673ffffffffffffffffffffffffffffffffffffffff168152602001908152602001600020600083815260200190815260200160002054905092915050565b601b5481565b60195481565b6000806000602860008681526020019081526020016000209050600081600601858154811061170257611701615d6a565b5b90600052602060002090600202016001015490506000826006018054905090508082945094505050509250929050565b61173a612616565b73ffffffffffffffffffffffffffffffffffffffff16611758611cb9565b73ffffffffffffffffffffffffffffffffffffffff16146117ae576040517f08c379a00000000000000000000000000000000000000000000000000000000081526004016117a5906156a4565b60405180910390fd5b6117b6612b95565b565b6117d383838360405180602001604052806000815250612262565b505050565b6117e96117e3612616565b82612850565b611828576040517f08c379a000000000000000000000000000000000000000000000000000000000815260040161181f90615784565b60405180910390fd5b61183181612c37565b50565b606060006024848154811061184c5761184b615d6a565b5b90600052602060002090601602019050806010016005018054806020026020016040519081016040528092919081815260200182805480156118ad57602002820191906000526020600020905b815481526020019060010190808311611899575b505050505091505092915050565b60225481565b60006118cc826119fd565b90508073ffffffffffffffffffffffffffffffffffffffff166118ed612616565b73ffffffffffffffffffffffffffffffffffffffff1614611943576040517f08c379a000000000000000000000000000000000000000000000000000000000815260040161193a906155e4565b60405180910390fd5b60056024838154811061195957611958615d6a565b5b9060005260206000209060160201600901600001819055505050565b600061197f6114bd565b82106119c0576040517f08c379a00000000000000000000000000000000000000000000000000000000081526004016119b790615744565b60405180910390fd5b600882815481106119d4576119d3615d6a565b5b90600052602060002001549050919050565b6000600b60009054906101000a900460ff16905090565b6000806002600084815260200190815260200160002060009054906101000a900473ffffffffffffffffffffffffffffffffffffffff169050600073ffffffffffffffffffffffffffffffffffffffff168173ffffffffffffffffffffffffffffffffffffffff161415611aa6576040517f08c379a0000000000000000000000000000000000000000000000000000000008152600401611a9d90615624565b60405180910390fd5b80915050919050565b60003490506000611abf82612c43565b90506000611acd6025612ea2565b9050611ad96025612eb0565b611ae33382612ec6565b611aed8483612ee4565b50505050565b60008073ffffffffffffffffffffffffffffffffffffffff168273ffffffffffffffffffffffffffffffffffffffff161415611b64576040517f08c379a0000000000000000000000000000000000000000000000000000000008152600401611b5b90615604565b60405180910390fd5b600360008373ffffffffffffffffffffffffffffffffffffffff1673ffffffffffffffffffffffffffffffffffffffff168152602001908152602001600020549050919050565b611bb3612616565b73ffffffffffffffffffffffffffffffffffffffff16611bd1611cb9565b73ffffffffffffffffffffffffffffffffffffffff1614611c27576040517f08c379a0000000000000000000000000000000000000000000000000000000008152600401611c1e906156a4565b60405180910390fd5b611c3160006132c8565b565b611c3b612616565b73ffffffffffffffffffffffffffffffffffffffff16611c59611cb9565b73ffffffffffffffffffffffffffffffffffffffff1614611caf576040517f08c379a0000000000000000000000000000000000000000000000000000000008152600401611ca6906156a4565b60405180910390fd5b611cb761338e565b565b6000600b60019054906101000a900473ffffffffffffffffffffffffffffffffffffffff16905090565b60248181548110611cf357600080fd5b9060005260206000209060160201600091509050806000018054611d1690615bc7565b80601f0160208091040260200160405190810160405280929190818152602001828054611d4290615bc7565b8015611d8f5780601f10611d6457610100808354040283529160200191611d8f565b820191906000526020600020905b815481529060010190602001808311611d7257829003601f168201915b505050505090806001015490806002015490806003015490806004016040518060a00160405290816000820154815260200160018201548152602001600282015481526020016003820154815260200160048201548152505090806009016040518060e001604052908160008201548152602001600182015481526020016002820154815260200160038201548152602001600482015481526020016005820154815260200160068201548152505090806010016040518060c0016040529081600082015481526020016001820154815260200160028201548152602001600382015481526020016004820160009054906101000a900460ff1615151515815260200160058201805480602002602001604051908101604052809291908181526020018280548015611ee057602002820191906000526020600020905b815481526020019060010190808311611ecc575b505050505081525050905087565b606060018054611efd90615bc7565b80601f0160208091040260200160405190810160405280929190818152602001828054611f2990615bc7565b8015611f765780601f10611f4b57610100808354040283529160200191611f76565b820191906000526020600020905b815481529060010190602001808311611f5957829003601f168201915b5050505050905090565b6000806000806000806000602860008a815260200190815260200160002090506000816007018981548110611fb857611fb7615d6a565b5b90600052602060002090600b02016000015490506000826007018a81548110611fe457611fe3615d6a565b5b90600052602060002090600b02016001015490506000836007018b815481106120105761200f615d6a565b5b90600052602060002090600b02016002015490506000846007018c8154811061203c5761203b615d6a565b5b90600052602060002090600b02016003015490506000856007018d8154811061206857612067615d6a565b5b90600052602060002090600b02016004015490506000866007018e8154811061209457612093615d6a565b5b90600052602060002090600b02016006015490508585858585859c509c509c509c509c509c50505050505050509295509295509295565b601c5481565b60235481565b6120e96120e2612616565b8383613431565b5050565b60008060008060006024868154811061210957612108615d6a565b5b90600052602060002090601602016004016000015494506024868154811061213457612133615d6a565b5b90600052602060002090601602016004016001015493506024868154811061215f5761215e615d6a565b5b90600052602060002090601602016004016002015492506024868154811061218a57612189615d6a565b5b9060005260206000209060160201600401600301549150602486815481106121b5576121b4615d6a565b5b906000526020600020906016020160040160040154905091939590929450565b6000806000602484815481106121ee576121ed615d6a565b5b90600052602060002090601602016010016000015492506024848154811061221957612218615d6a565b5b90600052602060002090601602016010016001015491506024848154811061224457612243615d6a565b5b90600052602060002090601602016010016002015490509193909250565b61227361226d612616565b83612850565b6122b2576040517f08c379a00000000000000000000000000000000000000000000000000000000081526004016122a990615724565b60405180910390fd5b6122be8484848461359e565b50505050565b60215481565b60205481565b60606122db826135fa565b9050919050565b6000806000806000806000806024898154811061230257612301615d6a565b5b906000526020600020906016020190508060090160000154816009016001015482600901600201548360090160030154846009016004015485600901600501548660090160060154975097509750975097509750975050919395979092949650565b601f5481565b601d5481565b6000806028600084815260200190815260200160002090506000816006018054905090508092505050919050565b6000600560008473ffffffffffffffffffffffffffffffffffffffff1673ffffffffffffffffffffffffffffffffffffffff16815260200190815260200160002060008373ffffffffffffffffffffffffffffffffffffffff1673ffffffffffffffffffffffffffffffffffffffff16815260200190815260200160002060009054906101000a900460ff16905092915050565b601a5481565b612440612616565b73ffffffffffffffffffffffffffffffffffffffff1661245e611cb9565b73ffffffffffffffffffffffffffffffffffffffff16146124b4576040517f08c379a00000000000000000000000000000000000000000000000000000000081526004016124ab906156a4565b60405180910390fd5b600073ffffffffffffffffffffffffffffffffffffffff168173ffffffffffffffffffffffffffffffffffffffff161415612524576040517f08c379a000000000000000000000000000000000000000000000000000000000815260040161251b906154e4565b60405180910390fd5b61252d816132c8565b50565b60007f780e9d63000000000000000000000000000000000000000000000000000000007bffffffffffffffffffffffffffffffffffffffffffffffffffffffff1916827bffffffffffffffffffffffffffffffffffffffffffffffffffffffff191614806125a357506125a28261374c565b5b9050919050565b60008073ffffffffffffffffffffffffffffffffffffffff166002600084815260200190815260200160002060009054906101000a900473ffffffffffffffffffffffffffffffffffffffff1673ffffffffffffffffffffffffffffffffffffffff1614159050919050565b600033905090565b816004600083815260200190815260200160002060006101000a81548173ffffffffffffffffffffffffffffffffffffffff021916908373ffffffffffffffffffffffffffffffffffffffff160217905550808273ffffffffffffffffffffffffffffffffffffffff16612691836119fd565b73ffffffffffffffffffffffffffffffffffffffff167f8c5be1e5ebec7d5bd14f71427d1e84f3dd0314c0f7b2291e5b200ac8c7c3b92560405160405180910390a45050565b6000602482815481106126ed576126ec615d6a565b5b906000526020600020906016020160100160030154905060006078826127139190615a56565b9050428110612757576040517f08c379a000000000000000000000000000000000000000000000000000000000815260040161274e90615764565b60405180910390fd5b426024848154811061276c5761276b615d6a565b5b906000526020600020906016020160100160030181905550505050565b60006028600083815260200190815260200160002090508060060160405180604001604052803373ffffffffffffffffffffffffffffffffffffffff16815260200185815250908060018154018082558091505060019003906000526020600020906002020160009091909190915060008201518160000160006101000a81548173ffffffffffffffffffffffffffffffffffffffff021916908373ffffffffffffffffffffffffffffffffffffffff160217905550602082015181600101555050505050565b600061285b826125aa565b61289a576040517f08c379a000000000000000000000000000000000000000000000000000000000815260040161289190615584565b60405180910390fd5b60006128a5836119fd565b90508073ffffffffffffffffffffffffffffffffffffffff168473ffffffffffffffffffffffffffffffffffffffff16148061291457508373ffffffffffffffffffffffffffffffffffffffff166128fc84610c6e565b73ffffffffffffffffffffffffffffffffffffffff16145b806129255750612924818561239e565b5b91505092915050565b8273ffffffffffffffffffffffffffffffffffffffff1661294e826119fd565b73ffffffffffffffffffffffffffffffffffffffff16146129a4576040517f08c379a000000000000000000000000000000000000000000000000000000000815260040161299b90615504565b60405180910390fd5b600073ffffffffffffffffffffffffffffffffffffffff168273ffffffffffffffffffffffffffffffffffffffff161415612a14576040517f08c379a0000000000000000000000000000000000000000000000000000000008152600401612a0b90615544565b60405180910390fd5b612a1f83838361382e565b612a2a60008261261e565b6001600360008573ffffffffffffffffffffffffffffffffffffffff1673ffffffffffffffffffffffffffffffffffffffff1681526020019081526020016000206000828254612a7a9190615add565b925050819055506001600360008473ffffffffffffffffffffffffffffffffffffffff1673ffffffffffffffffffffffffffffffffffffffff1681526020019081526020016000206000828254612ad19190615a56565b92505081905550816002600083815260200190815260200160002060006101000a81548173ffffffffffffffffffffffffffffffffffffffff021916908373ffffffffffffffffffffffffffffffffffffffff160217905550808273ffffffffffffffffffffffffffffffffffffffff168473ffffffffffffffffffffffffffffffffffffffff167fddf252ad1be2c89b69c2b068fc378daa952ba7f163c4a11628f55a4df523b3ef60405160405180910390a4612b90838383613886565b505050565b612b9d6119e6565b612bdc576040517f08c379a0000000000000000000000000000000000000000000000000000000008152600401612bd390615464565b60405180910390fd5b6000600b60006101000a81548160ff0219169083151502179055507f5db9ee0a495bf2e6ff9c91a7834c1ba4fdd244a5e8aa4e537bd38aeae4b073aa612c20612616565b604051612c2d919061525b565b60405180910390a1565b612c408161388b565b50565b6000601454821415612cb357601f5460195411612c95576040517f08c379a0000000000000000000000000000000000000000000000000000000008152600401612c8c906154c4565b60405180910390fd5b6001601f54612ca49190615a56565b601f8190555060af9050612e9d565b601554821415612d2157602054601a5411612d03576040517f08c379a0000000000000000000000000000000000000000000000000000000008152600401612cfa906154c4565b60405180910390fd5b6001602054612d129190615a56565b60208190555060969050612e9d565b601654821415612d8f57602154601b5411612d71576040517f08c379a0000000000000000000000000000000000000000000000000000000008152600401612d68906154c4565b60405180910390fd5b6001602154612d809190615a56565b602181905550607d9050612e9d565b601754821415612dfd57602254601c5411612ddf576040517f08c379a0000000000000000000000000000000000000000000000000000000008152600401612dd6906154c4565b60405180910390fd5b6001602254612dee9190615a56565b60228190555060649050612e9d565b601854821415612e6b57602354601d5411612e4d576040517f08c379a0000000000000000000000000000000000000000000000000000000008152600401612e44906154c4565b60405180910390fd5b6001602354612e5c9190615a56565b602381905550604b9050612e9d565b6040517f2c5211c600000000000000000000000000000000000000000000000000000000815260040160405180910390fd5b919050565b600081600001549050919050565b6001816000016000828254019250508190555050565b612ee08282604051806020016040528060008152506138de565b5050565b6000612eef83613939565b90506000606490506000601960115484612f099190615c7d565b612f139190615a56565b90506000612f2086613980565b85612f2b9190615a56565b90506000612f6d6040518060400160405280600581526020017f706f6c6b61000000000000000000000000000000000000000000000000000000815250613980565b86612f789190615a56565b90506000612fba6040518060400160405280600581526020017f686f727365000000000000000000000000000000000000000000000000000000815250613980565b87612fc59190615a56565b905060006103e8600260125489612fdc9190615c7d565b612fe69190615aac565b612ff09190615a56565b905060006040518060e001604052806000815260200160008152602001600081526020014281526020016064815260200183815260200187815250905060006040518060a001604052806000815260200160008152602001600081526020014281526020016000815250905060006040518060c00160405280600081526020016000815260200160008152602001428152602001600015158152602001600067ffffffffffffffff8111156130a8576130a7615d99565b5b6040519080825280602002602001820160405280156130d65781602001602082028036833780820191505090505b50815250905060246040518060e001604052808e81526020018981526020018881526020018781526020018481526020018581526020018381525090806001815401808255809150506001900390600052602060002090601602016000909190919091506000820151816000019080519060200190613156929190614546565b506020820151816001015560408201518160020155606082015181600301556080820151816004016000820151816000015560208201518160010155604082015181600201556060820151816003015560808201518160040155505060a082015181600901600082015181600001556020820151816001015560408201518160020155606082015181600301556080820151816004015560a0820151816005015560c08201518160060155505060c0820151816010016000820151816000015560208201518160010155604082015181600201556060820151816003015560808201518160040160006101000a81548160ff02191690831515021790555060a08201518160050190805190602001906132709291906145cc565b50505050507fa1515860511710b224709a9232efcae4b1380eefe7402417c5dc9d4681cf19188c8b8989898e8a8f6040516132b29897969594939291906153df565b60405180910390a1505050505050505050505050565b6000600b60019054906101000a900473ffffffffffffffffffffffffffffffffffffffff16905081600b60016101000a81548173ffffffffffffffffffffffffffffffffffffffff021916908373ffffffffffffffffffffffffffffffffffffffff1602179055508173ffffffffffffffffffffffffffffffffffffffff168173ffffffffffffffffffffffffffffffffffffffff167f8be0079c531659141344cd1fd0a4f28419497f9722a3daafe3b4186f6b6457e060405160405180910390a35050565b6133966119e6565b156133d6576040517f08c379a00000000000000000000000000000000000000000000000000000000081526004016133cd906155a4565b60405180910390fd5b6001600b60006101000a81548160ff0219169083151502179055507f62e78cea01bee320cd4e420270b5ea74000d11b0c9f74754ebdbfc544b05a25861341a612616565b604051613427919061525b565b60405180910390a1565b8173ffffffffffffffffffffffffffffffffffffffff168373ffffffffffffffffffffffffffffffffffffffff1614156134a0576040517f08c379a000000000000000000000000000000000000000000000000000000000815260040161349790615564565b60405180910390fd5b80600560008573ffffffffffffffffffffffffffffffffffffffff1673ffffffffffffffffffffffffffffffffffffffff16815260200190815260200160002060008473ffffffffffffffffffffffffffffffffffffffff1673ffffffffffffffffffffffffffffffffffffffff16815260200190815260200160002060006101000a81548160ff0219169083151502179055508173ffffffffffffffffffffffffffffffffffffffff168373ffffffffffffffffffffffffffffffffffffffff167f17307eab39ab6107e8899845ad3d59bd9653f200f220920489ca2b5937696c318360405161359191906152e4565b60405180910390a3505050565b6135a984848461292e565b6135b5848484846139c7565b6135f4576040517f08c379a00000000000000000000000000000000000000000000000000000000081526004016135eb906154a4565b60405180910390fd5b50505050565b6060613605826125aa565b613644576040517f08c379a000000000000000000000000000000000000000000000000000000000815260040161363b90615664565b60405180910390fd5b6000600a6000848152602001908152602001600020805461366490615bc7565b80601f016020809104026020016040519081016040528092919081815260200182805461369090615bc7565b80156136dd5780601f106136b2576101008083540402835291602001916136dd565b820191906000526020600020905b8154815290600101906020018083116136c057829003601f168201915b5050505050905060006136ee613b5e565b9050600081511415613704578192505050613747565b60008251111561373957808260405160200161372192919061520f565b60405160208183030381529060405292505050613747565b61374284613b9b565b925050505b919050565b60007f80ac58cd000000000000000000000000000000000000000000000000000000007bffffffffffffffffffffffffffffffffffffffffffffffffffffffff1916827bffffffffffffffffffffffffffffffffffffffffffffffffffffffff1916148061381757507f5b5e139f000000000000000000000000000000000000000000000000000000007bffffffffffffffffffffffffffffffffffffffffffffffffffffffff1916827bffffffffffffffffffffffffffffffffffffffffffffffffffffffff1916145b80613827575061382682613c42565b5b9050919050565b6138366119e6565b15613876576040517f08c379a000000000000000000000000000000000000000000000000000000000815260040161386d906155a4565b60405180910390fd5b613881838383613cac565b505050565b505050565b61389481613dc0565b6000600a600083815260200190815260200160002080546138b490615bc7565b9050146138db57600a600082815260200190815260200160002060006138da9190614619565b5b50565b6138e88383613edd565b6138f560008484846139c7565b613934576040517f08c379a000000000000000000000000000000000000000000000000000000000815260040161392b906154a4565b60405180910390fd5b505050565b600080824260405160200161394f929190615233565b6040516020818303038152906040528051906020012060001c9050600d54816139789190615c7d565b915050919050565b6000808242604051602001613996929190615233565b6040516020818303038152906040528051906020012060001c9050601054816139bf9190615c7d565b915050919050565b60006139e88473ffffffffffffffffffffffffffffffffffffffff166140b7565b15613b51578373ffffffffffffffffffffffffffffffffffffffff1663150b7a02613a11612616565b8786866040518563ffffffff1660e01b8152600401613a339493929190615276565b602060405180830381600087803b158015613a4d57600080fd5b505af1925050508015613a7e57506040513d601f19601f82011682018060405250810190613a7b91906149af565b60015b613b01573d8060008114613aae576040519150601f19603f3d011682016040523d82523d6000602084013e613ab3565b606091505b50600081511415613af9576040517f08c379a0000000000000000000000000000000000000000000000000000000008152600401613af0906154a4565b60405180910390fd5b805181602001fd5b63150b7a0260e01b7bffffffffffffffffffffffffffffffffffffffffffffffffffffffff1916817bffffffffffffffffffffffffffffffffffffffffffffffffffffffff191614915050613b56565b600190505b949350505050565b60606040518060400160405280601481526020017f68747470732f2f7777772e706f6c682e636f6d2f000000000000000000000000815250905090565b6060613ba6826125aa565b613be5576040517f08c379a0000000000000000000000000000000000000000000000000000000008152600401613bdc906156c4565b60405180910390fd5b6000613bef613b5e565b90506000815111613c0f5760405180602001604052806000815250613c3a565b80613c19846140da565b604051602001613c2a92919061520f565b6040516020818303038152906040525b915050919050565b60007f01ffc9a7000000000000000000000000000000000000000000000000000000007bffffffffffffffffffffffffffffffffffffffffffffffffffffffff1916827bffffffffffffffffffffffffffffffffffffffffffffffffffffffff1916149050919050565b613cb783838361423b565b600073ffffffffffffffffffffffffffffffffffffffff168373ffffffffffffffffffffffffffffffffffffffff161415613cfa57613cf581614240565b613d39565b8173ffffffffffffffffffffffffffffffffffffffff168373ffffffffffffffffffffffffffffffffffffffff1614613d3857613d378382614289565b5b5b600073ffffffffffffffffffffffffffffffffffffffff168273ffffffffffffffffffffffffffffffffffffffff161415613d7c57613d77816143f6565b613dbb565b8273ffffffffffffffffffffffffffffffffffffffff168273ffffffffffffffffffffffffffffffffffffffff1614613dba57613db982826144c7565b5b5b505050565b6000613dcb826119fd565b9050613dd98160008461382e565b613de460008361261e565b6001600360008373ffffffffffffffffffffffffffffffffffffffff1673ffffffffffffffffffffffffffffffffffffffff1681526020019081526020016000206000828254613e349190615add565b925050819055506002600083815260200190815260200160002060006101000a81549073ffffffffffffffffffffffffffffffffffffffff021916905581600073ffffffffffffffffffffffffffffffffffffffff168273ffffffffffffffffffffffffffffffffffffffff167fddf252ad1be2c89b69c2b068fc378daa952ba7f163c4a11628f55a4df523b3ef60405160405180910390a4613ed981600084613886565b5050565b600073ffffffffffffffffffffffffffffffffffffffff168273ffffffffffffffffffffffffffffffffffffffff161415613f4d576040517f08c379a0000000000000000000000000000000000000000000000000000000008152600401613f4490615644565b60405180910390fd5b613f56816125aa565b15613f96576040517f08c379a0000000000000000000000000000000000000000000000000000000008152600401613f8d90615524565b60405180910390fd5b613fa26000838361382e565b6001600360008473ffffffffffffffffffffffffffffffffffffffff1673ffffffffffffffffffffffffffffffffffffffff1681526020019081526020016000206000828254613ff29190615a56565b92505081905550816002600083815260200190815260200160002060006101000a81548173ffffffffffffffffffffffffffffffffffffffff021916908373ffffffffffffffffffffffffffffffffffffffff160217905550808273ffffffffffffffffffffffffffffffffffffffff16600073ffffffffffffffffffffffffffffffffffffffff167fddf252ad1be2c89b69c2b068fc378daa952ba7f163c4a11628f55a4df523b3ef60405160405180910390a46140b360008383613886565b5050565b6000808273ffffffffffffffffffffffffffffffffffffffff163b119050919050565b60606000821415614122576040518060400160405280600181526020017f30000000000000000000000000000000000000000000000000000000000000008152509050614236565b600082905060005b6000821461415457808061413d90615c2a565b915050600a8261414d9190615aac565b915061412a565b60008167ffffffffffffffff8111156141705761416f615d99565b5b6040519080825280601f01601f1916602001820160405280156141a25781602001600182028036833780820191505090505b5090505b6000851461422f576001826141bb9190615add565b9150600a856141ca9190615c7d565b60306141d69190615a56565b60f81b8183815181106141ec576141eb615d6a565b5b60200101907effffffffffffffffffffffffffffffffffffffffffffffffffffffffffffff1916908160001a905350600a856142289190615aac565b94506141a6565b8093505050505b919050565b505050565b6008805490506009600083815260200190815260200160002081905550600881908060018154018082558091505060019003906000526020600020016000909190919091505550565b6000600161429684611af3565b6142a09190615add565b9050600060076000848152602001908152602001600020549050818114614385576000600660008673ffffffffffffffffffffffffffffffffffffffff1673ffffffffffffffffffffffffffffffffffffffff168152602001908152602001600020600084815260200190815260200160002054905080600660008773ffffffffffffffffffffffffffffffffffffffff1673ffffffffffffffffffffffffffffffffffffffff168152602001908152602001600020600084815260200190815260200160002081905550816007600083815260200190815260200160002081905550505b6007600084815260200190815260200160002060009055600660008573ffffffffffffffffffffffffffffffffffffffff1673ffffffffffffffffffffffffffffffffffffffff16815260200190815260200160002060008381526020019081526020016000206000905550505050565b6000600160088054905061440a9190615add565b905060006009600084815260200190815260200160002054905060006008838154811061443a57614439615d6a565b5b90600052602060002001549050806008838154811061445c5761445b615d6a565b5b9060005260206000200181905550816009600083815260200190815260200160002081905550600960008581526020019081526020016000206000905560088054806144ab576144aa615d3b565b5b6001900381819060005260206000200160009055905550505050565b60006144d283611af3565b905081600660008573ffffffffffffffffffffffffffffffffffffffff1673ffffffffffffffffffffffffffffffffffffffff168152602001908152602001600020600083815260200190815260200160002081905550806007600084815260200190815260200160002081905550505050565b82805461455290615bc7565b90600052602060002090601f01602090048101928261457457600085556145bb565b82601f1061458d57805160ff19168380011785556145bb565b828001600101855582156145bb579182015b828111156145ba57825182559160200191906001019061459f565b5b5090506145c89190614659565b5090565b828054828255906000526020600020908101928215614608579160200282015b828111156146075782518255916020019190600101906145ec565b5b5090506146159190614659565b5090565b50805461462590615bc7565b6000825580601f106146375750614656565b601f0160209004906000526020600020908101906146559190614659565b5b50565b5b8082111561467257600081600090555060010161465a565b5090565b600061468961468484615967565b615942565b9050828152602081018484840111156146a5576146a4615dcd565b5b6146b0848285615b85565b509392505050565b60006146cb6146c684615998565b615942565b9050828152602081018484840111156146e7576146e6615dcd565b5b6146f2848285615b85565b509392505050565b60008135905061470981616477565b92915050565b60008135905061471e8161648e565b92915050565b600081359050614733816164a5565b92915050565b600081519050614748816164a5565b92915050565b600082601f83011261476357614762615dc8565b5b8135614773848260208601614676565b91505092915050565b600082601f83011261479157614790615dc8565b5b81356147a18482602086016146b8565b91505092915050565b6000813590506147b9816164bc565b92915050565b6000602082840312156147d5576147d4615dd7565b5b60006147e3848285016146fa565b91505092915050565b6000806040838503121561480357614802615dd7565b5b6000614811858286016146fa565b9250506020614822858286016146fa565b9150509250929050565b60008060006060848603121561484557614844615dd7565b5b6000614853868287016146fa565b9350506020614864868287016146fa565b9250506040614875868287016147aa565b9150509250925092565b6000806000806080858703121561489957614898615dd7565b5b60006148a7878288016146fa565b94505060206148b8878288016146fa565b93505060406148c9878288016147aa565b925050606085013567ffffffffffffffff8111156148ea576148e9615dd2565b5b6148f68782880161474e565b91505092959194509250565b6000806040838503121561491957614918615dd7565b5b6000614927858286016146fa565b92505060206149388582860161470f565b9150509250929050565b6000806040838503121561495957614958615dd7565b5b6000614967858286016146fa565b9250506020614978858286016147aa565b9150509250929050565b60006020828403121561499857614997615dd7565b5b60006149a684828501614724565b91505092915050565b6000602082840312156149c5576149c4615dd7565b5b60006149d384828501614739565b91505092915050565b6000602082840312156149f2576149f1615dd7565b5b600082013567ffffffffffffffff811115614a1057614a0f615dd2565b5b614a1c8482850161477c565b91505092915050565b600080600080600060a08688031215614a4157614a40615dd7565b5b600086013567ffffffffffffffff811115614a5f57614a5e615dd2565b5b614a6b8882890161477c565b9550506020614a7c888289016147aa565b9450506040614a8d888289016147aa565b9350506060614a9e888289016147aa565b9250506080614aaf888289016147aa565b9150509295509295909350565b600060208284031215614ad257614ad1615dd7565b5b6000614ae0848285016147aa565b91505092915050565b60008060408385031215614b0057614aff615dd7565b5b6000614b0e858286016147aa565b9250506020614b1f858286016147aa565b9150509250929050565b6000614b3583836151da565b60208301905092915050565b614b4a81615b11565b82525050565b6000614b5b826159d9565b614b658185615a07565b9350614b70836159c9565b8060005b83811015614ba1578151614b888882614b29565b9750614b93836159fa565b925050600181019050614b74565b5085935050505092915050565b6000614bb9826159d9565b614bc38185615a18565b9350614bce836159c9565b8060005b83811015614bff578151614be68882614b29565b9750614bf1836159fa565b925050600181019050614bd2565b5085935050505092915050565b614c1581615b23565b82525050565b614c2481615b23565b82525050565b6000614c35826159e4565b614c3f8185615a29565b9350614c4f818560208601615b94565b614c5881615ddc565b840191505092915050565b6000614c6e826159ef565b614c788185615a3a565b9350614c88818560208601615b94565b614c9181615ddc565b840191505092915050565b6000614ca7826159ef565b614cb18185615a4b565b9350614cc1818560208601615b94565b80840191505092915050565b6000614cda601483615a3a565b9150614ce582615ded565b602082019050919050565b6000614cfd602b83615a3a565b9150614d0882615e16565b604082019050919050565b6000614d20603283615a3a565b9150614d2b82615e65565b604082019050919050565b6000614d43600a83615a3a565b9150614d4e82615eb4565b602082019050919050565b6000614d66602683615a3a565b9150614d7182615edd565b604082019050919050565b6000614d89602583615a3a565b9150614d9482615f2c565b604082019050919050565b6000614dac601c83615a3a565b9150614db782615f7b565b602082019050919050565b6000614dcf602483615a3a565b9150614dda82615fa4565b604082019050919050565b6000614df2601983615a3a565b9150614dfd82615ff3565b602082019050919050565b6000614e15602c83615a3a565b9150614e208261601c565b604082019050919050565b6000614e38601083615a3a565b9150614e438261606b565b602082019050919050565b6000614e5b603883615a3a565b9150614e6682616094565b604082019050919050565b6000614e7e601383615a3a565b9150614e89826160e3565b602082019050919050565b6000614ea1602a83615a3a565b9150614eac8261610c565b604082019050919050565b6000614ec4602983615a3a565b9150614ecf8261615b565b604082019050919050565b6000614ee7602083615a3a565b9150614ef2826161aa565b602082019050919050565b6000614f0a603183615a3a565b9150614f15826161d3565b604082019050919050565b6000614f2d602c83615a3a565b9150614f3882616222565b604082019050919050565b6000614f50602083615a3a565b9150614f5b82616271565b602082019050919050565b6000614f73602f83615a3a565b9150614f7e8261629a565b604082019050919050565b6000614f96602183615a3a565b9150614fa1826162e9565b604082019050919050565b6000614fb9601483615a3a565b9150614fc482616338565b602082019050919050565b6000614fdc603183615a3a565b9150614fe782616361565b604082019050919050565b6000614fff602c83615a3a565b915061500a826163b0565b604082019050919050565b6000615022601383615a3a565b915061502d826163ff565b602082019050919050565b6000615045603083615a3a565b915061505082616428565b604082019050919050565b600060c08301600083015161507360008601826151da565b50602083015161508660208601826151da565b50604083015161509960408601826151da565b5060608301516150ac60608601826151da565b5060808301516150bf6080860182614c0c565b5060a083015184820360a08601526150d78282614b50565b9150508091505092915050565b60a0820160008201516150fa60008501826151da565b50602082015161510d60208501826151da565b50604082015161512060408501826151da565b50606082015161513360608501826151da565b50608082015161514660808501826151da565b50505050565b60e08201600082015161516260008501826151da565b50602082015161517560208501826151da565b50604082015161518860408501826151da565b50606082015161519b60608501826151da565b5060808201516151ae60808501826151da565b5060a08201516151c160a08501826151da565b5060c08201516151d460c08501826151da565b50505050565b6151e381615b7b565b82525050565b6151f281615b7b565b82525050565b61520961520482615b7b565b615c73565b82525050565b600061521b8285614c9c565b91506152278284614c9c565b91508190509392505050565b600061523f8285614c9c565b915061524b82846151f8565b6020820191508190509392505050565b60006020820190506152706000830184614b41565b92915050565b600060808201905061528b6000830187614b41565b6152986020830186614b41565b6152a560408301856151e9565b81810360608301526152b78184614c2a565b905095945050505050565b600060208201905081810360008301526152dc8184614bae565b905092915050565b60006020820190506152f96000830184614c1b565b92915050565b600060208201905081810360008301526153198184614c63565b905092915050565b6000606082019050818103600083015261533b8186614c63565b905061534a60208301856151e9565b61535760408301846151e9565b949350505050565b600061022082019050818103600083015261537a818a614c63565b905061538960208301896151e9565b61539660408301886151e9565b6153a360608301876151e9565b6153b060808301866150e4565b6153be61012083018561514c565b8181036102008301526153d1818461505b565b905098975050505050505050565b60006101008201905081810360008301526153fa818b614c63565b9050615409602083018a6151e9565b61541660408301896151e9565b61542360608301886151e9565b61543060808301876151e9565b61543d60a08301866151e9565b61544a60c08301856151e9565b61545760e08301846151e9565b9998505050505050505050565b6000602082019050818103600083015261547d81614ccd565b9050919050565b6000602082019050818103600083015261549d81614cf0565b9050919050565b600060208201905081810360008301526154bd81614d13565b9050919050565b600060208201905081810360008301526154dd81614d36565b9050919050565b600060208201905081810360008301526154fd81614d59565b9050919050565b6000602082019050818103600083015261551d81614d7c565b9050919050565b6000602082019050818103600083015261553d81614d9f565b9050919050565b6000602082019050818103600083015261555d81614dc2565b9050919050565b6000602082019050818103600083015261557d81614de5565b9050919050565b6000602082019050818103600083015261559d81614e08565b9050919050565b600060208201905081810360008301526155bd81614e2b565b9050919050565b600060208201905081810360008301526155dd81614e4e565b9050919050565b600060208201905081810360008301526155fd81614e71565b9050919050565b6000602082019050818103600083015261561d81614e94565b9050919050565b6000602082019050818103600083015261563d81614eb7565b9050919050565b6000602082019050818103600083015261565d81614eda565b9050919050565b6000602082019050818103600083015261567d81614efd565b9050919050565b6000602082019050818103600083015261569d81614f20565b9050919050565b600060208201905081810360008301526156bd81614f43565b9050919050565b600060208201905081810360008301526156dd81614f66565b9050919050565b600060208201905081810360008301526156fd81614f89565b9050919050565b6000602082019050818103600083015261571d81614fac565b9050919050565b6000602082019050818103600083015261573d81614fcf565b9050919050565b6000602082019050818103600083015261575d81614ff2565b9050919050565b6000602082019050818103600083015261577d81615015565b9050919050565b6000602082019050818103600083015261579d81615038565b9050919050565b60006020820190506157b960008301846151e9565b92915050565b60006040820190506157d460008301856151e9565b6157e160208301846151e9565b9392505050565b60006060820190506157fd60008301866151e9565b61580a60208301856151e9565b61581760408301846151e9565b949350505050565b600060a08201905061583460008301886151e9565b61584160208301876151e9565b61584e60408301866151e9565b61585b60608301856151e9565b61586860808301846151e9565b9695505050505050565b600060c08201905061588760008301896151e9565b61589460208301886151e9565b6158a160408301876151e9565b6158ae60608301866151e9565b6158bb60808301856151e9565b6158c860a08301846151e9565b979650505050505050565b600060e0820190506158e8600083018a6151e9565b6158f560208301896151e9565b61590260408301886151e9565b61590f60608301876151e9565b61591c60808301866151e9565b61592960a08301856151e9565b61593660c08301846151e9565b98975050505050505050565b600061594c61595d565b90506159588282615bf9565b919050565b6000604051905090565b600067ffffffffffffffff82111561598257615981615d99565b5b61598b82615ddc565b9050602081019050919050565b600067ffffffffffffffff8211156159b3576159b2615d99565b5b6159bc82615ddc565b9050602081019050919050565b6000819050602082019050919050565b600081519050919050565b600081519050919050565b600081519050919050565b6000602082019050919050565b600082825260208201905092915050565b600082825260208201905092915050565b600082825260208201905092915050565b600082825260208201905092915050565b600081905092915050565b6000615a6182615b7b565b9150615a6c83615b7b565b9250827fffffffffffffffffffffffffffffffffffffffffffffffffffffffffffffffff03821115615aa157615aa0615cae565b5b828201905092915050565b6000615ab782615b7b565b9150615ac283615b7b565b925082615ad257615ad1615cdd565b5b828204905092915050565b6000615ae882615b7b565b9150615af383615b7b565b925082821015615b0657615b05615cae565b5b828203905092915050565b6000615b1c82615b5b565b9050919050565b60008115159050919050565b60007fffffffff0000000000000000000000000000000000000000000000000000000082169050919050565b600073ffffffffffffffffffffffffffffffffffffffff82169050919050565b6000819050919050565b82818337600083830152505050565b60005b83811015615bb2578082015181840152602081019050615b97565b83811115615bc1576000848401525b50505050565b60006002820490506001821680615bdf57607f821691505b60208210811415615bf357615bf2615d0c565b5b50919050565b615c0282615ddc565b810181811067ffffffffffffffff82111715615c2157615c20615d99565b5b80604052505050565b6000615c3582615b7b565b91507fffffffffffffffffffffffffffffffffffffffffffffffffffffffffffffffff821415615c6857615c67615cae565b5b600182019050919050565b6000819050919050565b6000615c8882615b7b565b9150615c9383615b7b565b925082615ca357615ca2615cdd565b5b828206905092915050565b7f4e487b7100000000000000000000000000000000000000000000000000000000600052601160045260246000fd5b7f4e487b7100000000000000000000000000000000000000000000000000000000600052601260045260246000fd5b7f4e487b7100000000000000000000000000000000000000000000000000000000600052602260045260246000fd5b7f4e487b7100000000000000000000000000000000000000000000000000000000600052603160045260246000fd5b7f4e487b7100000000000000000000000000000000000000000000000000000000600052603260045260246000fd5b7f4e487b7100000000000000000000000000000000000000000000000000000000600052604160045260246000fd5b600080fd5b600080fd5b600080fd5b600080fd5b6000601f19601f8301169050919050565b7f5061757361626c653a206e6f7420706175736564000000000000000000000000600082015250565b7f455243373231456e756d657261626c653a206f776e657220696e646578206f7560008201527f74206f6620626f756e6473000000000000000000000000000000000000000000602082015250565b7f4552433732313a207472616e7366657220746f206e6f6e20455243373231526560008201527f63656976657220696d706c656d656e7465720000000000000000000000000000602082015250565b7f4974656d7320536f6c6400000000000000000000000000000000000000000000600082015250565b7f4f776e61626c653a206e6577206f776e657220697320746865207a65726f206160008201527f6464726573730000000000000000000000000000000000000000000000000000602082015250565b7f4552433732313a207472616e736665722066726f6d20696e636f72726563742060008201527f6f776e6572000000000000000000000000000000000000000000000000000000602082015250565b7f4552433732313a20746f6b656e20616c7265616479206d696e74656400000000600082015250565b7f4552433732313a207472616e7366657220746f20746865207a65726f2061646460008201527f7265737300000000000000000000000000000000000000000000000000000000602082015250565b7f4552433732313a20617070726f766520746f2063616c6c657200000000000000600082015250565b7f4552433732313a206f70657261746f7220717565727920666f72206e6f6e657860008201527f697374656e7420746f6b656e0000000000000000000000000000000000000000602082015250565b7f5061757361626c653a2070617573656400000000000000000000000000000000600082015250565b7f4552433732313a20617070726f76652063616c6c6572206973206e6f74206f7760008201527f6e6572206e6f7220617070726f76656420666f7220616c6c0000000000000000602082015250565b7f63616c6c6572206973206e6f74206f776e657200000000000000000000000000600082015250565b7f4552433732313a2062616c616e636520717565727920666f7220746865207a6560008201527f726f206164647265737300000000000000000000000000000000000000000000602082015250565b7f4552433732313a206f776e657220717565727920666f72206e6f6e657869737460008201527f656e7420746f6b656e0000000000000000000000000000000000000000000000602082015250565b7f4552433732313a206d696e7420746f20746865207a65726f2061646472657373600082015250565b7f45524337323155524953746f726167653a2055524920717565727920666f722060008201527f6e6f6e6578697374656e7420746f6b656e000000000000000000000000000000602082015250565b7f4552433732313a20617070726f76656420717565727920666f72206e6f6e657860008201527f697374656e7420746f6b656e0000000000000000000000000000000000000000602082015250565b7f4f776e61626c653a2063616c6c6572206973206e6f7420746865206f776e6572600082015250565b7f4552433732314d657461646174613a2055524920717565727920666f72206e6f60008201527f6e6578697374656e7420746f6b656e0000000000000000000000000000000000602082015250565b7f4552433732313a20617070726f76616c20746f2063757272656e74206f776e6560008201527f7200000000000000000000000000000000000000000000000000000000000000602082015250565b7f526567697374726174696f6e7320636c6f736564000000000000000000000000600082015250565b7f4552433732313a207472616e736665722063616c6c6572206973206e6f74206f60008201527f776e6572206e6f7220617070726f766564000000000000000000000000000000602082015250565b7f455243373231456e756d657261626c653a20676c6f62616c20696e646578206f60008201527f7574206f6620626f756e64730000000000000000000000000000000000000000602082015250565b7f486f727365206e6f74207265616479206a657400000000000000000000000000600082015250565b7f4552433732314275726e61626c653a2063616c6c6572206973206e6f74206f7760008201527f6e6572206e6f7220617070726f76656400000000000000000000000000000000602082015250565b61648081615b11565b811461648b57600080fd5b50565b61649781615b23565b81146164a257600080fd5b50565b6164ae81615b2f565b81146164b957600080fd5b50565b6164c581615b7b565b81146164d057600080fd5b5056fea2646970667358221220eb5d633ed4758027cbccaa9215d509873febecc6b721ca27f93d2802c1d9dc7464736f6c63430008070033",
  "immutableReferences": {},
  "source": "// SPDX-License-Identifier: MIT\r\npragma solidity ^0.8.4;\r\n\r\nimport\"./Horses.sol\";\r\n\r\ncontract RacesHorses is Horses{\r\n    uint idnewrace=0;\r\n    uint Mod1= 10 ** 1;\r\nuint private constant N_P= 20;\r\n\r\n\r\n error  CantRegister();\r\n    \r\n    \r\n    \r\n\r\nstruct Race {\r\n        string name;\r\n        uint maxTickets;\r\n        uint min_winners;\r\n        uint max_winners;  //requisito\r\n        uint w_continues; // requisito \r\n        uint[] premios;        \r\n        Enrolled[] enrolled;\r\n        Resultados[]resultados;\r\n        uint hour; //hora de partida\r\n        uint contRace; // contador  \r\n         }\r\n    \r\nstruct Enrolled{\r\n    address ownerHorse;\r\n    uint tokenid;\r\n        }\r\n    \r\nstruct Resultados{\r\n    uint tokenid;\r\n    uint score;\r\n    uint additional;\r\n    uint m1;\r\n    uint m2;\r\n    uint x;\r\n    uint poinst; \r\n    uint Ppartida;\r\n    uint llegada; // Puesto de llegada \r\n    uint premio1;\r\n    uint premio2;\r\n}    \r\n\r\n\r\n    \r\n   \r\n mapping(uint => Race)  RacesMap; \r\n address[] WhitelisteContract;\r\n  \r\n\r\n\r\n\r\n  //CREATES function\r\n \r\nfunction createrace(string memory name_,uint _maxTickets, uint _minWinners, uint  _maxWinners, uint _w_continues) public onlyOwner{\r\n     idnewrace= idnewrace +1;\r\n     Race storage r= RacesMap[idnewrace];\r\n     r.name = name_;\r\n     r.maxTickets= _maxTickets;\r\n     r.min_winners = _minWinners;\r\n     r.max_winners = _maxWinners;\r\n     r.w_continues= _w_continues; \r\n }   \r\n\r\nfunction _horsesReady(uint _tokenId)internal {\r\nuint lastrace=horses[_tokenId].races.lastrace;//Time: ultima carrera\r\nuint timeLastRace= lastrace + 120;//Sumamos 5 minutos de sleep\r\nrequire (timeLastRace < block.timestamp,\"Horse not ready jet\");\r\nhorses[_tokenId].races.lastrace=block.timestamp;\r\n}\r\n\r\n//Falta: Solo puede listarse si la carrera existe y se encuentra en estado de enlistamiento.\r\n//Falta: Solo puede listar el dueo del tokenid_\r\n//Falta: Es una function pausable  ?\r\n//Falta: Es una function only Owner\r\n// Devolver error del list cuando no enlista\r\n// Misma cartera no puede inscribir mas de 2 caballos\r\n// traer datos verdaderos de tokens\r\nfunction listhorse(uint _race, uint _tokenId)  public payable   {\r\nRace storage r= RacesMap[_race]; //Consulta a array Race\r\nuint Ppartida = r.enrolled.length +1;\r\nuint maxTickets=r.maxTickets;\r\nrequire( Ppartida <= maxTickets,\"Registrations closed\" );\r\naddress owner = ERC721.ownerOf(_tokenId);             //Comprobamos owner\r\nrequire(_msgSender() == owner,\"caller is not owner\"); // Comprobando owner\r\n/*uint minWinners_r=r.min_winners;\r\nuint maxWinners_r=r.max_winners;*/\r\n_horsesReady(_tokenId);\r\n_pushHorse(_tokenId,_race);\r\n\r\n/*uint winners_h=horses[_tokenId].races.winners;  //Cargando datos de horse\r\n/*uint continues=horses[_tokenId].races.continues;//Gamadas y continuas\r\nstring memory nameH=horses[_tokenId].name;//Cargando Datos Horses name\r\nuint hb1=horses[_tokenId].hb1;     //Hb1  Hb2 y 3 + adicional\r\nuint hb2=horses[_tokenId].hb2;     \r\nuint hb3=horses[_tokenId].hb3;    //Adicional es  Healt + Jockey + herramientas \r\nuint score=hb1 + hb2 +hb3;             \r\n//_pushHorse(_tokenId,timeLastRace,winners_h,_race);\r\nif (winners_h >= minWinners_r && winners_h <= maxWinners_r){\r\nr.horses.push(Horses(msg.sender,_tokenId));\r\n//r.resultados.push(Resultados(_tokenId,score,1,0,0,0,0,Ppartida,0,0,0)); \r\n}\r\nrevert CantRegister();\r\n*/\r\n}\r\n\r\nfunction _pushHorse(uint _tokenId,uint _race) internal{\r\nRace storage r= RacesMap[_race]; //Consulta a array Race\r\n//uint minWinners_r=r.min_winners;\r\n//uint maxWinners_r=r.max_winners;\r\n//uint winners_h=horses[_tokenId].races.winners;  //Cargando datos de horse\r\n//if (winners_h >= minWinners_r && winners_h <= maxWinners_r){\r\nr.enrolled.push(Enrolled(msg.sender,_tokenId));\r\n//r.resultados.push(Resultados(_tokenId,score,1,0,0,0,0,Ppartida,0,0,0)); \r\n//}\r\n//revert CantRegister();\r\n} \r\n\r\n\r\n                     //               \r\n/*uint additional=25;          //\r\nuint ramdonmult1= _gRamMult(score);\r\n\r\n // Cargando Datos de Carrera\r\nstring memory stringdata=\"Inscrito\";\r\n*/\r\n\r\n/*\r\nif (winners_h >= minWinners_r && winners_ <= maxWinners_r){\r\n    \r\n\r\n}    \r\nstring memory stringdata=\"Inscrito\";\r\nuint N_p = N_P;   \r\nRace storage r= RacesMap[race_];\r\nuint race_winners = r.winners;\r\nuint Ppartida = r.horses.length +1;\r\nif (race_winners != 0){\r\nif (Ppartida < N_p){  \r\n//+Race.Resultados\r\nr.horses.push(Horses(msg.sender,tokenid_,race_,Ppartida,0,21,22));\r\n\r\nuint ramdonmult1= _gRamMult(score_);//multiplicador traido del listqr\r\n//+Race.Resultados\r\nr.resultados.push(Resultados(tokenid_,score_,5,ramdonmult1,0,0,0)); \r\n}else{ stringdata=\"Inscripciones finalizadas\"; return (stringdata);}    \r\n}else{ stringdata=\"Carrera no disponible\"; return (stringdata);}}\r\n\r\n\r\nfunction  playrace(uint idrace_) public onlyOwner{\r\nRace storage r= RacesMap[idrace_];\r\nuint Pp =r.horses.length - 1;\r\nfor (uint i = 0;  i <= Pp; i++ ){\r\nuint tk_id=r.resultados[i].tokenid;\r\nuint scr=r.resultados[i].score;\r\nuint add=r.resultados[i].additional;\r\nuint m1=r.resultados[i].m1;\r\nuint m2= _gRamMult(tk_id);\r\nuint ramdonmult3= _gRamMult(i);\r\nuint poinst= _gPoinst(m1,m2,scr,add,ramdonmult3);\r\nr.resultados[i]=(Resultados(tk_id,scr,add,m1,m2,ramdonmult3,poinst)); */\r\n\r\n/*\r\nfunction  playrace(uint idrace_) public onlyOwner{\r\nRace storage r= RacesMap[idrace_];\r\nuint Pp =r.horses.length - 1;\r\nfor (uint i = 0;  i <= Pp; i++ ){\r\nuint tk_id=r.resultados[i].tokenid;\r\nuint scr=r.resultados[i].score;\r\nuint add=r.resultados[i].additional;\r\nuint m1=r.resultados[i].m1;\r\nuint m2= _gRamMult(tk_id);\r\nuint ramdonmult3= _gRamMult(i);\r\nuint poinst= _gPoinst(m1,m2,scr,add,ramdonmult3);\r\nr.resultados[i]=(Resultados(tk_id,scr,add,m1,m2,ramdonmult3,poinst)); \r\n    \r\n\r\n}*/\r\n\r\n\r\n\r\n\r\n\r\n\r\n\r\n\r\n\r\n\r\n\r\n//Falta, crear desempate con el tokend de menor id minteo\r\nfunction claimRewards(uint race_)public  {\r\nRace storage r= RacesMap[race_]; \r\nuint Pp_c =r.enrolled.length - 1;\r\nfor (uint i = 0;  i <= Pp_c; i++ ){\r\nuint tk_id=r.resultados[i].tokenid;\r\nuint scr=r.resultados[i].poinst;\r\nuint j=0;\r\nuint llegada=Pp_c;\r\nwhile ( j < Pp_c){    \r\nuint tk_idj=r.resultados[j].tokenid;\r\nuint scrj=r.resultados[j].poinst;\r\n\r\n\r\nif ( scrj <= scr ) { \r\n//if (tk_id==tk_idj){ llegada     } \r\nif (scrj == scr && tk_idj > tk_id ){ llegada - 1;     } \r\n\r\nllegada -1; }\r\n\r\nj++;\r\n}\r\nr.resultados[j].llegada =llegada ;\r\n//r.enrolled[i].llegada =llegada ;\r\n    \r\n}\r\n}\r\n\r\n /*   \r\nfunction _listingPoinst( uint race_, uint i_,uint _Ppartida, uint tk_id_, uint scr_, uint add_, uint m1_,uint m2_,uint ram3_, uint poinst_)internal{\r\nRace storage r= RacesMap[race_];\r\nr.resultados[i_]=(Resultados(tk_id_,scr_,5,m1_,m2_,ram3_,poinst_,_Ppartida,0,0,0)); }\r\n*/\r\n\r\n\r\n\r\n\r\n\r\n// GET functions INTERNAL\r\nfunction _gPoinst(uint m1_, uint m2_, uint scr_, uint add_,uint mul_ )internal pure returns(uint){\r\n     uint poinst = 0;\r\n     uint mul = mul_;\r\n    if(mul==2){poinst= (scr_*m1_/m2_) + add_; }\r\n    if(mul==3){poinst= (scr_*m2_/m1_) + add_; }\r\n    if(mul==4){poinst= (scr_*m2_/m1_) + add_ +50; }\r\n    if(mul==5){poinst= (scr_*m1_/m2_) + add_; }\r\n    return(poinst);\r\n} \r\n \r\n \r\n \r\n \r\n function _gRamMult(uint N_) internal  view returns (uint) {\r\n        uint rand = uint(keccak256(abi.encodePacked(N_ , block.timestamp)));\r\n        uint N= rand % Mod1;\r\n        uint Nb= 0;\r\n        if (N <=2){  Nb=2;}\r\n        if (N == 3){  Nb=4;}\r\n        if (N >3 && N<=6){ Nb=3;}\r\n        if (N >6){  Nb=5;}\r\n        return(Nb);\r\n}\r\n\r\n\r\n\r\n\r\n\r\n// GET function Public\r\nfunction gListhorse(uint race_, uint tokenid_)  public view returns(uint inscritos,uint tk_id)  { \r\n//Traemos de horses en Race;\r\nRace storage r= RacesMap[race_];\r\nuint Tid=r.enrolled[tokenid_].tokenid;\r\nuint uno=r.enrolled.length;\r\nreturn(uno,Tid);\r\n}\r\n\r\n\r\n\r\n    \r\nfunction gRResultados(uint race_, uint tokenid_)  public view returns(uint Tk_id,uint Score,uint additional,uint Mult1,uint Mult2,uint Pts)  { \r\n//Traemos de resultados en Race;\r\nRace storage r= RacesMap[race_];\r\nuint Tid=r.resultados[tokenid_].tokenid;\r\nuint scr=r.resultados[tokenid_].score;\r\nuint add=r.resultados[tokenid_].additional;\r\nuint m1=r.resultados[tokenid_].m1;\r\nuint m2=r.resultados[tokenid_].m2;\r\nuint pts=r.resultados[tokenid_].poinst;\r\nreturn(Tid,scr,add,m1,m2,pts);\r\n}\r\n\r\nfunction getRHorsesLenght(uint race_)public view returns(uint length){\r\nRace storage r= RacesMap[race_];\r\nuint uno =r.enrolled.length;\r\nreturn(uno);\r\n}\r\n\r\n\r\n    \r\nfunction getRace( uint idrace_) public view returns(string memory name,uint ganadores,uint Inscritos){\r\nRace memory r= RacesMap[idrace_];\r\nreturn (r.name, r.max_winners,r.enrolled.length); }\r\n \r\n \r\n}",
  "sourcePath": "C:\\proyecto-horse\\contratos\\horsesycarreras\\hyc1\\contracts\\Races.sol",
  "compiler": {
    "name": "solc",
    "version": "0.8.7+commit.e28d00a7.Emscripten.clang"
  },
  "schemaVersion": "3.4.4",
  "updatedAt": "2022-03-17T23:49:23.149Z",
  "devdoc": {
    "kind": "dev",
    "methods": {
      "approve(address,uint256)": {
        "details": "See {IERC721-approve}."
      },
      "balanceOf(address)": {
        "details": "See {IERC721-balanceOf}."
      },
      "burn(uint256)": {
        "details": "Burns `tokenId`. See {ERC721-_burn}. Requirements: - The caller must own `tokenId` or be an approved operator."
      },
      "getApproved(uint256)": {
        "details": "See {IERC721-getApproved}."
      },
      "isApprovedForAll(address,address)": {
        "details": "See {IERC721-isApprovedForAll}."
      },
      "name()": {
        "details": "See {IERC721Metadata-name}."
      },
      "owner()": {
        "details": "Returns the address of the current owner."
      },
      "ownerOf(uint256)": {
        "details": "See {IERC721-ownerOf}."
      },
      "paused()": {
        "details": "Returns true if the contract is paused, and false otherwise."
      },
      "renounceOwnership()": {
        "details": "Leaves the contract without owner. It will not be possible to call `onlyOwner` functions anymore. Can only be called by the current owner. NOTE: Renouncing ownership will leave the contract without an owner, thereby removing any functionality that is only available to the owner."
      },
      "safeTransferFrom(address,address,uint256)": {
        "details": "See {IERC721-safeTransferFrom}."
      },
      "safeTransferFrom(address,address,uint256,bytes)": {
        "details": "See {IERC721-safeTransferFrom}."
      },
      "setApprovalForAll(address,bool)": {
        "details": "See {IERC721-setApprovalForAll}."
      },
      "symbol()": {
        "details": "See {IERC721Metadata-symbol}."
      },
      "tokenByIndex(uint256)": {
        "details": "See {IERC721Enumerable-tokenByIndex}."
      },
      "tokenOfOwnerByIndex(address,uint256)": {
        "details": "See {IERC721Enumerable-tokenOfOwnerByIndex}."
      },
      "totalSupply()": {
        "details": "See {IERC721Enumerable-totalSupply}."
      },
      "transferFrom(address,address,uint256)": {
        "details": "See {IERC721-transferFrom}."
      },
      "transferOwnership(address)": {
        "details": "Transfers ownership of the contract to a new account (`newOwner`). Can only be called by the current owner."
      }
    },
    "version": 1
  },
  "userdoc": {
    "errors": {
      "InvalidAmount()": [
        {
          "notice": "event TraineHorse event "
        }
      ]
    },
    "kind": "user",
    "methods": {},
    "version": 1
  }
}