{
  "contractName": "RacesHorses",
  "abi": [
    {
      "inputs": [],
      "name": "CantRegister",
      "type": "error"
    },
    {
      "inputs": [],
      "name": "InvalidAmount",
      "type": "error"
    },
    {
      "inputs": [],
      "name": "NotOwner",
      "type": "error"
    },
    {
      "anonymous": false,
      "inputs": [
        {
          "indexed": true,
          "internalType": "address",
          "name": "owner",
          "type": "address"
        },
        {
          "indexed": true,
          "internalType": "address",
          "name": "approved",
          "type": "address"
        },
        {
          "indexed": true,
          "internalType": "uint256",
          "name": "tokenId",
          "type": "uint256"
        }
      ],
      "name": "Approval",
      "type": "event"
    },
    {
      "anonymous": false,
      "inputs": [
        {
          "indexed": true,
          "internalType": "address",
          "name": "owner",
          "type": "address"
        },
        {
          "indexed": true,
          "internalType": "address",
          "name": "operator",
          "type": "address"
        },
        {
          "indexed": false,
          "internalType": "bool",
          "name": "approved",
          "type": "bool"
        }
      ],
      "name": "ApprovalForAll",
      "type": "event"
    },
    {
      "anonymous": false,
      "inputs": [
        {
          "indexed": false,
          "internalType": "string",
          "name": "name",
          "type": "string"
        },
        {
          "indexed": false,
          "internalType": "uint256",
          "name": "dna",
          "type": "uint256"
        },
        {
          "indexed": false,
          "internalType": "uint256",
          "name": "hb1",
          "type": "uint256"
        },
        {
          "indexed": false,
          "internalType": "uint256",
          "name": "hb2",
          "type": "uint256"
        },
        {
          "indexed": false,
          "internalType": "uint256",
          "name": "hb3",
          "type": "uint256"
        },
        {
          "indexed": false,
          "internalType": "uint256",
          "name": "health",
          "type": "uint256"
        },
        {
          "indexed": false,
          "internalType": "uint256",
          "name": "racelimit",
          "type": "uint256"
        },
        {
          "indexed": false,
          "internalType": "uint256",
          "name": "monta",
          "type": "uint256"
        }
      ],
      "name": "NewHorse",
      "type": "event"
    },
    {
      "anonymous": false,
      "inputs": [
        {
          "indexed": true,
          "internalType": "address",
          "name": "previousOwner",
          "type": "address"
        },
        {
          "indexed": true,
          "internalType": "address",
          "name": "newOwner",
          "type": "address"
        }
      ],
      "name": "OwnershipTransferred",
      "type": "event"
    },
    {
      "anonymous": false,
      "inputs": [
        {
          "indexed": false,
          "internalType": "address",
          "name": "account",
          "type": "address"
        }
      ],
      "name": "Paused",
      "type": "event"
    },
    {
      "anonymous": false,
      "inputs": [
        {
          "indexed": true,
          "internalType": "address",
          "name": "from",
          "type": "address"
        },
        {
          "indexed": true,
          "internalType": "address",
          "name": "to",
          "type": "address"
        },
        {
          "indexed": true,
          "internalType": "uint256",
          "name": "tokenId",
          "type": "uint256"
        }
      ],
      "name": "Transfer",
      "type": "event"
    },
    {
      "anonymous": false,
      "inputs": [
        {
          "indexed": false,
          "internalType": "address",
          "name": "account",
          "type": "address"
        }
      ],
      "name": "Unpaused",
      "type": "event"
    },
    {
      "inputs": [
        {
          "internalType": "uint256",
          "name": "_tokenId",
          "type": "uint256"
        }
      ],
      "name": "_GetStructStast",
      "outputs": [
        {
          "internalType": "uint256",
          "name": "_hb1",
          "type": "uint256"
        },
        {
          "internalType": "uint256",
          "name": "_hb2",
          "type": "uint256"
        },
        {
          "internalType": "uint256",
          "name": "_hb3",
          "type": "uint256"
        },
        {
          "internalType": "uint256",
          "name": "lastfed",
          "type": "uint256"
        },
        {
          "internalType": "uint256",
          "name": "health",
          "type": "uint256"
        },
        {
          "internalType": "uint256",
          "name": "racelimit",
          "type": "uint256"
        },
        {
          "internalType": "uint256",
          "name": "monta",
          "type": "uint256"
        }
      ],
      "stateMutability": "view",
      "type": "function"
    },
    {
      "inputs": [
        {
          "internalType": "uint256",
          "name": "_tokenId",
          "type": "uint256"
        }
      ],
      "name": "_GetStructStastGen",
      "outputs": [
        {
          "internalType": "uint256",
          "name": "dna",
          "type": "uint256"
        },
        {
          "internalType": "uint256",
          "name": "dad",
          "type": "uint256"
        },
        {
          "internalType": "uint256",
          "name": "mom",
          "type": "uint256"
        },
        {
          "internalType": "uint256",
          "name": "birthdate",
          "type": "uint256"
        },
        {
          "internalType": "uint256",
          "name": "generation",
          "type": "uint256"
        }
      ],
      "stateMutability": "view",
      "type": "function"
    },
    {
      "inputs": [
        {
          "internalType": "uint256",
          "name": "_tokenId",
          "type": "uint256"
        }
      ],
      "name": "_feedHorse",
      "outputs": [],
      "stateMutability": "nonpayable",
      "type": "function"
    },
    {
      "inputs": [
        {
          "internalType": "uint256",
          "name": "_tokenId",
          "type": "uint256"
        },
        {
          "internalType": "uint256",
          "name": "",
          "type": "uint256"
        }
      ],
      "name": "_getRacesHorse",
      "outputs": [
        {
          "internalType": "uint256[]",
          "name": "races",
          "type": "uint256[]"
        }
      ],
      "stateMutability": "view",
      "type": "function"
    },
    {
      "inputs": [
        {
          "internalType": "uint256",
          "name": "_tokenId",
          "type": "uint256"
        }
      ],
      "name": "_getStructRace",
      "outputs": [
        {
          "internalType": "uint256",
          "name": "winners",
          "type": "uint256"
        },
        {
          "internalType": "uint256",
          "name": "continues",
          "type": "uint256"
        },
        {
          "internalType": "uint256",
          "name": "skill",
          "type": "uint256"
        }
      ],
      "stateMutability": "view",
      "type": "function"
    },
    {
      "inputs": [
        {
          "internalType": "uint256",
          "name": "_tokenId",
          "type": "uint256"
        }
      ],
      "name": "_trainHorse",
      "outputs": [],
      "stateMutability": "nonpayable",
      "type": "function"
    },
    {
      "inputs": [
        {
          "internalType": "address",
          "name": "to",
          "type": "address"
        },
        {
          "internalType": "uint256",
          "name": "tokenId",
          "type": "uint256"
        }
      ],
      "name": "approve",
      "outputs": [],
      "stateMutability": "nonpayable",
      "type": "function"
    },
    {
      "inputs": [
        {
          "internalType": "address",
          "name": "owner",
          "type": "address"
        }
      ],
      "name": "balanceOf",
      "outputs": [
        {
          "internalType": "uint256",
          "name": "",
          "type": "uint256"
        }
      ],
      "stateMutability": "view",
      "type": "function"
    },
    {
      "inputs": [
        {
          "internalType": "uint256",
          "name": "tokenId",
          "type": "uint256"
        }
      ],
      "name": "burn",
      "outputs": [],
      "stateMutability": "nonpayable",
      "type": "function"
    },
    {
      "inputs": [
        {
          "internalType": "uint256",
          "name": "tokenId",
          "type": "uint256"
        }
      ],
      "name": "getApproved",
      "outputs": [
        {
          "internalType": "address",
          "name": "",
          "type": "address"
        }
      ],
      "stateMutability": "view",
      "type": "function"
    },
    {
      "inputs": [
        {
          "internalType": "uint256",
          "name": "",
          "type": "uint256"
        }
      ],
      "name": "horses",
      "outputs": [
        {
          "internalType": "string",
          "name": "name",
          "type": "string"
        },
        {
          "internalType": "uint256",
          "name": "hb1",
          "type": "uint256"
        },
        {
          "internalType": "uint256",
          "name": "hb2",
          "type": "uint256"
        },
        {
          "internalType": "uint256",
          "name": "hb3",
          "type": "uint256"
        },
        {
          "components": [
            {
              "internalType": "uint256",
              "name": "dna",
              "type": "uint256"
            },
            {
              "internalType": "uint256",
              "name": "dad",
              "type": "uint256"
            },
            {
              "internalType": "uint256",
              "name": "mom",
              "type": "uint256"
            },
            {
              "internalType": "uint256",
              "name": "birthdate",
              "type": "uint256"
            },
            {
              "internalType": "uint256",
              "name": "generation",
              "type": "uint256"
            }
          ],
          "internalType": "struct Horses.StatsGen",
          "name": "statsGen",
          "type": "tuple"
        },
        {
          "components": [
            {
              "internalType": "uint256",
              "name": "_hb1",
              "type": "uint256"
            },
            {
              "internalType": "uint256",
              "name": "_hb2",
              "type": "uint256"
            },
            {
              "internalType": "uint256",
              "name": "_hb3",
              "type": "uint256"
            },
            {
              "internalType": "uint256",
              "name": "lastfed",
              "type": "uint256"
            },
            {
              "internalType": "uint256",
              "name": "health",
              "type": "uint256"
            },
            {
              "internalType": "uint256",
              "name": "racelimit",
              "type": "uint256"
            },
            {
              "internalType": "uint256",
              "name": "monta",
              "type": "uint256"
            }
          ],
          "internalType": "struct Horses.Stats",
          "name": "stats",
          "type": "tuple"
        },
        {
          "components": [
            {
              "internalType": "uint256",
              "name": "winners",
              "type": "uint256"
            },
            {
              "internalType": "uint256",
              "name": "continues",
              "type": "uint256"
            },
            {
              "internalType": "uint256",
              "name": "skill",
              "type": "uint256"
            },
            {
              "internalType": "uint256",
              "name": "lastrace",
              "type": "uint256"
            },
            {
              "internalType": "bool",
              "name": "claim",
              "type": "bool"
            },
            {
              "internalType": "uint256[]",
              "name": "raced",
              "type": "uint256[]"
            }
          ],
          "internalType": "struct Horses.Races",
          "name": "races",
          "type": "tuple"
        }
      ],
      "stateMutability": "view",
      "type": "function"
    },
    {
      "inputs": [
        {
          "internalType": "address",
          "name": "owner",
          "type": "address"
        },
        {
          "internalType": "address",
          "name": "operator",
          "type": "address"
        }
      ],
      "name": "isApprovedForAll",
      "outputs": [
        {
          "internalType": "bool",
          "name": "",
          "type": "bool"
        }
      ],
      "stateMutability": "view",
      "type": "function"
    },
    {
      "inputs": [],
      "name": "maxSupplyLv1",
      "outputs": [
        {
          "internalType": "uint256",
          "name": "",
          "type": "uint256"
        }
      ],
      "stateMutability": "view",
      "type": "function"
    },
    {
      "inputs": [],
      "name": "maxSupplyLv2",
      "outputs": [
        {
          "internalType": "uint256",
          "name": "",
          "type": "uint256"
        }
      ],
      "stateMutability": "view",
      "type": "function"
    },
    {
      "inputs": [],
      "name": "maxSupplyLv3",
      "outputs": [
        {
          "internalType": "uint256",
          "name": "",
          "type": "uint256"
        }
      ],
      "stateMutability": "view",
      "type": "function"
    },
    {
      "inputs": [],
      "name": "maxSupplyLv4",
      "outputs": [
        {
          "internalType": "uint256",
          "name": "",
          "type": "uint256"
        }
      ],
      "stateMutability": "view",
      "type": "function"
    },
    {
      "inputs": [],
      "name": "maxSupplyLv5",
      "outputs": [
        {
          "internalType": "uint256",
          "name": "",
          "type": "uint256"
        }
      ],
      "stateMutability": "view",
      "type": "function"
    },
    {
      "inputs": [],
      "name": "maxSupplyLv6",
      "outputs": [
        {
          "internalType": "uint256",
          "name": "",
          "type": "uint256"
        }
      ],
      "stateMutability": "view",
      "type": "function"
    },
    {
      "inputs": [],
      "name": "name",
      "outputs": [
        {
          "internalType": "string",
          "name": "",
          "type": "string"
        }
      ],
      "stateMutability": "view",
      "type": "function"
    },
    {
      "inputs": [],
      "name": "owner",
      "outputs": [
        {
          "internalType": "address",
          "name": "",
          "type": "address"
        }
      ],
      "stateMutability": "view",
      "type": "function"
    },
    {
      "inputs": [
        {
          "internalType": "uint256",
          "name": "tokenId",
          "type": "uint256"
        }
      ],
      "name": "ownerOf",
      "outputs": [
        {
          "internalType": "address",
          "name": "",
          "type": "address"
        }
      ],
      "stateMutability": "view",
      "type": "function"
    },
    {
      "inputs": [],
      "name": "pause",
      "outputs": [],
      "stateMutability": "nonpayable",
      "type": "function"
    },
    {
      "inputs": [],
      "name": "paused",
      "outputs": [
        {
          "internalType": "bool",
          "name": "",
          "type": "bool"
        }
      ],
      "stateMutability": "view",
      "type": "function"
    },
    {
      "inputs": [],
      "name": "renounceOwnership",
      "outputs": [],
      "stateMutability": "nonpayable",
      "type": "function"
    },
    {
      "inputs": [
        {
          "internalType": "string",
          "name": "_name",
          "type": "string"
        }
      ],
      "name": "safeMint",
      "outputs": [],
      "stateMutability": "payable",
      "type": "function"
    },
    {
      "inputs": [
        {
          "internalType": "address",
          "name": "from",
          "type": "address"
        },
        {
          "internalType": "address",
          "name": "to",
          "type": "address"
        },
        {
          "internalType": "uint256",
          "name": "tokenId",
          "type": "uint256"
        }
      ],
      "name": "safeTransferFrom",
      "outputs": [],
      "stateMutability": "nonpayable",
      "type": "function"
    },
    {
      "inputs": [
        {
          "internalType": "address",
          "name": "from",
          "type": "address"
        },
        {
          "internalType": "address",
          "name": "to",
          "type": "address"
        },
        {
          "internalType": "uint256",
          "name": "tokenId",
          "type": "uint256"
        },
        {
          "internalType": "bytes",
          "name": "_data",
          "type": "bytes"
        }
      ],
      "name": "safeTransferFrom",
      "outputs": [],
      "stateMutability": "nonpayable",
      "type": "function"
    },
    {
      "inputs": [
        {
          "internalType": "address",
          "name": "operator",
          "type": "address"
        },
        {
          "internalType": "bool",
          "name": "approved",
          "type": "bool"
        }
      ],
      "name": "setApprovalForAll",
      "outputs": [],
      "stateMutability": "nonpayable",
      "type": "function"
    },
    {
      "inputs": [],
      "name": "suplylvl1",
      "outputs": [
        {
          "internalType": "uint256",
          "name": "",
          "type": "uint256"
        }
      ],
      "stateMutability": "view",
      "type": "function"
    },
    {
      "inputs": [],
      "name": "suplylvl2",
      "outputs": [
        {
          "internalType": "uint256",
          "name": "",
          "type": "uint256"
        }
      ],
      "stateMutability": "view",
      "type": "function"
    },
    {
      "inputs": [],
      "name": "suplylvl3",
      "outputs": [
        {
          "internalType": "uint256",
          "name": "",
          "type": "uint256"
        }
      ],
      "stateMutability": "view",
      "type": "function"
    },
    {
      "inputs": [],
      "name": "suplylvl4",
      "outputs": [
        {
          "internalType": "uint256",
          "name": "",
          "type": "uint256"
        }
      ],
      "stateMutability": "view",
      "type": "function"
    },
    {
      "inputs": [],
      "name": "suplylvl5",
      "outputs": [
        {
          "internalType": "uint256",
          "name": "",
          "type": "uint256"
        }
      ],
      "stateMutability": "view",
      "type": "function"
    },
    {
      "inputs": [
        {
          "internalType": "bytes4",
          "name": "interfaceId",
          "type": "bytes4"
        }
      ],
      "name": "supportsInterface",
      "outputs": [
        {
          "internalType": "bool",
          "name": "",
          "type": "bool"
        }
      ],
      "stateMutability": "view",
      "type": "function"
    },
    {
      "inputs": [],
      "name": "symbol",
      "outputs": [
        {
          "internalType": "string",
          "name": "",
          "type": "string"
        }
      ],
      "stateMutability": "view",
      "type": "function"
    },
    {
      "inputs": [
        {
          "internalType": "uint256",
          "name": "index",
          "type": "uint256"
        }
      ],
      "name": "tokenByIndex",
      "outputs": [
        {
          "internalType": "uint256",
          "name": "",
          "type": "uint256"
        }
      ],
      "stateMutability": "view",
      "type": "function"
    },
    {
      "inputs": [
        {
          "internalType": "address",
          "name": "owner",
          "type": "address"
        },
        {
          "internalType": "uint256",
          "name": "index",
          "type": "uint256"
        }
      ],
      "name": "tokenOfOwnerByIndex",
      "outputs": [
        {
          "internalType": "uint256",
          "name": "",
          "type": "uint256"
        }
      ],
      "stateMutability": "view",
      "type": "function"
    },
    {
      "inputs": [
        {
          "internalType": "uint256",
          "name": "tokenId",
          "type": "uint256"
        }
      ],
      "name": "tokenURI",
      "outputs": [
        {
          "internalType": "string",
          "name": "",
          "type": "string"
        }
      ],
      "stateMutability": "view",
      "type": "function"
    },
    {
      "inputs": [],
      "name": "totalSupply",
      "outputs": [
        {
          "internalType": "uint256",
          "name": "",
          "type": "uint256"
        }
      ],
      "stateMutability": "view",
      "type": "function"
    },
    {
      "inputs": [
        {
          "internalType": "address",
          "name": "from",
          "type": "address"
        },
        {
          "internalType": "address",
          "name": "to",
          "type": "address"
        },
        {
          "internalType": "uint256",
          "name": "tokenId",
          "type": "uint256"
        }
      ],
      "name": "transferFrom",
      "outputs": [],
      "stateMutability": "nonpayable",
      "type": "function"
    },
    {
      "inputs": [
        {
          "internalType": "address",
          "name": "newOwner",
          "type": "address"
        }
      ],
      "name": "transferOwnership",
      "outputs": [],
      "stateMutability": "nonpayable",
      "type": "function"
    },
    {
      "inputs": [],
      "name": "unpause",
      "outputs": [],
      "stateMutability": "nonpayable",
      "type": "function"
    },
    {
      "inputs": [
        {
          "internalType": "string",
          "name": "name_",
          "type": "string"
        },
        {
          "internalType": "uint256",
          "name": "_maxTickets",
          "type": "uint256"
        },
        {
          "internalType": "uint256",
          "name": "_minWinners",
          "type": "uint256"
        },
        {
          "internalType": "uint256",
          "name": "_maxWinners",
          "type": "uint256"
        },
        {
          "internalType": "uint256",
          "name": "_w_continues",
          "type": "uint256"
        }
      ],
      "name": "createrace",
      "outputs": [],
      "stateMutability": "nonpayable",
      "type": "function"
    },
    {
      "inputs": [
        {
          "internalType": "uint256",
          "name": "_race",
          "type": "uint256"
        },
        {
          "internalType": "uint256",
          "name": "_tokenId",
          "type": "uint256"
        }
      ],
      "name": "listhorse",
      "outputs": [],
      "stateMutability": "payable",
      "type": "function"
    },
    {
      "inputs": [
        {
          "internalType": "uint256",
          "name": "race_",
          "type": "uint256"
        }
      ],
      "name": "claimRewards",
      "outputs": [],
      "stateMutability": "nonpayable",
      "type": "function"
    },
    {
      "inputs": [
        {
          "internalType": "uint256",
          "name": "race_",
          "type": "uint256"
        },
        {
          "internalType": "uint256",
          "name": "tokenid_",
          "type": "uint256"
        }
      ],
      "name": "gListhorse",
      "outputs": [
        {
          "internalType": "uint256",
          "name": "inscritos",
          "type": "uint256"
        },
        {
          "internalType": "uint256",
          "name": "tk_id",
          "type": "uint256"
        }
      ],
      "stateMutability": "view",
      "type": "function"
    },
    {
      "inputs": [
        {
          "internalType": "uint256",
          "name": "race_",
          "type": "uint256"
        },
        {
          "internalType": "uint256",
          "name": "tokenid_",
          "type": "uint256"
        }
      ],
      "name": "gRResultados",
      "outputs": [
        {
          "internalType": "uint256",
          "name": "Tk_id",
          "type": "uint256"
        },
        {
          "internalType": "uint256",
          "name": "Score",
          "type": "uint256"
        },
        {
          "internalType": "uint256",
          "name": "additional",
          "type": "uint256"
        },
        {
          "internalType": "uint256",
          "name": "Mult1",
          "type": "uint256"
        },
        {
          "internalType": "uint256",
          "name": "Mult2",
          "type": "uint256"
        },
        {
          "internalType": "uint256",
          "name": "Pts",
          "type": "uint256"
        }
      ],
      "stateMutability": "view",
      "type": "function"
    },
    {
      "inputs": [
        {
          "internalType": "uint256",
          "name": "race_",
          "type": "uint256"
        }
      ],
      "name": "getRHorsesLenght",
      "outputs": [
        {
          "internalType": "uint256",
          "name": "length",
          "type": "uint256"
        }
      ],
      "stateMutability": "view",
      "type": "function"
    },
    {
      "inputs": [
        {
          "internalType": "uint256",
          "name": "idrace_",
          "type": "uint256"
        }
      ],
      "name": "getRace",
      "outputs": [
        {
          "internalType": "string",
          "name": "name",
          "type": "string"
        },
        {
          "internalType": "uint256",
          "name": "ganadores",
          "type": "uint256"
        },
        {
          "internalType": "uint256",
          "name": "Inscritos",
          "type": "uint256"
        }
      ],
      "stateMutability": "view",
      "type": "function"
    }
  ],
  "bytecode": "0x6080604052600e600c55600c54600a6200001a9190620003f3565b600d556002600e556004600f556004600e54600a6200003a9190620003f3565b62000046919062000360565b601055600e54600a6200005a9190620003f3565b601155600f54600a6200006e9190620003f3565b6012556000601355674563918244f400006014556729a2241af62c0000601555671bc16d674ec80000601655670de0b6b3a76400006017556706f05b59d3b2000060185560026019556003601a556005601b556005601c556005601d556005601e556000601f5560006020556000602155600060225560006023556000602655600a6027553480156200010057600080fd5b506040518060400160405280600781526020017f4d79546f6b656e000000000000000000000000000000000000000000000000008152506040518060400160405280600381526020017f4d544b0000000000000000000000000000000000000000000000000000000000815250816000908051906020019062000185929190620002b0565b5080600190805190602001906200019e929190620002b0565b5050506000600b60006101000a81548160ff021916908315150217905550620001dc620001d0620001e260201b60201c565b620001ea60201b60201c565b6200060a565b600033905090565b6000600b60019054906101000a900473ffffffffffffffffffffffffffffffffffffffff16905081600b60016101000a81548173ffffffffffffffffffffffffffffffffffffffff021916908373ffffffffffffffffffffffffffffffffffffffff1602179055508173ffffffffffffffffffffffffffffffffffffffff168173ffffffffffffffffffffffffffffffffffffffff167f8be0079c531659141344cd1fd0a4f28419497f9722a3daafe3b4186f6b6457e060405160405180910390a35050565b828054620002be906200053a565b90600052602060002090601f016020900481019282620002e257600085556200032e565b82601f10620002fd57805160ff19168380011785556200032e565b828001600101855582156200032e579182015b828111156200032d57825182559160200191906001019062000310565b5b5090506200033d919062000341565b5090565b5b808211156200035c57600081600090555060010162000342565b5090565b60006200036d8262000530565b91506200037a8362000530565b9250826200038d576200038c6200059f565b5b828204905092915050565b6000808291508390505b6001851115620003ea57808604811115620003c257620003c162000570565b5b6001851615620003d25780820291505b8081029050620003e285620005fd565b9450620003a2565b94509492505050565b6000620004008262000530565b91506200040d8362000530565b92506200043c7fffffffffffffffffffffffffffffffffffffffffffffffffffffffffffffffff848462000444565b905092915050565b60008262000456576001905062000529565b8162000466576000905062000529565b81600181146200047f57600281146200048a57620004c0565b600191505062000529565b60ff8411156200049f576200049e62000570565b5b8360020a915084821115620004b957620004b862000570565b5b5062000529565b5060208310610133831016604e8410600b8410161715620004fa5782820a905083811115620004f457620004f362000570565b5b62000529565b62000509848484600162000398565b9250905081840481111562000523576200052262000570565b5b81810290505b9392505050565b6000819050919050565b600060028204905060018216806200055357607f821691505b602082108114156200056a5762000569620005ce565b5b50919050565b7f4e487b7100000000000000000000000000000000000000000000000000000000600052601160045260246000fd5b7f4e487b7100000000000000000000000000000000000000000000000000000000600052601260045260246000fd5b7f4e487b7100000000000000000000000000000000000000000000000000000000600052602260045260246000fd5b60008160011c9050919050565b6165b2806200061a6000396000f3fe6080604052600436106102ae5760003560e01c80636352211e11610175578063aaa6dabb116100dc578063ca65cc5311610095578063e0fdea261161006f578063e0fdea2614610afc578063e985e9c514610b39578063ecb9bce614610b76578063f2fde38b14610ba1576102ae565b8063ca65cc5314610a63578063d570bb6914610aa6578063dacbbb5e14610ad1576102ae565b8063aaa6dabb14610927578063ab80048e14610968578063b88d4fde146109a7578063b95b0975146109d0578063c25b05b4146109fb578063c87b56dd14610a26576102ae565b80638f8b5cde1161012e5780638f8b5cde146107f857806395d89b411461083b5780639881af30146108665780639b1a65c1146108a8578063a0c4cd0e146108d3578063a22cb465146108fe576102ae565b80636352211e14610709578063695850fb1461074657806370a0823114610762578063715018a61461079f5780638456cb59146107b65780638da5cb5b146107cd576102ae565b80632f745c591161021957806342966c68116101d257806342966c68146105e75780634b2fbf52146106105780634d1d86121461064d5780634f63c0a1146106785780634f6ccce7146106a15780635c975abb146106de576102ae565b80632f745c59146104d65780633902fc7c146105135780633a34822e1461053e5780633c76c2ed146105695780633f4ba83a146105a757806342842e0e146105be576102ae565b806311b6dfc61161026b57806311b6dfc6146103e95780631315904a1461040557806318160ddd1461042e5780631e822def1461045957806323b872dd1461048257806323e7d3ce146104ab576102ae565b806301ffc9a7146102b357806306fdde03146102f0578063081812fc1461031b578063095ea7b3146103585780630962ef79146103815780630d71aba5146103aa575b600080fd5b3480156102bf57600080fd5b506102da60048036038101906102d59190614a1d565b610bca565b6040516102e79190615383565b60405180910390f35b3480156102fc57600080fd5b50610305610bdc565b604051610312919061539e565b60405180910390f35b34801561032757600080fd5b50610342600480360381019061033d9190614b5b565b610c6e565b60405161034f91906152fa565b60405180910390f35b34801561036457600080fd5b5061037f600480360381019061037a91906149dd565b610cf3565b005b34801561038d57600080fd5b506103a860048036038101906103a39190614b5b565b610e0b565b005b3480156103b657600080fd5b506103d160048036038101906103cc9190614b5b565b610f99565b6040516103e0939291906153c0565b60405180910390f35b61040360048036038101906103fe9190614b88565b611292565b005b34801561041157600080fd5b5061042c60048036038101906104279190614b5b565b6113aa565b005b34801561043a57600080fd5b506104436114bd565b6040516104509190615843565b60405180910390f35b34801561046557600080fd5b50610480600480360381019061047b9190614ac4565b6114ca565b005b34801561048e57600080fd5b506104a960048036038101906104a491906148c7565b6115b9565b005b3480156104b757600080fd5b506104c0611619565b6040516104cd9190615843565b60405180910390f35b3480156104e257600080fd5b506104fd60048036038101906104f891906149dd565b61161f565b60405161050a9190615843565b60405180910390f35b34801561051f57600080fd5b506105286116c4565b6040516105359190615843565b60405180910390f35b34801561054a57600080fd5b506105536116ca565b6040516105609190615843565b60405180910390f35b34801561057557600080fd5b50610590600480360381019061058b9190614b88565b6116d0565b60405161059e92919061585e565b60405180910390f35b3480156105b357600080fd5b506105bc611732565b005b3480156105ca57600080fd5b506105e560048036038101906105e091906148c7565b6117b8565b005b3480156105f357600080fd5b5061060e60048036038101906106099190614b5b565b6117d8565b005b34801561061c57600080fd5b5061063760048036038101906106329190614b88565b611834565b6040516106449190615361565b60405180910390f35b34801561065957600080fd5b506106626118bb565b60405161066f9190615843565b60405180910390f35b34801561068457600080fd5b5061069f600480360381019061069a9190614b5b565b6118c1565b005b3480156106ad57600080fd5b506106c860048036038101906106c39190614b5b565b611975565b6040516106d59190615843565b60405180910390f35b3480156106ea57600080fd5b506106f36119e6565b6040516107009190615383565b60405180910390f35b34801561071557600080fd5b50610730600480360381019061072b9190614b5b565b6119fd565b60405161073d91906152fa565b60405180910390f35b610760600480360381019061075b9190614a77565b611aaf565b005b34801561076e57600080fd5b506107896004803603810190610784919061485a565b611b38565b6040516107969190615843565b60405180910390f35b3480156107ab57600080fd5b506107b4611bf0565b005b3480156107c257600080fd5b506107cb611c78565b005b3480156107d957600080fd5b506107e2611cfe565b6040516107ef91906152fa565b60405180910390f35b34801561080457600080fd5b5061081f600480360381019061081a9190614b5b565b611d28565b60405161083297969594939291906153fe565b60405180910390f35b34801561084757600080fd5b50610850611f33565b60405161085d919061539e565b60405180910390f35b34801561087257600080fd5b5061088d60048036038101906108889190614b88565b611fc5565b60405161089f96959493929190615911565b60405180910390f35b3480156108b457600080fd5b506108bd612110565b6040516108ca9190615843565b60405180910390f35b3480156108df57600080fd5b506108e8612116565b6040516108f59190615843565b60405180910390f35b34801561090a57600080fd5b506109256004803603810190610920919061499d565b61211c565b005b34801561093357600080fd5b5061094e60048036038101906109499190614b5b565b612132565b60405161095f9594939291906158be565b60405180910390f35b34801561097457600080fd5b5061098f600480360381019061098a9190614b5b565b61221a565b60405161099e93929190615887565b60405180910390f35b3480156109b357600080fd5b506109ce60048036038101906109c9919061491a565b6122a7565b005b3480156109dc57600080fd5b506109e5612309565b6040516109f29190615843565b60405180910390f35b348015610a0757600080fd5b50610a1061230f565b604051610a1d9190615843565b60405180910390f35b348015610a3257600080fd5b50610a4d6004803603810190610a489190614b5b565b612315565b604051610a5a919061539e565b60405180910390f35b348015610a6f57600080fd5b50610a8a6004803603810190610a859190614b5b565b612327565b604051610a9d9796959493929190615972565b60405180910390f35b348015610ab257600080fd5b50610abb6123a9565b604051610ac89190615843565b60405180910390f35b348015610add57600080fd5b50610ae66123af565b604051610af39190615843565b60405180910390f35b348015610b0857600080fd5b50610b236004803603810190610b1e9190614b5b565b6123b5565b604051610b309190615843565b60405180910390f35b348015610b4557600080fd5b50610b606004803603810190610b5b9190614887565b6123e3565b604051610b6d9190615383565b60405180910390f35b348015610b8257600080fd5b50610b8b612477565b604051610b989190615843565b60405180910390f35b348015610bad57600080fd5b50610bc86004803603810190610bc3919061485a565b61247d565b005b6000610bd582612575565b9050919050565b606060008054610beb90615c66565b80601f0160208091040260200160405190810160405280929190818152602001828054610c1790615c66565b8015610c645780601f10610c3957610100808354040283529160200191610c64565b820191906000526020600020905b815481529060010190602001808311610c4757829003601f168201915b5050505050905090565b6000610c79826125ef565b610cb8576040517f08c379a0000000000000000000000000000000000000000000000000000000008152600401610caf90615723565b60405180910390fd5b6004600083815260200190815260200160002060009054906101000a900473ffffffffffffffffffffffffffffffffffffffff169050919050565b6000610cfe826119fd565b90508073ffffffffffffffffffffffffffffffffffffffff168373ffffffffffffffffffffffffffffffffffffffff161415610d6f576040517f08c379a0000000000000000000000000000000000000000000000000000000008152600401610d6690615783565b60405180910390fd5b8073ffffffffffffffffffffffffffffffffffffffff16610d8e61265b565b73ffffffffffffffffffffffffffffffffffffffff161480610dbd5750610dbc81610db761265b565b6123e3565b5b610dfc576040517f08c379a0000000000000000000000000000000000000000000000000000000008152600401610df390615663565b60405180910390fd5b610e068383612663565b505050565b6000602860008381526020019081526020016000209050600060018260060180549050610e389190615b7c565b905060005b818111610f93576000836007018281548110610e5c57610e5b615e09565b5b90600052602060002090600b02016000015490506000846007018381548110610e8857610e87615e09565b5b90600052602060002090600b02016006015490506000808590505b85821015610f50576000876007018381548110610ec357610ec2615e09565b5b90600052602060002090600b02016000015490506000886007018481548110610eef57610eee615e09565b5b90600052602060002090600b0201600601549050848111610f3b578481148015610f1857508582115b15610f2c57600183610f2a9190615b7c565b505b600183610f399190615b7c565b505b8380610f4690615cc9565b9450505050610ea3565b80876007018381548110610f6757610f66615e09565b5b90600052602060002090600b020160080181905550505050508080610f8b90615cc9565b915050610e3d565b50505050565b606060008060006028600086815260200190815260200160002060405180610140016040529081600082018054610fcf90615c66565b80601f0160208091040260200160405190810160405280929190818152602001828054610ffb90615c66565b80156110485780601f1061101d57610100808354040283529160200191611048565b820191906000526020600020905b81548152906001019060200180831161102b57829003601f168201915b5050505050815260200160018201548152602001600282015481526020016003820154815260200160048201548152602001600582018054806020026020016040519081016040528092919081815260200182805480156110c857602002820191906000526020600020905b8154815260200190600101908083116110b4575b5050505050815260200160068201805480602002602001604051908101604052809291908181526020016000905b8282101561118857838290600052602060002090600202016040518060400160405290816000820160009054906101000a900473ffffffffffffffffffffffffffffffffffffffff1673ffffffffffffffffffffffffffffffffffffffff1673ffffffffffffffffffffffffffffffffffffffff168152602001600182015481525050815260200190600101906110f6565b50505050815260200160078201805480602002602001604051908101604052809291908181526020016000905b8282101561125657838290600052602060002090600b02016040518061016001604052908160008201548152602001600182015481526020016002820154815260200160038201548152602001600482015481526020016005820154815260200160068201548152602001600782015481526020016008820154815260200160098201548152602001600a82015481525050815260200190600101906111b5565b505050508152602001600882015481526020016009820154815250509050806000015181606001518260c0015151935093509350509193909250565b60006028600084815260200190815260200160002090506000600182600601805490506112bf9190615af5565b90506000826001015490508082111561130d576040517f08c379a0000000000000000000000000000000000000000000000000000000008152600401611304906157a3565b60405180910390fd5b6000611318856119fd565b90508073ffffffffffffffffffffffffffffffffffffffff1661133961265b565b73ffffffffffffffffffffffffffffffffffffffff161461138f576040517f08c379a000000000000000000000000000000000000000000000000000000000815260040161138690615683565b60405180910390fd5b6113988561271c565b6113a285876127ce565b505050505050565b6113b261265b565b73ffffffffffffffffffffffffffffffffffffffff166113d0611cfe565b73ffffffffffffffffffffffffffffffffffffffff1614611426576040517f08c379a000000000000000000000000000000000000000000000000000000000815260040161141d90615743565b60405180910390fd5b426024828154811061143b5761143a615e09565b5b90600052602060002090601602016009016003018190555060006024828154811061146957611468615e09565b5b906000526020600020906016020160090160040154905060058161148d9190615af5565b602483815481106114a1576114a0615e09565b5b9060005260206000209060160201600901600401819055505050565b6000600880549050905090565b6114d261265b565b73ffffffffffffffffffffffffffffffffffffffff166114f0611cfe565b73ffffffffffffffffffffffffffffffffffffffff1614611546576040517f08c379a000000000000000000000000000000000000000000000000000000000815260040161153d90615743565b60405180910390fd5b60016026546115559190615af5565b602681905550600060286000602654815260200190815260200160002090508581600001908051906020019061158c92919061458b565b50848160010181905550838160020181905550828160030181905550818160040181905550505050505050565b6115ca6115c461265b565b82612895565b611609576040517f08c379a0000000000000000000000000000000000000000000000000000000008152600401611600906157c3565b60405180910390fd5b611614838383612973565b505050565b601e5481565b600061162a83611b38565b821061166b576040517f08c379a000000000000000000000000000000000000000000000000000000000815260040161166290615523565b60405180910390fd5b600660008473ffffffffffffffffffffffffffffffffffffffff1673ffffffffffffffffffffffffffffffffffffffff168152602001908152602001600020600083815260200190815260200160002054905092915050565b601b5481565b60195481565b6000806000602860008681526020019081526020016000209050600081600601858154811061170257611701615e09565b5b90600052602060002090600202016001015490506000826006018054905090508082945094505050509250929050565b61173a61265b565b73ffffffffffffffffffffffffffffffffffffffff16611758611cfe565b73ffffffffffffffffffffffffffffffffffffffff16146117ae576040517f08c379a00000000000000000000000000000000000000000000000000000000081526004016117a590615743565b60405180910390fd5b6117b6612bda565b565b6117d3838383604051806020016040528060008152506122a7565b505050565b6117e96117e361265b565b82612895565b611828576040517f08c379a000000000000000000000000000000000000000000000000000000000815260040161181f90615823565b60405180910390fd5b61183181612c7c565b50565b606060006024848154811061184c5761184b615e09565b5b90600052602060002090601602019050806010016005018054806020026020016040519081016040528092919081815260200182805480156118ad57602002820191906000526020600020905b815481526020019060010190808311611899575b505050505091505092915050565b60225481565b60006118cc826119fd565b90508073ffffffffffffffffffffffffffffffffffffffff166118ed61265b565b73ffffffffffffffffffffffffffffffffffffffff1614611943576040517f08c379a000000000000000000000000000000000000000000000000000000000815260040161193a90615683565b60405180910390fd5b60056024838154811061195957611958615e09565b5b9060005260206000209060160201600901600001819055505050565b600061197f6114bd565b82106119c0576040517f08c379a00000000000000000000000000000000000000000000000000000000081526004016119b7906157e3565b60405180910390fd5b600882815481106119d4576119d3615e09565b5b90600052602060002001549050919050565b6000600b60009054906101000a900460ff16905090565b6000806002600084815260200190815260200160002060009054906101000a900473ffffffffffffffffffffffffffffffffffffffff169050600073ffffffffffffffffffffffffffffffffffffffff168173ffffffffffffffffffffffffffffffffffffffff161415611aa6576040517f08c379a0000000000000000000000000000000000000000000000000000000008152600401611a9d906156c3565b60405180910390fd5b80915050919050565b60003490506000611abf82612c88565b90506000611acd6025612ee7565b9050611ad96025612ef5565b611ae33382612f0b565b611b3185858080601f016020809104026020016040519081016040528093929190818152602001838380828437600081840152601f19601f8201169050808301925050505050505083612f29565b5050505050565b60008073ffffffffffffffffffffffffffffffffffffffff168273ffffffffffffffffffffffffffffffffffffffff161415611ba9576040517f08c379a0000000000000000000000000000000000000000000000000000000008152600401611ba0906156a3565b60405180910390fd5b600360008373ffffffffffffffffffffffffffffffffffffffff1673ffffffffffffffffffffffffffffffffffffffff168152602001908152602001600020549050919050565b611bf861265b565b73ffffffffffffffffffffffffffffffffffffffff16611c16611cfe565b73ffffffffffffffffffffffffffffffffffffffff1614611c6c576040517f08c379a0000000000000000000000000000000000000000000000000000000008152600401611c6390615743565b60405180910390fd5b611c76600061330d565b565b611c8061265b565b73ffffffffffffffffffffffffffffffffffffffff16611c9e611cfe565b73ffffffffffffffffffffffffffffffffffffffff1614611cf4576040517f08c379a0000000000000000000000000000000000000000000000000000000008152600401611ceb90615743565b60405180910390fd5b611cfc6133d3565b565b6000600b60019054906101000a900473ffffffffffffffffffffffffffffffffffffffff16905090565b60248181548110611d3857600080fd5b9060005260206000209060160201600091509050806000018054611d5b90615c66565b80601f0160208091040260200160405190810160405280929190818152602001828054611d8790615c66565b8015611dd45780601f10611da957610100808354040283529160200191611dd4565b820191906000526020600020905b815481529060010190602001808311611db757829003601f168201915b505050505090806001015490806002015490806003015490806004016040518060a00160405290816000820154815260200160018201548152602001600282015481526020016003820154815260200160048201548152505090806009016040518060e001604052908160008201548152602001600182015481526020016002820154815260200160038201548152602001600482015481526020016005820154815260200160068201548152505090806010016040518060c0016040529081600082015481526020016001820154815260200160028201548152602001600382015481526020016004820160009054906101000a900460ff1615151515815260200160058201805480602002602001604051908101604052809291908181526020018280548015611f2557602002820191906000526020600020905b815481526020019060010190808311611f11575b505050505081525050905087565b606060018054611f4290615c66565b80601f0160208091040260200160405190810160405280929190818152602001828054611f6e90615c66565b8015611fbb5780601f10611f9057610100808354040283529160200191611fbb565b820191906000526020600020905b815481529060010190602001808311611f9e57829003601f168201915b5050505050905090565b6000806000806000806000602860008a815260200190815260200160002090506000816007018981548110611ffd57611ffc615e09565b5b90600052602060002090600b02016000015490506000826007018a8154811061202957612028615e09565b5b90600052602060002090600b02016001015490506000836007018b8154811061205557612054615e09565b5b90600052602060002090600b02016002015490506000846007018c8154811061208157612080615e09565b5b90600052602060002090600b02016003015490506000856007018d815481106120ad576120ac615e09565b5b90600052602060002090600b02016004015490506000866007018e815481106120d9576120d8615e09565b5b90600052602060002090600b02016006015490508585858585859c509c509c509c509c509c50505050505050509295509295509295565b601c5481565b60235481565b61212e61212761265b565b8383613476565b5050565b60008060008060006024868154811061214e5761214d615e09565b5b90600052602060002090601602016004016000015494506024868154811061217957612178615e09565b5b9060005260206000209060160201600401600101549350602486815481106121a4576121a3615e09565b5b9060005260206000209060160201600401600201549250602486815481106121cf576121ce615e09565b5b9060005260206000209060160201600401600301549150602486815481106121fa576121f9615e09565b5b906000526020600020906016020160040160040154905091939590929450565b60008060006024848154811061223357612232615e09565b5b90600052602060002090601602016010016000015492506024848154811061225e5761225d615e09565b5b90600052602060002090601602016010016001015491506024848154811061228957612288615e09565b5b90600052602060002090601602016010016002015490509193909250565b6122b86122b261265b565b83612895565b6122f7576040517f08c379a00000000000000000000000000000000000000000000000000000000081526004016122ee906157c3565b60405180910390fd5b612303848484846135e3565b50505050565b60215481565b60205481565b60606123208261363f565b9050919050565b6000806000806000806000806024898154811061234757612346615e09565b5b906000526020600020906016020190508060090160000154816009016001015482600901600201548360090160030154846009016004015485600901600501548660090160060154975097509750975097509750975050919395979092949650565b601f5481565b601d5481565b6000806028600084815260200190815260200160002090506000816006018054905090508092505050919050565b6000600560008473ffffffffffffffffffffffffffffffffffffffff1673ffffffffffffffffffffffffffffffffffffffff16815260200190815260200160002060008373ffffffffffffffffffffffffffffffffffffffff1673ffffffffffffffffffffffffffffffffffffffff16815260200190815260200160002060009054906101000a900460ff16905092915050565b601a5481565b61248561265b565b73ffffffffffffffffffffffffffffffffffffffff166124a3611cfe565b73ffffffffffffffffffffffffffffffffffffffff16146124f9576040517f08c379a00000000000000000000000000000000000000000000000000000000081526004016124f090615743565b60405180910390fd5b600073ffffffffffffffffffffffffffffffffffffffff168173ffffffffffffffffffffffffffffffffffffffff161415612569576040517f08c379a000000000000000000000000000000000000000000000000000000000815260040161256090615583565b60405180910390fd5b6125728161330d565b50565b60007f780e9d63000000000000000000000000000000000000000000000000000000007bffffffffffffffffffffffffffffffffffffffffffffffffffffffff1916827bffffffffffffffffffffffffffffffffffffffffffffffffffffffff191614806125e857506125e782613791565b5b9050919050565b60008073ffffffffffffffffffffffffffffffffffffffff166002600084815260200190815260200160002060009054906101000a900473ffffffffffffffffffffffffffffffffffffffff1673ffffffffffffffffffffffffffffffffffffffff1614159050919050565b600033905090565b816004600083815260200190815260200160002060006101000a81548173ffffffffffffffffffffffffffffffffffffffff021916908373ffffffffffffffffffffffffffffffffffffffff160217905550808273ffffffffffffffffffffffffffffffffffffffff166126d6836119fd565b73ffffffffffffffffffffffffffffffffffffffff167f8c5be1e5ebec7d5bd14f71427d1e84f3dd0314c0f7b2291e5b200ac8c7c3b92560405160405180910390a45050565b60006024828154811061273257612731615e09565b5b906000526020600020906016020160100160030154905060006078826127589190615af5565b905042811061279c576040517f08c379a000000000000000000000000000000000000000000000000000000000815260040161279390615803565b60405180910390fd5b42602484815481106127b1576127b0615e09565b5b906000526020600020906016020160100160030181905550505050565b60006028600083815260200190815260200160002090508060060160405180604001604052803373ffffffffffffffffffffffffffffffffffffffff16815260200185815250908060018154018082558091505060019003906000526020600020906002020160009091909190915060008201518160000160006101000a81548173ffffffffffffffffffffffffffffffffffffffff021916908373ffffffffffffffffffffffffffffffffffffffff160217905550602082015181600101555050505050565b60006128a0826125ef565b6128df576040517f08c379a00000000000000000000000000000000000000000000000000000000081526004016128d690615623565b60405180910390fd5b60006128ea836119fd565b90508073ffffffffffffffffffffffffffffffffffffffff168473ffffffffffffffffffffffffffffffffffffffff16148061295957508373ffffffffffffffffffffffffffffffffffffffff1661294184610c6e565b73ffffffffffffffffffffffffffffffffffffffff16145b8061296a575061296981856123e3565b5b91505092915050565b8273ffffffffffffffffffffffffffffffffffffffff16612993826119fd565b73ffffffffffffffffffffffffffffffffffffffff16146129e9576040517f08c379a00000000000000000000000000000000000000000000000000000000081526004016129e0906155a3565b60405180910390fd5b600073ffffffffffffffffffffffffffffffffffffffff168273ffffffffffffffffffffffffffffffffffffffff161415612a59576040517f08c379a0000000000000000000000000000000000000000000000000000000008152600401612a50906155e3565b60405180910390fd5b612a64838383613873565b612a6f600082612663565b6001600360008573ffffffffffffffffffffffffffffffffffffffff1673ffffffffffffffffffffffffffffffffffffffff1681526020019081526020016000206000828254612abf9190615b7c565b925050819055506001600360008473ffffffffffffffffffffffffffffffffffffffff1673ffffffffffffffffffffffffffffffffffffffff1681526020019081526020016000206000828254612b169190615af5565b92505081905550816002600083815260200190815260200160002060006101000a81548173ffffffffffffffffffffffffffffffffffffffff021916908373ffffffffffffffffffffffffffffffffffffffff160217905550808273ffffffffffffffffffffffffffffffffffffffff168473ffffffffffffffffffffffffffffffffffffffff167fddf252ad1be2c89b69c2b068fc378daa952ba7f163c4a11628f55a4df523b3ef60405160405180910390a4612bd58383836138cb565b505050565b612be26119e6565b612c21576040517f08c379a0000000000000000000000000000000000000000000000000000000008152600401612c1890615503565b60405180910390fd5b6000600b60006101000a81548160ff0219169083151502179055507f5db9ee0a495bf2e6ff9c91a7834c1ba4fdd244a5e8aa4e537bd38aeae4b073aa612c6561265b565b604051612c7291906152fa565b60405180910390a1565b612c85816138d0565b50565b6000601454821415612cf857601f5460195411612cda576040517f08c379a0000000000000000000000000000000000000000000000000000000008152600401612cd190615563565b60405180910390fd5b6001601f54612ce99190615af5565b601f8190555060af9050612ee2565b601554821415612d6657602054601a5411612d48576040517f08c379a0000000000000000000000000000000000000000000000000000000008152600401612d3f90615563565b60405180910390fd5b6001602054612d579190615af5565b60208190555060969050612ee2565b601654821415612dd457602154601b5411612db6576040517f08c379a0000000000000000000000000000000000000000000000000000000008152600401612dad90615563565b60405180910390fd5b6001602154612dc59190615af5565b602181905550607d9050612ee2565b601754821415612e4257602254601c5411612e24576040517f08c379a0000000000000000000000000000000000000000000000000000000008152600401612e1b90615563565b60405180910390fd5b6001602254612e339190615af5565b60228190555060649050612ee2565b601854821415612eb057602354601d5411612e92576040517f08c379a0000000000000000000000000000000000000000000000000000000008152600401612e8990615563565b60405180910390fd5b6001602354612ea19190615af5565b602381905550604b9050612ee2565b6040517f2c5211c600000000000000000000000000000000000000000000000000000000815260040160405180910390fd5b919050565b600081600001549050919050565b6001816000016000828254019250508190555050565b612f25828260405180602001604052806000815250613923565b5050565b6000612f348361397e565b90506000606490506000601960115484612f4e9190615d1c565b612f589190615af5565b90506000612f65866139c5565b85612f709190615af5565b90506000612fb26040518060400160405280600581526020017f706f6c6b610000000000000000000000000000000000000000000000000000008152506139c5565b86612fbd9190615af5565b90506000612fff6040518060400160405280600581526020017f686f7273650000000000000000000000000000000000000000000000000000008152506139c5565b8761300a9190615af5565b905060006103e86002601254896130219190615d1c565b61302b9190615b4b565b6130359190615af5565b905060006040518060e001604052806000815260200160008152602001600081526020014281526020016064815260200183815260200187815250905060006040518060a001604052806000815260200160008152602001600081526020014281526020016000815250905060006040518060c00160405280600081526020016000815260200160008152602001428152602001600015158152602001600067ffffffffffffffff8111156130ed576130ec615e38565b5b60405190808252806020026020018201604052801561311b5781602001602082028036833780820191505090505b50815250905060246040518060e001604052808e8152602001898152602001888152602001878152602001848152602001858152602001838152509080600181540180825580915050600190039060005260206000209060160201600090919091909150600082015181600001908051906020019061319b92919061458b565b506020820151816001015560408201518160020155606082015181600301556080820151816004016000820151816000015560208201518160010155604082015181600201556060820151816003015560808201518160040155505060a082015181600901600082015181600001556020820151816001015560408201518160020155606082015181600301556080820151816004015560a0820151816005015560c08201518160060155505060c0820151816010016000820151816000015560208201518160010155604082015181600201556060820151816003015560808201518160040160006101000a81548160ff02191690831515021790555060a08201518160050190805190602001906132b5929190614611565b50505050507fa1515860511710b224709a9232efcae4b1380eefe7402417c5dc9d4681cf19188c8b8989898e8a8f6040516132f798979695949392919061547e565b60405180910390a1505050505050505050505050565b6000600b60019054906101000a900473ffffffffffffffffffffffffffffffffffffffff16905081600b60016101000a81548173ffffffffffffffffffffffffffffffffffffffff021916908373ffffffffffffffffffffffffffffffffffffffff1602179055508173ffffffffffffffffffffffffffffffffffffffff168173ffffffffffffffffffffffffffffffffffffffff167f8be0079c531659141344cd1fd0a4f28419497f9722a3daafe3b4186f6b6457e060405160405180910390a35050565b6133db6119e6565b1561341b576040517f08c379a000000000000000000000000000000000000000000000000000000000815260040161341290615643565b60405180910390fd5b6001600b60006101000a81548160ff0219169083151502179055507f62e78cea01bee320cd4e420270b5ea74000d11b0c9f74754ebdbfc544b05a25861345f61265b565b60405161346c91906152fa565b60405180910390a1565b8173ffffffffffffffffffffffffffffffffffffffff168373ffffffffffffffffffffffffffffffffffffffff1614156134e5576040517f08c379a00000000000000000000000000000000000000000000000000000000081526004016134dc90615603565b60405180910390fd5b80600560008573ffffffffffffffffffffffffffffffffffffffff1673ffffffffffffffffffffffffffffffffffffffff16815260200190815260200160002060008473ffffffffffffffffffffffffffffffffffffffff1673ffffffffffffffffffffffffffffffffffffffff16815260200190815260200160002060006101000a81548160ff0219169083151502179055508173ffffffffffffffffffffffffffffffffffffffff168373ffffffffffffffffffffffffffffffffffffffff167f17307eab39ab6107e8899845ad3d59bd9653f200f220920489ca2b5937696c31836040516135d69190615383565b60405180910390a3505050565b6135ee848484612973565b6135fa84848484613a0c565b613639576040517f08c379a000000000000000000000000000000000000000000000000000000000815260040161363090615543565b60405180910390fd5b50505050565b606061364a826125ef565b613689576040517f08c379a000000000000000000000000000000000000000000000000000000000815260040161368090615703565b60405180910390fd5b6000600a600084815260200190815260200160002080546136a990615c66565b80601f01602080910402602001604051908101604052809291908181526020018280546136d590615c66565b80156137225780601f106136f757610100808354040283529160200191613722565b820191906000526020600020905b81548152906001019060200180831161370557829003601f168201915b505050505090506000613733613ba3565b905060008151141561374957819250505061378c565b60008251111561377e5780826040516020016137669291906152ae565b6040516020818303038152906040529250505061378c565b61378784613be0565b925050505b919050565b60007f80ac58cd000000000000000000000000000000000000000000000000000000007bffffffffffffffffffffffffffffffffffffffffffffffffffffffff1916827bffffffffffffffffffffffffffffffffffffffffffffffffffffffff1916148061385c57507f5b5e139f000000000000000000000000000000000000000000000000000000007bffffffffffffffffffffffffffffffffffffffffffffffffffffffff1916827bffffffffffffffffffffffffffffffffffffffffffffffffffffffff1916145b8061386c575061386b82613c87565b5b9050919050565b61387b6119e6565b156138bb576040517f08c379a00000000000000000000000000000000000000000000000000000000081526004016138b290615643565b60405180910390fd5b6138c6838383613cf1565b505050565b505050565b6138d981613e05565b6000600a600083815260200190815260200160002080546138f990615c66565b90501461392057600a6000828152602001908152602001600020600061391f919061465e565b5b50565b61392d8383613f22565b61393a6000848484613a0c565b613979576040517f08c379a000000000000000000000000000000000000000000000000000000000815260040161397090615543565b60405180910390fd5b505050565b60008082426040516020016139949291906152d2565b6040516020818303038152906040528051906020012060001c9050600d54816139bd9190615d1c565b915050919050565b60008082426040516020016139db9291906152d2565b6040516020818303038152906040528051906020012060001c905060105481613a049190615d1c565b915050919050565b6000613a2d8473ffffffffffffffffffffffffffffffffffffffff166140fc565b15613b96578373ffffffffffffffffffffffffffffffffffffffff1663150b7a02613a5661265b565b8786866040518563ffffffff1660e01b8152600401613a789493929190615315565b602060405180830381600087803b158015613a9257600080fd5b505af1925050508015613ac357506040513d601f19601f82011682018060405250810190613ac09190614a4a565b60015b613b46573d8060008114613af3576040519150601f19603f3d011682016040523d82523d6000602084013e613af8565b606091505b50600081511415613b3e576040517f08c379a0000000000000000000000000000000000000000000000000000000008152600401613b3590615543565b60405180910390fd5b805181602001fd5b63150b7a0260e01b7bffffffffffffffffffffffffffffffffffffffffffffffffffffffff1916817bffffffffffffffffffffffffffffffffffffffffffffffffffffffff191614915050613b9b565b600190505b949350505050565b60606040518060400160405280601481526020017f68747470732f2f7777772e706f6c682e636f6d2f000000000000000000000000815250905090565b6060613beb826125ef565b613c2a576040517f08c379a0000000000000000000000000000000000000000000000000000000008152600401613c2190615763565b60405180910390fd5b6000613c34613ba3565b90506000815111613c545760405180602001604052806000815250613c7f565b80613c5e8461411f565b604051602001613c6f9291906152ae565b6040516020818303038152906040525b915050919050565b60007f01ffc9a7000000000000000000000000000000000000000000000000000000007bffffffffffffffffffffffffffffffffffffffffffffffffffffffff1916827bffffffffffffffffffffffffffffffffffffffffffffffffffffffff1916149050919050565b613cfc838383614280565b600073ffffffffffffffffffffffffffffffffffffffff168373ffffffffffffffffffffffffffffffffffffffff161415613d3f57613d3a81614285565b613d7e565b8173ffffffffffffffffffffffffffffffffffffffff168373ffffffffffffffffffffffffffffffffffffffff1614613d7d57613d7c83826142ce565b5b5b600073ffffffffffffffffffffffffffffffffffffffff168273ffffffffffffffffffffffffffffffffffffffff161415613dc157613dbc8161443b565b613e00565b8273ffffffffffffffffffffffffffffffffffffffff168273ffffffffffffffffffffffffffffffffffffffff1614613dff57613dfe828261450c565b5b5b505050565b6000613e10826119fd565b9050613e1e81600084613873565b613e29600083612663565b6001600360008373ffffffffffffffffffffffffffffffffffffffff1673ffffffffffffffffffffffffffffffffffffffff1681526020019081526020016000206000828254613e799190615b7c565b925050819055506002600083815260200190815260200160002060006101000a81549073ffffffffffffffffffffffffffffffffffffffff021916905581600073ffffffffffffffffffffffffffffffffffffffff168273ffffffffffffffffffffffffffffffffffffffff167fddf252ad1be2c89b69c2b068fc378daa952ba7f163c4a11628f55a4df523b3ef60405160405180910390a4613f1e816000846138cb565b5050565b600073ffffffffffffffffffffffffffffffffffffffff168273ffffffffffffffffffffffffffffffffffffffff161415613f92576040517f08c379a0000000000000000000000000000000000000000000000000000000008152600401613f89906156e3565b60405180910390fd5b613f9b816125ef565b15613fdb576040517f08c379a0000000000000000000000000000000000000000000000000000000008152600401613fd2906155c3565b60405180910390fd5b613fe760008383613873565b6001600360008473ffffffffffffffffffffffffffffffffffffffff1673ffffffffffffffffffffffffffffffffffffffff16815260200190815260200160002060008282546140379190615af5565b92505081905550816002600083815260200190815260200160002060006101000a81548173ffffffffffffffffffffffffffffffffffffffff021916908373ffffffffffffffffffffffffffffffffffffffff160217905550808273ffffffffffffffffffffffffffffffffffffffff16600073ffffffffffffffffffffffffffffffffffffffff167fddf252ad1be2c89b69c2b068fc378daa952ba7f163c4a11628f55a4df523b3ef60405160405180910390a46140f8600083836138cb565b5050565b6000808273ffffffffffffffffffffffffffffffffffffffff163b119050919050565b60606000821415614167576040518060400160405280600181526020017f3000000000000000000000000000000000000000000000000000000000000000815250905061427b565b600082905060005b6000821461419957808061418290615cc9565b915050600a826141929190615b4b565b915061416f565b60008167ffffffffffffffff8111156141b5576141b4615e38565b5b6040519080825280601f01601f1916602001820160405280156141e75781602001600182028036833780820191505090505b5090505b60008514614274576001826142009190615b7c565b9150600a8561420f9190615d1c565b603061421b9190615af5565b60f81b81838151811061423157614230615e09565b5b60200101907effffffffffffffffffffffffffffffffffffffffffffffffffffffffffffff1916908160001a905350600a8561426d9190615b4b565b94506141eb565b8093505050505b919050565b505050565b6008805490506009600083815260200190815260200160002081905550600881908060018154018082558091505060019003906000526020600020016000909190919091505550565b600060016142db84611b38565b6142e59190615b7c565b90506000600760008481526020019081526020016000205490508181146143ca576000600660008673ffffffffffffffffffffffffffffffffffffffff1673ffffffffffffffffffffffffffffffffffffffff168152602001908152602001600020600084815260200190815260200160002054905080600660008773ffffffffffffffffffffffffffffffffffffffff1673ffffffffffffffffffffffffffffffffffffffff168152602001908152602001600020600084815260200190815260200160002081905550816007600083815260200190815260200160002081905550505b6007600084815260200190815260200160002060009055600660008573ffffffffffffffffffffffffffffffffffffffff1673ffffffffffffffffffffffffffffffffffffffff16815260200190815260200160002060008381526020019081526020016000206000905550505050565b6000600160088054905061444f9190615b7c565b905060006009600084815260200190815260200160002054905060006008838154811061447f5761447e615e09565b5b9060005260206000200154905080600883815481106144a1576144a0615e09565b5b9060005260206000200181905550816009600083815260200190815260200160002081905550600960008581526020019081526020016000206000905560088054806144f0576144ef615dda565b5b6001900381819060005260206000200160009055905550505050565b600061451783611b38565b905081600660008573ffffffffffffffffffffffffffffffffffffffff1673ffffffffffffffffffffffffffffffffffffffff168152602001908152602001600020600083815260200190815260200160002081905550806007600084815260200190815260200160002081905550505050565b82805461459790615c66565b90600052602060002090601f0160209004810192826145b95760008555614600565b82601f106145d257805160ff1916838001178555614600565b82800160010185558215614600579182015b828111156145ff5782518255916020019190600101906145e4565b5b50905061460d919061469e565b5090565b82805482825590600052602060002090810192821561464d579160200282015b8281111561464c578251825591602001919060010190614631565b5b50905061465a919061469e565b5090565b50805461466a90615c66565b6000825580601f1061467c575061469b565b601f01602090049060005260206000209081019061469a919061469e565b5b50565b5b808211156146b757600081600090555060010161469f565b5090565b60006146ce6146c984615a06565b6159e1565b9050828152602081018484840111156146ea576146e9615e76565b5b6146f5848285615c24565b509392505050565b600061471061470b84615a37565b6159e1565b90508281526020810184848401111561472c5761472b615e76565b5b614737848285615c24565b509392505050565b60008135905061474e81616520565b92915050565b60008135905061476381616537565b92915050565b6000813590506147788161654e565b92915050565b60008151905061478d8161654e565b92915050565b600082601f8301126147a8576147a7615e6c565b5b81356147b88482602086016146bb565b91505092915050565b60008083601f8401126147d7576147d6615e6c565b5b8235905067ffffffffffffffff8111156147f4576147f3615e67565b5b6020830191508360018202830111156148105761480f615e71565b5b9250929050565b600082601f83011261482c5761482b615e6c565b5b813561483c8482602086016146fd565b91505092915050565b60008135905061485481616565565b92915050565b6000602082840312156148705761486f615e80565b5b600061487e8482850161473f565b91505092915050565b6000806040838503121561489e5761489d615e80565b5b60006148ac8582860161473f565b92505060206148bd8582860161473f565b9150509250929050565b6000806000606084860312156148e0576148df615e80565b5b60006148ee8682870161473f565b93505060206148ff8682870161473f565b925050604061491086828701614845565b9150509250925092565b6000806000806080858703121561493457614933615e80565b5b60006149428782880161473f565b94505060206149538782880161473f565b935050604061496487828801614845565b925050606085013567ffffffffffffffff81111561498557614984615e7b565b5b61499187828801614793565b91505092959194509250565b600080604083850312156149b4576149b3615e80565b5b60006149c28582860161473f565b92505060206149d385828601614754565b9150509250929050565b600080604083850312156149f4576149f3615e80565b5b6000614a028582860161473f565b9250506020614a1385828601614845565b9150509250929050565b600060208284031215614a3357614a32615e80565b5b6000614a4184828501614769565b91505092915050565b600060208284031215614a6057614a5f615e80565b5b6000614a6e8482850161477e565b91505092915050565b60008060208385031215614a8e57614a8d615e80565b5b600083013567ffffffffffffffff811115614aac57614aab615e7b565b5b614ab8858286016147c1565b92509250509250929050565b600080600080600060a08688031215614ae057614adf615e80565b5b600086013567ffffffffffffffff811115614afe57614afd615e7b565b5b614b0a88828901614817565b9550506020614b1b88828901614845565b9450506040614b2c88828901614845565b9350506060614b3d88828901614845565b9250506080614b4e88828901614845565b9150509295509295909350565b600060208284031215614b7157614b70615e80565b5b6000614b7f84828501614845565b91505092915050565b60008060408385031215614b9f57614b9e615e80565b5b6000614bad85828601614845565b9250506020614bbe85828601614845565b9150509250929050565b6000614bd48383615279565b60208301905092915050565b614be981615bb0565b82525050565b6000614bfa82615a78565b614c048185615aa6565b9350614c0f83615a68565b8060005b83811015614c40578151614c278882614bc8565b9750614c3283615a99565b925050600181019050614c13565b5085935050505092915050565b6000614c5882615a78565b614c628185615ab7565b9350614c6d83615a68565b8060005b83811015614c9e578151614c858882614bc8565b9750614c9083615a99565b925050600181019050614c71565b5085935050505092915050565b614cb481615bc2565b82525050565b614cc381615bc2565b82525050565b6000614cd482615a83565b614cde8185615ac8565b9350614cee818560208601615c33565b614cf781615e85565b840191505092915050565b6000614d0d82615a8e565b614d178185615ad9565b9350614d27818560208601615c33565b614d3081615e85565b840191505092915050565b6000614d4682615a8e565b614d508185615aea565b9350614d60818560208601615c33565b80840191505092915050565b6000614d79601483615ad9565b9150614d8482615e96565b602082019050919050565b6000614d9c602b83615ad9565b9150614da782615ebf565b604082019050919050565b6000614dbf603283615ad9565b9150614dca82615f0e565b604082019050919050565b6000614de2600a83615ad9565b9150614ded82615f5d565b602082019050919050565b6000614e05602683615ad9565b9150614e1082615f86565b604082019050919050565b6000614e28602583615ad9565b9150614e3382615fd5565b604082019050919050565b6000614e4b601c83615ad9565b9150614e5682616024565b602082019050919050565b6000614e6e602483615ad9565b9150614e798261604d565b604082019050919050565b6000614e91601983615ad9565b9150614e9c8261609c565b602082019050919050565b6000614eb4602c83615ad9565b9150614ebf826160c5565b604082019050919050565b6000614ed7601083615ad9565b9150614ee282616114565b602082019050919050565b6000614efa603883615ad9565b9150614f058261613d565b604082019050919050565b6000614f1d601383615ad9565b9150614f288261618c565b602082019050919050565b6000614f40602a83615ad9565b9150614f4b826161b5565b604082019050919050565b6000614f63602983615ad9565b9150614f6e82616204565b604082019050919050565b6000614f86602083615ad9565b9150614f9182616253565b602082019050919050565b6000614fa9603183615ad9565b9150614fb48261627c565b604082019050919050565b6000614fcc602c83615ad9565b9150614fd7826162cb565b604082019050919050565b6000614fef602083615ad9565b9150614ffa8261631a565b602082019050919050565b6000615012602f83615ad9565b915061501d82616343565b604082019050919050565b6000615035602183615ad9565b915061504082616392565b604082019050919050565b6000615058601483615ad9565b9150615063826163e1565b602082019050919050565b600061507b603183615ad9565b91506150868261640a565b604082019050919050565b600061509e602c83615ad9565b91506150a982616459565b604082019050919050565b60006150c1601383615ad9565b91506150cc826164a8565b602082019050919050565b60006150e4603083615ad9565b91506150ef826164d1565b604082019050919050565b600060c0830160008301516151126000860182615279565b5060208301516151256020860182615279565b5060408301516151386040860182615279565b50606083015161514b6060860182615279565b50608083015161515e6080860182614cab565b5060a083015184820360a08601526151768282614bef565b9150508091505092915050565b60a0820160008201516151996000850182615279565b5060208201516151ac6020850182615279565b5060408201516151bf6040850182615279565b5060608201516151d26060850182615279565b5060808201516151e56080850182615279565b50505050565b60e0820160008201516152016000850182615279565b5060208201516152146020850182615279565b5060408201516152276040850182615279565b50606082015161523a6060850182615279565b50608082015161524d6080850182615279565b5060a082015161526060a0850182615279565b5060c082015161527360c0850182615279565b50505050565b61528281615c1a565b82525050565b61529181615c1a565b82525050565b6152a86152a382615c1a565b615d12565b82525050565b60006152ba8285614d3b565b91506152c68284614d3b565b91508190509392505050565b60006152de8285614d3b565b91506152ea8284615297565b6020820191508190509392505050565b600060208201905061530f6000830184614be0565b92915050565b600060808201905061532a6000830187614be0565b6153376020830186614be0565b6153446040830185615288565b81810360608301526153568184614cc9565b905095945050505050565b6000602082019050818103600083015261537b8184614c4d565b905092915050565b60006020820190506153986000830184614cba565b92915050565b600060208201905081810360008301526153b88184614d02565b905092915050565b600060608201905081810360008301526153da8186614d02565b90506153e96020830185615288565b6153f66040830184615288565b949350505050565b6000610220820190508181036000830152615419818a614d02565b90506154286020830189615288565b6154356040830188615288565b6154426060830187615288565b61544f6080830186615183565b61545d6101208301856151eb565b81810361020083015261547081846150fa565b905098975050505050505050565b6000610100820190508181036000830152615499818b614d02565b90506154a8602083018a615288565b6154b56040830189615288565b6154c26060830188615288565b6154cf6080830187615288565b6154dc60a0830186615288565b6154e960c0830185615288565b6154f660e0830184615288565b9998505050505050505050565b6000602082019050818103600083015261551c81614d6c565b9050919050565b6000602082019050818103600083015261553c81614d8f565b9050919050565b6000602082019050818103600083015261555c81614db2565b9050919050565b6000602082019050818103600083015261557c81614dd5565b9050919050565b6000602082019050818103600083015261559c81614df8565b9050919050565b600060208201905081810360008301526155bc81614e1b565b9050919050565b600060208201905081810360008301526155dc81614e3e565b9050919050565b600060208201905081810360008301526155fc81614e61565b9050919050565b6000602082019050818103600083015261561c81614e84565b9050919050565b6000602082019050818103600083015261563c81614ea7565b9050919050565b6000602082019050818103600083015261565c81614eca565b9050919050565b6000602082019050818103600083015261567c81614eed565b9050919050565b6000602082019050818103600083015261569c81614f10565b9050919050565b600060208201905081810360008301526156bc81614f33565b9050919050565b600060208201905081810360008301526156dc81614f56565b9050919050565b600060208201905081810360008301526156fc81614f79565b9050919050565b6000602082019050818103600083015261571c81614f9c565b9050919050565b6000602082019050818103600083015261573c81614fbf565b9050919050565b6000602082019050818103600083015261575c81614fe2565b9050919050565b6000602082019050818103600083015261577c81615005565b9050919050565b6000602082019050818103600083015261579c81615028565b9050919050565b600060208201905081810360008301526157bc8161504b565b9050919050565b600060208201905081810360008301526157dc8161506e565b9050919050565b600060208201905081810360008301526157fc81615091565b9050919050565b6000602082019050818103600083015261581c816150b4565b9050919050565b6000602082019050818103600083015261583c816150d7565b9050919050565b60006020820190506158586000830184615288565b92915050565b60006040820190506158736000830185615288565b6158806020830184615288565b9392505050565b600060608201905061589c6000830186615288565b6158a96020830185615288565b6158b66040830184615288565b949350505050565b600060a0820190506158d36000830188615288565b6158e06020830187615288565b6158ed6040830186615288565b6158fa6060830185615288565b6159076080830184615288565b9695505050505050565b600060c0820190506159266000830189615288565b6159336020830188615288565b6159406040830187615288565b61594d6060830186615288565b61595a6080830185615288565b61596760a0830184615288565b979650505050505050565b600060e082019050615987600083018a615288565b6159946020830189615288565b6159a16040830188615288565b6159ae6060830187615288565b6159bb6080830186615288565b6159c860a0830185615288565b6159d560c0830184615288565b98975050505050505050565b60006159eb6159fc565b90506159f78282615c98565b919050565b6000604051905090565b600067ffffffffffffffff821115615a2157615a20615e38565b5b615a2a82615e85565b9050602081019050919050565b600067ffffffffffffffff821115615a5257615a51615e38565b5b615a5b82615e85565b9050602081019050919050565b6000819050602082019050919050565b600081519050919050565b600081519050919050565b600081519050919050565b6000602082019050919050565b600082825260208201905092915050565b600082825260208201905092915050565b600082825260208201905092915050565b600082825260208201905092915050565b600081905092915050565b6000615b0082615c1a565b9150615b0b83615c1a565b9250827fffffffffffffffffffffffffffffffffffffffffffffffffffffffffffffffff03821115615b4057615b3f615d4d565b5b828201905092915050565b6000615b5682615c1a565b9150615b6183615c1a565b925082615b7157615b70615d7c565b5b828204905092915050565b6000615b8782615c1a565b9150615b9283615c1a565b925082821015615ba557615ba4615d4d565b5b828203905092915050565b6000615bbb82615bfa565b9050919050565b60008115159050919050565b60007fffffffff0000000000000000000000000000000000000000000000000000000082169050919050565b600073ffffffffffffffffffffffffffffffffffffffff82169050919050565b6000819050919050565b82818337600083830152505050565b60005b83811015615c51578082015181840152602081019050615c36565b83811115615c60576000848401525b50505050565b60006002820490506001821680615c7e57607f821691505b60208210811415615c9257615c91615dab565b5b50919050565b615ca182615e85565b810181811067ffffffffffffffff82111715615cc057615cbf615e38565b5b80604052505050565b6000615cd482615c1a565b91507fffffffffffffffffffffffffffffffffffffffffffffffffffffffffffffffff821415615d0757615d06615d4d565b5b600182019050919050565b6000819050919050565b6000615d2782615c1a565b9150615d3283615c1a565b925082615d4257615d41615d7c565b5b828206905092915050565b7f4e487b7100000000000000000000000000000000000000000000000000000000600052601160045260246000fd5b7f4e487b7100000000000000000000000000000000000000000000000000000000600052601260045260246000fd5b7f4e487b7100000000000000000000000000000000000000000000000000000000600052602260045260246000fd5b7f4e487b7100000000000000000000000000000000000000000000000000000000600052603160045260246000fd5b7f4e487b7100000000000000000000000000000000000000000000000000000000600052603260045260246000fd5b7f4e487b7100000000000000000000000000000000000000000000000000000000600052604160045260246000fd5b600080fd5b600080fd5b600080fd5b600080fd5b600080fd5b600080fd5b6000601f19601f8301169050919050565b7f5061757361626c653a206e6f7420706175736564000000000000000000000000600082015250565b7f455243373231456e756d657261626c653a206f776e657220696e646578206f7560008201527f74206f6620626f756e6473000000000000000000000000000000000000000000602082015250565b7f4552433732313a207472616e7366657220746f206e6f6e20455243373231526560008201527f63656976657220696d706c656d656e7465720000000000000000000000000000602082015250565b7f4974656d7320536f6c6400000000000000000000000000000000000000000000600082015250565b7f4f776e61626c653a206e6577206f776e657220697320746865207a65726f206160008201527f6464726573730000000000000000000000000000000000000000000000000000602082015250565b7f4552433732313a207472616e736665722066726f6d20696e636f72726563742060008201527f6f776e6572000000000000000000000000000000000000000000000000000000602082015250565b7f4552433732313a20746f6b656e20616c7265616479206d696e74656400000000600082015250565b7f4552433732313a207472616e7366657220746f20746865207a65726f2061646460008201527f7265737300000000000000000000000000000000000000000000000000000000602082015250565b7f4552433732313a20617070726f766520746f2063616c6c657200000000000000600082015250565b7f4552433732313a206f70657261746f7220717565727920666f72206e6f6e657860008201527f697374656e7420746f6b656e0000000000000000000000000000000000000000602082015250565b7f5061757361626c653a2070617573656400000000000000000000000000000000600082015250565b7f4552433732313a20617070726f76652063616c6c6572206973206e6f74206f7760008201527f6e6572206e6f7220617070726f76656420666f7220616c6c0000000000000000602082015250565b7f63616c6c6572206973206e6f74206f776e657200000000000000000000000000600082015250565b7f4552433732313a2062616c616e636520717565727920666f7220746865207a6560008201527f726f206164647265737300000000000000000000000000000000000000000000602082015250565b7f4552433732313a206f776e657220717565727920666f72206e6f6e657869737460008201527f656e7420746f6b656e0000000000000000000000000000000000000000000000602082015250565b7f4552433732313a206d696e7420746f20746865207a65726f2061646472657373600082015250565b7f45524337323155524953746f726167653a2055524920717565727920666f722060008201527f6e6f6e6578697374656e7420746f6b656e000000000000000000000000000000602082015250565b7f4552433732313a20617070726f76656420717565727920666f72206e6f6e657860008201527f697374656e7420746f6b656e0000000000000000000000000000000000000000602082015250565b7f4f776e61626c653a2063616c6c6572206973206e6f7420746865206f776e6572600082015250565b7f4552433732314d657461646174613a2055524920717565727920666f72206e6f60008201527f6e6578697374656e7420746f6b656e0000000000000000000000000000000000602082015250565b7f4552433732313a20617070726f76616c20746f2063757272656e74206f776e6560008201527f7200000000000000000000000000000000000000000000000000000000000000602082015250565b7f526567697374726174696f6e7320636c6f736564000000000000000000000000600082015250565b7f4552433732313a207472616e736665722063616c6c6572206973206e6f74206f60008201527f776e6572206e6f7220617070726f766564000000000000000000000000000000602082015250565b7f455243373231456e756d657261626c653a20676c6f62616c20696e646578206f60008201527f7574206f6620626f756e64730000000000000000000000000000000000000000602082015250565b7f486f727365206e6f74207265616479206a657400000000000000000000000000600082015250565b7f4552433732314275726e61626c653a2063616c6c6572206973206e6f74206f7760008201527f6e6572206e6f7220617070726f76656400000000000000000000000000000000602082015250565b61652981615bb0565b811461653457600080fd5b50565b61654081615bc2565b811461654b57600080fd5b50565b61655781615bce565b811461656257600080fd5b50565b61656e81615c1a565b811461657957600080fd5b5056fea26469706673582212204a0977252a3f8becb809fe1d4c77a82e02e9ae903e2cd7439e0a37905166f77164736f6c63430008070033",
  "immutableReferences": {},
  "source": "// SPDX-License-Identifier: GPL-3.0\r\npragma solidity >=0.7.0 <0.9.0;\r\n\r\nimport\"./Horses.sol\";\r\n\r\ncontract RacesHorses is Horses{\r\n    uint idnewrace=0;\r\n    uint Mod1= 10 ** 1;\r\nuint private constant N_P= 20;\r\n\r\n\r\n error  CantRegister();\r\n    \r\n    \r\n    \r\n\r\nstruct Race {\r\n        string name;\r\n        uint maxTickets;\r\n        uint min_winners;\r\n        uint max_winners;  //requisito\r\n        uint w_continues; // requisito \r\n        uint[] premios;\r\n        //mapping(address => uint)  registeredHorses; \r\n        Horses[] horses;\r\n        Resultados[]resultados;\r\n        uint hour; //hora de partida\r\n        uint contRace; // contador  \r\n         }\r\n    \r\nstruct Horses{\r\n    address ownerHorse;\r\n    uint tokenid;\r\n        }\r\n    \r\nstruct Resultados{\r\n    uint tokenid;\r\n    uint score;\r\n    uint additional;\r\n    uint m1;\r\n    uint m2;\r\n    uint x;\r\n    uint poinst; \r\n    uint Ppartida;\r\n    uint llegada; // Puesto de llegada \r\n    uint premio1;\r\n    uint premio2;\r\n}    \r\n\r\n\r\n    \r\n   \r\n mapping(uint => Race)  RacesMap; \r\n address[] WhitelisteContract;\r\n  \r\n\r\n\r\n\r\n  //CREATES function\r\n \r\nfunction createrace(string memory name_,uint _maxTickets, uint _minWinners, uint  _maxWinners, uint _w_continues) public onlyOwner{\r\n     idnewrace= idnewrace +1;\r\n     Race storage r= RacesMap[idnewrace];\r\n     r.name = name_;\r\n     r.maxTickets= _maxTickets;\r\n     r.min_winners = _minWinners;\r\n     r.max_winners = _maxWinners;\r\n     r.w_continues= _w_continues; \r\n }   \r\n\r\nfunction _horsesReady(uint _tokenId)internal {\r\nuint lastrace=horses[_tokenId].races.lastrace;//Time: ultima carrera\r\nuint timeLastRace= lastrace + 120;//Sumamos 5 minutos de sleep\r\nrequire (timeLastRace < block.timestamp,\"Horse not ready jet\");\r\nhorses[_tokenId].races.lastrace=block.timestamp;\r\n}\r\n\r\n//Falta: Solo puede listarse si la carrera existe y se encuentra en estado de enlistamiento.\r\n//Falta: Solo puede listar el dueo del tokenid_\r\n//Falta: Es una function pausable  ?\r\n//Falta: Es una function only Owner\r\n// Devolver error del list cuando no enlista\r\n// Misma cartera no puede inscribir mas de 2 caballos\r\n// traer datos verdaderos de tokens\r\nfunction listhorse(uint _race, uint _tokenId)  public payable   {\r\nRace storage r= RacesMap[_race]; //Consulta a array Race\r\nuint Ppartida = r.horses.length +1;\r\nuint maxTickets=r.maxTickets;\r\nrequire( Ppartida <= maxTickets,\"Registrations closed\" );\r\naddress owner = ERC721.ownerOf(_tokenId);             //Comprobamos owner\r\nrequire(_msgSender() == owner,\"caller is not owner\"); // Comprobando owner\r\n/*uint minWinners_r=r.min_winners;\r\nuint maxWinners_r=r.max_winners;*/\r\n_horsesReady(_tokenId);\r\n_pushHorse(_tokenId,_race);\r\n\r\n/*uint winners_h=horses[_tokenId].races.winners;  //Cargando datos de horse\r\n/*uint continues=horses[_tokenId].races.continues;//Gamadas y continuas\r\nstring memory nameH=horses[_tokenId].name;//Cargando Datos Horses name\r\nuint hb1=horses[_tokenId].hb1;     //Hb1  Hb2 y 3 + adicional\r\nuint hb2=horses[_tokenId].hb2;     \r\nuint hb3=horses[_tokenId].hb3;    //Adicional es  Healt + Jockey + herramientas \r\nuint score=hb1 + hb2 +hb3;             \r\n//_pushHorse(_tokenId,timeLastRace,winners_h,_race);\r\nif (winners_h >= minWinners_r && winners_h <= maxWinners_r){\r\nr.horses.push(Horses(msg.sender,_tokenId));\r\n//r.resultados.push(Resultados(_tokenId,score,1,0,0,0,0,Ppartida,0,0,0)); \r\n}\r\nrevert CantRegister();\r\n*/\r\n}\r\n\r\nfunction _pushHorse(uint _tokenId,uint _race) internal{\r\nRace storage r= RacesMap[_race]; //Consulta a array Race\r\n//uint minWinners_r=r.min_winners;\r\n//uint maxWinners_r=r.max_winners;\r\n//uint winners_h=horses[_tokenId].races.winners;  //Cargando datos de horse\r\n//if (winners_h >= minWinners_r && winners_h <= maxWinners_r){\r\nr.horses.push(Horses(msg.sender,_tokenId));\r\n//r.resultados.push(Resultados(_tokenId,score,1,0,0,0,0,Ppartida,0,0,0)); \r\n//}\r\n//revert CantRegister();\r\n} \r\n\r\n\r\n                     //               \r\n/*uint additional=25;          //\r\nuint ramdonmult1= _gRamMult(score);\r\n\r\n // Cargando Datos de Carrera\r\nstring memory stringdata=\"Inscrito\";\r\n*/\r\n\r\n/*\r\nif (winners_h >= minWinners_r && winners_ <= maxWinners_r){\r\n    \r\n\r\n}    \r\nstring memory stringdata=\"Inscrito\";\r\nuint N_p = N_P;   \r\nRace storage r= RacesMap[race_];\r\nuint race_winners = r.winners;\r\nuint Ppartida = r.horses.length +1;\r\nif (race_winners != 0){\r\nif (Ppartida < N_p){  \r\n//+Race.Resultados\r\nr.horses.push(Horses(msg.sender,tokenid_,race_,Ppartida,0,21,22));\r\n\r\nuint ramdonmult1= _gRamMult(score_);//multiplicador traido del listqr\r\n//+Race.Resultados\r\nr.resultados.push(Resultados(tokenid_,score_,5,ramdonmult1,0,0,0)); \r\n}else{ stringdata=\"Inscripciones finalizadas\"; return (stringdata);}    \r\n}else{ stringdata=\"Carrera no disponible\"; return (stringdata);}}\r\n\r\n\r\nfunction  playrace(uint idrace_) public onlyOwner{\r\nRace storage r= RacesMap[idrace_];\r\nuint Pp =r.horses.length - 1;\r\nfor (uint i = 0;  i <= Pp; i++ ){\r\nuint tk_id=r.resultados[i].tokenid;\r\nuint scr=r.resultados[i].score;\r\nuint add=r.resultados[i].additional;\r\nuint m1=r.resultados[i].m1;\r\nuint m2= _gRamMult(tk_id);\r\nuint ramdonmult3= _gRamMult(i);\r\nuint poinst= _gPoinst(m1,m2,scr,add,ramdonmult3);\r\nr.resultados[i]=(Resultados(tk_id,scr,add,m1,m2,ramdonmult3,poinst)); */\r\n\r\n/*\r\nfunction  playrace(uint idrace_) public onlyOwner{\r\nRace storage r= RacesMap[idrace_];\r\nuint Pp =r.horses.length - 1;\r\nfor (uint i = 0;  i <= Pp; i++ ){\r\nuint tk_id=r.resultados[i].tokenid;\r\nuint scr=r.resultados[i].score;\r\nuint add=r.resultados[i].additional;\r\nuint m1=r.resultados[i].m1;\r\nuint m2= _gRamMult(tk_id);\r\nuint ramdonmult3= _gRamMult(i);\r\nuint poinst= _gPoinst(m1,m2,scr,add,ramdonmult3);\r\nr.resultados[i]=(Resultados(tk_id,scr,add,m1,m2,ramdonmult3,poinst)); \r\n    \r\n\r\n}*/\r\n\r\n\r\n\r\n\r\n\r\n\r\n\r\n\r\n\r\n\r\n\r\n//Falta, crear desempate con el tokend de menor id minteo\r\nfunction claimRewards(uint race_)public  {\r\nRace storage r= RacesMap[race_]; \r\nuint Pp_c =r.horses.length - 1;\r\nfor (uint i = 0;  i <= Pp_c; i++ ){\r\nuint tk_id=r.resultados[i].tokenid;\r\nuint scr=r.resultados[i].poinst;\r\nuint j=0;\r\nuint llegada=Pp_c;\r\nwhile ( j < Pp_c){    \r\nuint tk_idj=r.resultados[j].tokenid;\r\nuint scrj=r.resultados[j].poinst;\r\n\r\n\r\nif ( scrj <= scr ) { \r\n//if (tk_id==tk_idj){ llegada     } \r\nif (scrj == scr && tk_idj > tk_id ){ llegada - 1;     } \r\n\r\nllegada -1; }\r\n\r\nj++;\r\n}\r\nr.resultados[j].llegada =llegada ;\r\n//r.horses[i].llegada =llegada ;\r\n    \r\n}\r\n}\r\n\r\n /*   \r\nfunction _listingPoinst( uint race_, uint i_,uint _Ppartida, uint tk_id_, uint scr_, uint add_, uint m1_,uint m2_,uint ram3_, uint poinst_)internal{\r\nRace storage r= RacesMap[race_];\r\nr.resultados[i_]=(Resultados(tk_id_,scr_,5,m1_,m2_,ram3_,poinst_,_Ppartida,0,0,0)); }\r\n*/\r\n\r\n\r\n\r\n\r\n\r\n// GET functions INTERNAL\r\nfunction _gPoinst(uint m1_, uint m2_, uint scr_, uint add_,uint mul_ )internal pure returns(uint){\r\n     uint poinst = 0;\r\n     uint mul = mul_;\r\n    if(mul==2){poinst= (scr_*m1_/m2_) + add_; }\r\n    if(mul==3){poinst= (scr_*m2_/m1_) + add_; }\r\n    if(mul==4){poinst= (scr_*m2_/m1_) + add_ +50; }\r\n    if(mul==5){poinst= (scr_*m1_/m2_) + add_; }\r\n    return(poinst);\r\n} \r\n \r\n \r\n \r\n \r\n function _gRamMult(uint N_) internal  view returns (uint) {\r\n        uint rand = uint(keccak256(abi.encodePacked(N_ , block.timestamp)));\r\n        uint N= rand % Mod1;\r\n        uint Nb= 0;\r\n        if (N <=2){  Nb=2;}\r\n        if (N == 3){  Nb=4;}\r\n        if (N >3 && N<=6){ Nb=3;}\r\n        if (N >6){  Nb=5;}\r\n        return(Nb);\r\n}\r\n\r\n\r\n\r\n\r\n\r\n// GET function Public\r\nfunction gListhorse(uint race_, uint tokenid_)  public view returns(uint inscritos,uint tk_id)  { \r\n//Traemos de horses en Race;\r\nRace storage r= RacesMap[race_];\r\nuint Tid=r.horses[tokenid_].tokenid;\r\nuint uno=r.horses.length;\r\nreturn(uno,Tid);\r\n}\r\n\r\n\r\n\r\n    \r\nfunction gRResultados(uint race_, uint tokenid_)  public view returns(uint Tk_id,uint Score,uint additional,uint Mult1,uint Mult2,uint Pts)  { \r\n//Traemos de resultados en Race;\r\nRace storage r= RacesMap[race_];\r\nuint Tid=r.resultados[tokenid_].tokenid;\r\nuint scr=r.resultados[tokenid_].score;\r\nuint add=r.resultados[tokenid_].additional;\r\nuint m1=r.resultados[tokenid_].m1;\r\nuint m2=r.resultados[tokenid_].m2;\r\nuint pts=r.resultados[tokenid_].poinst;\r\nreturn(Tid,scr,add,m1,m2,pts);\r\n}\r\n\r\nfunction getRHorsesLenght(uint race_)public view returns(uint length){\r\nRace storage r= RacesMap[race_];\r\nuint uno =r.horses.length;\r\nreturn(uno);\r\n}\r\n\r\n\r\n    \r\nfunction getRace( uint idrace_) public view returns(string memory name,uint ganadores,uint Inscritos){\r\nRace memory r= RacesMap[idrace_];\r\nreturn (r.name, r.max_winners,r.horses.length); }\r\n \r\n \r\n}",
  "sourcePath": "C:\\proyecto-horse\\contratos\\horsesycarreras\\hyc1\\contracts\\Races.sol",
  "compiler": {
    "name": "solc",
    "version": "0.8.7+commit.e28d00a7.Emscripten.clang"
  },
  "schemaVersion": "3.4.4",
  "updatedAt": "2022-03-16T19:17:47.289Z",
  "devdoc": {
    "kind": "dev",
    "methods": {
      "approve(address,uint256)": {
        "details": "See {IERC721-approve}."
      },
      "balanceOf(address)": {
        "details": "See {IERC721-balanceOf}."
      },
      "burn(uint256)": {
        "details": "Burns `tokenId`. See {ERC721-_burn}. Requirements: - The caller must own `tokenId` or be an approved operator."
      },
      "getApproved(uint256)": {
        "details": "See {IERC721-getApproved}."
      },
      "isApprovedForAll(address,address)": {
        "details": "See {IERC721-isApprovedForAll}."
      },
      "name()": {
        "details": "See {IERC721Metadata-name}."
      },
      "owner()": {
        "details": "Returns the address of the current owner."
      },
      "ownerOf(uint256)": {
        "details": "See {IERC721-ownerOf}."
      },
      "paused()": {
        "details": "Returns true if the contract is paused, and false otherwise."
      },
      "renounceOwnership()": {
        "details": "Leaves the contract without owner. It will not be possible to call `onlyOwner` functions anymore. Can only be called by the current owner. NOTE: Renouncing ownership will leave the contract without an owner, thereby removing any functionality that is only available to the owner."
      },
      "safeTransferFrom(address,address,uint256)": {
        "details": "See {IERC721-safeTransferFrom}."
      },
      "safeTransferFrom(address,address,uint256,bytes)": {
        "details": "See {IERC721-safeTransferFrom}."
      },
      "setApprovalForAll(address,bool)": {
        "details": "See {IERC721-setApprovalForAll}."
      },
      "symbol()": {
        "details": "See {IERC721Metadata-symbol}."
      },
      "tokenByIndex(uint256)": {
        "details": "See {IERC721Enumerable-tokenByIndex}."
      },
      "tokenOfOwnerByIndex(address,uint256)": {
        "details": "See {IERC721Enumerable-tokenOfOwnerByIndex}."
      },
      "totalSupply()": {
        "details": "See {IERC721Enumerable-totalSupply}."
      },
      "transferFrom(address,address,uint256)": {
        "details": "See {IERC721-transferFrom}."
      },
      "transferOwnership(address)": {
        "details": "Transfers ownership of the contract to a new account (`newOwner`). Can only be called by the current owner."
      }
    },
    "version": 1
  },
  "userdoc": {
    "errors": {
      "InvalidAmount()": [
        {
          "notice": "event TraineHorse event "
        }
      ]
    },
    "kind": "user",
    "methods": {},
    "version": 1
  }
}